:1008000027EF04F0FFFFFFFFD9CF04F0DACF05F0A8
:100810009EEF23F0FFFFFFFFD8CF09F0E8CF0AF0EB
:10082000E0CF0BF0F2A402D0F2940AD09EA202D044
:100830009E9206D0765004E0775002E0766A776A9E
:100840000BC0E0FF0AC0E8FF09C0D8FF1000B8EFF6
:1008500029F0FFFFFFFFFFFFFFFFFFFFFFFFFFFF8D
:10086000FFFFFFFFFFFFFFFFFFFFFFFFFFFFFFFF98
:10087000FFFFFFFFFFFFFFFFFFFFFFFFFFFFFFFF88
:10088000FFFFFFFFFFFFFFFFFFFFFFFFFFFFFFFF78
:10089000FFFFFFFFFFFFFFFFFFFFFFFFFFFFFFFF68
:100F000000000001D76F4F502DE07CEC2AF0000963
:100F100029E0000171A324D0820EE8CF59F6F10E2A
:100F2000E8CF5AF6E8CF5BF67F0EE8CF5CF6030E0B
:100F3000E8CF5DF6060E0D6E590E0C6E0F6A050EAB
:100F40000E6E31EC2AF00001C36FC3C05EF6060ED0
:100F50000D6E590E0C6E0F6A060E0E6EBAEC27F06F
:100F60004F6A12004F5003E0090E4F647ED09DB8C7
:100F70007CD0060E466E590E456E7BEC17F045C0D0
:100F8000DBF046C0DCF00001DC51DB116EE071B13A
:100F90000AD0060E0D6E590E0C6EDBC00EF0DCC0D2
:100FA0000FF0BAEC27F07CEC2AF0000904E0B6EC74
:100FB00025F016EC2AF0000171A726D016EC2AF0D5
:100FC000820EE8CF59F6F10EE8CF5AF6E8CF5BF67D
:100FD0007F0EE8CF5CF6010EE8CF5DF6060E0D6ED3
:100FE000590E0C6E0F6A050E0E6E31EC2AF00001E0
:100FF000C36FC3C05EF6060E0D6E590E0C6E0F6AFF
:10100000060E0E6EBAEF27F071A51BD0040E4F64CA
:1010100018D0820EE8CF59F6F10EE8CF5AF6E8CF95
:101020005BF67F0EE8CF5CF6000EE8CF5DF6060EAD
:101030000D6E590E0C6E0F6A050E0E6E31EC2AF015
:10104000D6D74F5005E026EE5AF0DF5086190AE059
:1010500016EC2AF0010E4F6E5AC686F00001686B3E
:10106000696B03D0050E4F6EF9D74F5001E10BD3DA
:101070000001886B08D30D6A0C6A0F6A0B0E0E6EA6
:101080000001A20E46EC2AF0020E0001A36FA26B33
:10109000A451F00B0709A46F86C0A5F0C00EA66F7F
:1010A000A76B100EA86FA96B030EAA6F010EAB6F92
:1010B00049EC29F00001876BAF6B0101436BD6CF80
:1010C0000EF0D7CF0FF00F500D6E0E500C6E0CC0FF
:1010D00066F00DC067F0020EAED2D6CF0EF0D7CFBD
:1010E0000FF00F500D6E0E500C6E000166510C5E2D
:1010F00067510D5A1B0E0C5D060E0D5901E2E5D22B
:101100004F6AE3D20D6A0C6A0F6A0B0E0E6E000175
:10111000A20E46EC2AF06AC0A2F06BC0A3F0000158
:10112000A451F00B0609A46FA00EA56F70C0A6F025
:101130008A0EA76FA86974C0A9F0AA6949EC29F0C2
:10114000D6CF0EF0D7CF0FF00F500D6E0E500C6EA5
:101150000CC066F00DC067F0040E6DD2060E0001E3
:10116000D96F5C0ED86F59C6E8FF3F0BE56FE56796
:1011700006D05CC6E5F0060ED96F5D0ED86F0D6A1D
:101180000C6A0F6A0B0E0E6EA20E46EC2AF06AC0B5
:10119000A2F06BC0A3F000016851E55DE36F6951F7
:1011A000D8A06929E46BE45F6951681108E1010185
:1011B000426B0001A66BE5C0A7F0030E01D0010E43
:1011C000E66F080EC36FC46BE651C35F000EC45BCD
:1011D000E351C35DE451C45908E2E6510808E36FE6
:1011E000000ED8A0E82A0008E46FDF6B14D0DF51AE
:1011F000D825C36F000ED921C46F6851C325D96E9D
:101200006951C421DA6EDF51A50FE625E16EE26A6D
:10121000DFCFE7FFDF2BDF51C36FC46BE351C35D4B
:10122000E451C459E4E3E651E325C36FA419F00B7C
:10123000C319A46FE3516827E4516923E551C36FD3
:10124000C46BC351685DC451695904E3010EDA6F80
:10125000080E17D00101422B000185510AE085518B
:101260000101425D06E30001DA6B0101426B070EEA
:1012700008D0020E0001DA6F01013B513A1102E081
:10128000060E4F6E87C0C3F00F0E0001C317DA3988
:10129000F00BC311A56F87290F0B876F49EC29F05D
:1012A000D6CF0EF0D7CF0FF00F500D6E0E500C6E44
:1012B0000CC066F00DC067F008D2090E0001C36FC4
:1012C0003D0EC46FC56BC66B01013A510001C76F7B
:1012D00001013B510001C86FC96BCA6BC751C30301
:1012E000F3CFCBF0F4CFCCF0CD6BCE6BC403F35087
:1012F000CC27F450CD23000ECE23C851C303F350A6
:10130000CC27F450CD23000ECE23C751C503F35094
:10131000CD27F450CE23C851C403F350CD27F45049
:10132000CE23C951C303F350CD27F450CE23C65169
:10133000C703F350CE27C851C503F350CE27C95178
:10134000C403F350CE27CA51C303F350CE27CBC0FA
:101350000CF0CCC00DF0CDC00EF0CEC00FF0E80EFA
:10136000106E030E116E000E126A136A80EC28F0E4
:101370000CC0CFF00DC0D0F00EC0D1F00FC0D2F035
:10138000D6CF0EF0D7CF0FF00F500D6E0E500C6E63
:10139000000166510C5CD36F67510D58D46FD56B4B
:1013A000D66BCF51D35DD051D459D151D559D251EB
:1013B000D65901E28AD1050E3ED153504B5C5450B0
:1013C0004C5801E283D0400E535C000E545811E398
:1013D000800EE8CF59F6000EE8CF5AF626EE5BF005
:1013E000000186C0DFFF26EE5CF053C0DFFF040E75
:1013F0000FD053C0C3F0800E0001C313C3C059F611
:10140000000EE8CF5AF626EE5BF086C0DFFF030E33
:101410005324E06F000E5420E16F060E0D6E590E3E
:101420000C6EE0C00EF0E1C00FF031EC2AF00001CC
:10143000C36F590EE025D96E060EE121DA6EC3C0E6
:10144000DFFFE04BE12B060E0D6E590E0C6EE0C077
:101450000EF0E1C00FF0BAEC27F0000901E135D140
:10146000010143510EE0D6CF0EF0D7CF0FF00F5051
:101470000D6E0E500C6E0CC066F00DC067F00A0EBB
:10148000DAD0820EE8CF59F6F10EE8CF5AF6E8CF5F
:101490005BF67F0EE8CF5CF6020EE8CF5DF6060E37
:1014A0000D6E590E0C6E0F6A050E0E6E31EC2AF0A1
:1014B0000001C36FC3C05EF6060E0D6E590E0C6EB2
:1014C0000F6A060E0E6EBAEC27F0CDD7D6CF0EF00F
:1014D000D7CF0FF00F500D6E0E500C6E00016651FD
:1014E0000C5E67510D5A1B0E0C5D060E0D5901E284
:1014F000ECD016EC2AF0E9D0090E0001C36F3D0EC6
:10150000C46FC56BC66B01012C510001C76F01018F
:101510002D510001C86FC96BCA6BC751C303F3CF0C
:10152000CBF0F4CFCCF0CD6BCE6BC403F350CC2713
:10153000F450CD23000ECE23C851C303F350CC2763
:10154000F450CD23000ECE23C751C503F350CD2751
:10155000F450CE23C851C403F350CD27F450CE230A
:10156000C951C303F350CD27F450CE23C651C7034E
:10157000F350CE27C851C503F350CE27C951C40339
:10158000F350CE27CA51C303F350CE27CBC00CF083
:10159000CCC00DF0CDC00EF0CEC00FF0E80E106E36
:1015A000030E116E000E126A136A80EC28F00CC054
:1015B000CFF00DC0D0F00EC0D1F00FC0D2F0D6CF1A
:1015C0000EF0D7CF0FF00F500D6E0E500C6E0001C5
:1015D00066510C5CD36F67510D58D46FD56BD66BC9
:1015E000CF51D35DD051D459D151D559D251D659BB
:1015F0006CE30D6A0C6A0F6A0B0E0E6EA20E46ECBF
:101600002AF06AC0A2F06BC0A3F00001A451F00B55
:101610000109A46FA30EA56F49EC29F0D6CF0EF0F7
:10162000D7CF0FF00F500D6E0E500C6E0CC066F041
:101630000DC067F00B0E4F6E48D048D7D6CF0EF0D6
:10164000D7CF0FF00F500D6E0E500C6E000166518B
:101650000C5E67510D5A1B0E0C5D060E0D5901E311
:1016600048D733D0D6CF0EF0D7CF0FF00F500D6E36
:101670000E500C6E000166510C5E67510D5A1C0E27
:101680000C5DB70E33D74F5020E0010A01E1F3D4CF
:10169000030A01E122D5010A01E134D5070A01E17B
:1016A00015D7010A01E15AD5030A01E106D6010A5C
:1016B00001E10CD70F0A01E109D7010A01E17DD64A
:1016C000030A01E119D7010ACDE00001D751D8B4CE
:1016D0001200C36B020EC46F8651C56FC66BC35137
:1016E000C527C451C6239851C61902E19751C5199F
:1016F00025E199510F0B070A21E14F50020AD8A4A6
:1017000012009B51D00AD8B49DB912009FB91200A3
:101710009D510101396F00019C510101386F000199
:101720009F516B6F9E516A6F0F0E856F000E010106
:101730003B6F0A0E3A6F030E4F6E030C020E4F649E
:10174000020C010139510001981904E101013851DD
:1017500000019719D8A4120099510F0BD8B41200A8
:101760009A510F0BE26F9A390F0BE76F28D1AF51E7
:10177000E21902E016EF2AF0E2290F0BAF6F4F508B
:10178000090A4CE04F500A0A03E04F500B0AF2E1FD
:1017900099510F0BC36F030EC35DD8A012009C516B
:1017A0009BC0C3F0C46BC3C0C4F0C36BC327000E9F
:1017B000C423C351536E7F0EC415546E010E9BAFEC
:1017C000000E0101436F000E535C010E5458D2E22B
:1017D000400E535C000E545805E3060E0001656F81
:1017E0005D0E04D0060E0001656F5C0E646F9951AA
:1017F0000F0BFD0FDD6F65C00DF064C00CF00F6ABC
:101800009D0E0E6EDDC010F0116AD9EC29F00001BA
:10181000DDC04BF04C6A090E4F6E1DD053504B5C2F
:1018200054504C58A7E299510F0BC36FC305DE6F9C
:101830004B5064250C6E4C5065210D6E0F6A9B0E4B
:101840000E6EDEC010F0116AD9EC29F00001DE51F5
:101850004B26000E4C22E70503E0E751030A05E1A1
:1018600053504B5C54504C5885E3E75102E0E70578
:1018700017E10D6A0C6A0F6A0B0E0E6EA20E46EC93
:101880002AF06AC0A2F06BC0A3F00001A451F00BD3
:101890000109A46FAF510F0BB009A56F49EC29F0F6
:1018A000D6CF0EF0D7CF0FF00F500D6E0E500C6E3E
:1018B0000CC066F00DC067F012004F500B0A0FE12C
:1018C000D6CF0EF0D7CF0FF00F500D6E0E500C6E1E
:1018D0000CC066F00DC067F00A0E4F6E0A0C4F5038
:1018E000040AD8A4120099510F0B060A09E19BC003
:1018F00085F09E5173EC27F013C03AF114C03BF110
:1019000071A525D0820EE8CF59F6F10EE8CF5AF630
:10191000E8CF5BF67F0EE8CF5CF6000EE8CF5DF611
:10192000060E0D6E590E0C6E0F6A050E0E6E31EC22
:101930002AF00001C36FC3C05EF6060E0D6E590E8D
:101940000C6E0F6A060E0E6EBAEC27F0B9D7050EB4
:101950004F6E050C0D6A0C6A0F6A0B0E0E6EA20E0E
:1019600046EC2AF06AC0A2F06BC0A3F00001A451BB
:10197000F00B0609A46FA10EA56F70C0A6F08A0E29
:10198000A76FA86974C0A9F0AA6949EF29F09A5114
:10199000A10A93E0020AD8A41200DCD7E251871909
:1019A00001E0E8D67DD7E251871901E0E3D64F5038
:1019B000080A86E04F50070AD8A41200C8D7E7519A
:1019C00001E1D5D6010A01E1D2D6030A01E1CFD661
:1019D000010A01E1CCD60A0AE1E0030AD8E0010AD3
:1019E000D8A41200E0D70101106F590E0001CB6F8F
:1019F000060ECC6FCCC0CBF0CC6BCB5101011B6F72
:101A00001C6B1D6B060E1F6F590E1E6F060E216F8D
:101A1000590E206F3C693D694A50471048104910E3
:101A200076E1F29E20EC27F09E92F294886B0400FF
:101A300082A2CA84CAB438D09EAA02D0F28E010C07
:101A4000F2A408D0F2940001882B100E886502D011
:101A5000F28E000C82A2CA8401011D511C11D8A46F
:101A6000ACA2E5D782A2CA8420C1D9FF21C1DAFF86
:101A7000DF50AD6E82A2CA84204B212B82A2CA8481
:101A80001B51215D086F82A2CA840851050A06E134
:101A900082A2CA84060E216F590E206F82A2CA84C8
:101AA0001C07D8A01D07C3D70001886B8A9C0101C1
:101AB000136B156B9EA2FED79E9282A204D0D89083
:101AC0001333138F02D0D8901333152B070E1565DF
:101AD000F1D7000E1C5D050E1D5914E21EC1D9FF81
:101AE0001FC1DAFF13C1DFFF1E4B1F2B1C4B1D2B29
:101AF0001B511F5D096F0951050A04E1060E1F6F96
:101B0000590E1E6FCA94CC6A9E928A8C90D7E8ECCC
:101B100024F000099EE0F29E20EC27F09E92F294C1
:101B2000886BD6CF0EF0D7CF0FF00F500D6E0E5042
:101B30000C6E0CC00CF10DC00DF10400CAB40ED037
:101B400082B20CD000018D51D8B407D08DC0CCFF2B
:101B5000CA849EA2FED79E9201D0CA84CAB457D32B
:101B60009EBA6CD7F2A407D0F2940001882B100E15
:101B7000886501D06DD7CAB40ED082B20CD00001F6
:101B80008D51D8B407D08DC0CCFFCA849EA2FED799
:101B90009E9201D0CA8401011D511C11D8A4ACA28F
:101BA000CCD7CAB40ED082B20CD000018D51D8B4BB
:101BB00007D08DC0CCFFCA849EA2FED79E9201D0D2
:101BC000CA8420C1D9FF21C1DAFFDF50AD6E000108
:101BD000915101E1CAD120C1D9FF21C1DAFFDF5003
:101BE00001013C6F3D6B106703D00001906B30D753
:101BF000D6CF0EF0D7CF0FF00F500D6E0E500C6EEB
:101C000001010C510C5C116F0D510D58126F0E6BD0
:101C100011510001CB6F010112510001CC6FCD6B4E
:101C2000CE6B090ECF6F3D0ED06FD16BD26B93C0D0
:101C3000D3F0D46BD56BD66BD351CF03F3CFD7F0A2
:101C4000F4CFD8F0D96BDA6BD003F350D827F45027
:101C5000D923000EDA23D451CF03F350D827F45000
:101C6000D923000EDA23D351D103F350D927F450EE
:101C7000DA23D451D003F350D927F450DA23D551C5
:101C8000CF03F350D927F450DA23D251D303F350C2
:101C9000DA27D451D103F350DA27D551D003F350CA
:101CA000DA27D651CF03F350DA27D7C00CF0D8C0CB
:101CB0000DF0D9C00EF0DAC00FF0E80E106E030E72
:101CC000116E000E126A136A80EC28F00CC0DBF073
:101CD0000DC0DCF00EC0DDF00FC0DEF00001CB5116
:101CE000DB5DCC51DC59CD51DD59CE51DE5904E2DA
:101CF000906B010E01010E6F640E0001CB6FCC6B77
:101D0000CD6BCE6B010111510001CF6F010112515A
:101D10000001D06FD16BD26BCF51CB03F3CFD3F097
:101D2000F4CFD4F0D56BD66BCC03F350D427F4505A
:101D3000D523000ED623D051CB03F350D427F45033
:101D4000D523000ED623CF51CD03F350D527F45021
:101D5000D623D051CC03F350D527F450D623D151FC
:101D6000CB03F350D527F450D623CE51CF03F350F5
:101D7000D627D051CD03F350D627D151CC03F35001
:101D8000D627D251CB03F350D627D3C00CF0D4C002
:101D90000DF0D5C00EF0D6C00FF0090E106E3D0E3E
:101DA000116E000E126A136A80EC28F00CC017F155
:101DB0000DC018F10EC019F10FC01AF1800E01010B
:101DC000175D000E1859000E1959000E1A5906E336
:101DD0007F0E176F000E186F196F1A6F0E51D8A46F
:101DE000178F0001906707D020C1D9FF21C1DAFF0A
:101DF000DF50906F926B9051925D05E3ACA2FED7DD
:101E000017C1ADFF25D6922BF28E8F5101E185D0FF
:101E1000D6CF0EF0D7CF0FF00F500D6E0E500C6EC8
:101E20000CC000F10DC001F1090E0001CB6F3D0E99
:101E3000CC6FCD6BCE6B8FC0CFF0D06BD16BD26B34
:101E4000CF51CB03F3CFD3F0F4CFD4F0D56BD66B17
:101E5000CC03F350D427F450D523000ED623D05111
:101E6000CB03F350D427F450D523000ED623CF5103
:101E7000CD03F350D527F450D623D051CC03F350E3
:101E8000D527F450D623D151CB03F350D527F450A6
:101E9000D623CE51CF03F350D627D051CD03F350E4
:101EA000D627D151CC03F350D627D251CB03F350D0
:101EB000D627D3C00CF0D4C00DF0D5C00EF0D6C0DC
:101EC0000FF0E80E106E030E116E000E126A136A08
:101ED00080EC28F00CC0D7F00DC0D8F00EC0D9F0BF
:101EE0000FC0DAF0D7C002F1D8C003F101D004006E
:101EF000D6CF0EF0D7CF0FF00F500D6E0E500C6EE8
:101F0000010100510C5E01510D5A025100010C5D9E
:101F10000101035100010D59EAE3ACA2FED717C13C
:101F2000ADFF270E501620C1D9FF21C1DAFFDF1CFB
:101F30000101446F010E236E440E226E256A010ECC
:101F4000246EABEC14F0F29ED6CF0EF0D7CF0FF08C
:101F50000F500D6E0E500C6E0CC00CF10DC00DF13B
:101F600020EC27F09E92F294886BCAB40ED082B215
:101F70000CD000018D51D8B407D08DC0CCFFCA84DD
:101F80009EA2FED79E9201D0CA8400018C5101E12D
:101F9000D9D0CAB40ED082B20CD000018D51D8B4C1
:101FA00007D08DC0CCFFCA849EA2FED79E9201D0DE
:101FB000CA8400018C07CAB40ED082B20CD00001D2
:101FC0008D51D8B407D08DC0CCFFCA849EA2FED755
:101FD0009E9201D0CA8400018C67B4D001011051D7
:101FE00001E1B0D00F6B00018EA10AD020C1D9FF52
:101FF00021C1DAFFDF508F0A03E0010E01010F6FEC
:102000000FC191F00001906BF28ED6CF0EF0D7CFBA
:102010000FF00F500D6E0E500C6E0CC004F10DC081
:1020200005F1090E0001CB6F3D0ECC6FCD6BCE6B71
:102030008BC0CFF0D06BD16BD26BCF51CB03F3CF32
:10204000D3F0F4CFD4F0D56BD66BCC03F350D427B8
:10205000F450D523000ED623D051CB03F350D42710
:10206000F450D523000ED623CF51CD03F350D527FE
:10207000F450D623D051CC03F350D527F450D623B7
:10208000D151CB03F350D527F450D623CE51CF03F3
:10209000F350D627D051CD03F350D627D151CC03DE
:1020A000F350D627D251CB03F350D627D3C00CF030
:1020B000D4C00DF0D5C00EF0D6C00FF0E80E106EF3
:1020C000030E116E000E126A136A80EC28F00CC029
:1020D000D7F00DC0D8F00EC0D9F00FC0DAF0D7C0DD
:1020E00006F1D8C007F101D00400D6CF0EF0D7CF4B
:1020F0000FF00F500D6E0E500C6E010104510C5E6E
:1021000005510D5A065100010C5D010107510001F6
:102110000D59EAE3270E501620C1D9FF21C1DAFF7D
:10212000DF1C0101446F010E236E440E226E256AEE
:10213000010E246EABEC14F0F29E20EC27F09E9280
:10214000F294886BCAB40ED082B20CD000018D51CB
:10215000D8B407D08DC0CCFFCA849EA2FED79E9271
:1021600001D0CA840101204B212BCAB40ED082B207
:102170000CD000018D51D8B407D08DC0CCFFCA84DB
:102180009EA2FED79E9201D0CA8401011B51215DFF
:102190000A6FCAB40ED082B20CD000018D51D8B4EF
:1021A00007D08DC0CCFFCA849EA2FED79E9201D0DC
:1021B000CA8401010A51050A15E1CAB40ED082B2DF
:1021C0000CD000018D51D8B407D08DC0CCFFCA848B
:1021D0009EA2FED79E9201D0CA84060E0101216FF5
:1021E000590E206FCAB40ED082B20CD000018D51AE
:1021F000D8B407D08DC0CCFFCA849EA2FED79E92D1
:1022000001D0CA8401011C07D8A01D0796D4000183
:10221000886B8A9C0101146B166B0CD09EA2FED7B2
:102220009E9282A204D0D8901433148F02D0D890FA
:102230001433162B070E1665F1D750C0CBF00001F2
:10224000CB1703E09EA2FED79E92000E01011C5DFB
:10225000050E1D5914E21EC1D9FF1FC1DAFF14C1BA
:10226000DFFF1E4B1F2B1C4B1D2B1B511F5D0B6FCC
:102270000B51050A04E1060E1F6F590E1E6F9EA238
:10228000FED79E92CA94CC6A9E928A8C56D42950CC
:10229000050A2A106EE1810E27C0D9FF28C0DAFF97
:1022A000DF6267D020EE01F02750D9262850DA22CD
:1022B000DF505FE120EE02F02750D9262850DA22C5
:1022C000DF5057E128C00DF027C00CF029C00EF0F8
:1022D0002AC00FF0BAEC27F020EE03F02750D926E1
:1022E0002850DA22DF50406E79EC2AF0000E0D6A99
:1022F0000C6A40C00EF096EC29F079EC2AF00D6AD9
:10230000010E0C6E401C0E6E96EC29F042EC28F08B
:1023100020EE03F02750D9262850DA220001781D3C
:10232000DF6E28C00DF027C00CF0FF0E29240E6EC2
:10233000FF0E2A200F6E31EC2AF02B6E27C02CF0F6
:1023400028C02DF029502C262A502D22FF0E2C2497
:10235000D96EFF0E2D20DA6E2BC0DFFF28C00DF0E6
:1023600027C00CF029C00EF02AC00FF0BAEC27F0FD
:10237000010C20EE01F02750D9262850DA22F10E68
:10238000DF62000C20EE02F02750D9262850DA2216
:10239000F10EDF62000C28C00DF027C00CF029C040
:1023A0000EF02AC00FF0BAEC27F02950060A2A10C6
:1023B0003BE120EE03F02750D9262850DA22DF50E7
:1023C0002B6E7F0E2B1630E120EE03F02750D9261E
:1023D0002850DA22DF502B6E2BBE1CD020EE04F0EA
:1023E0002750D9262850DA22DF50416E79EC2AF0A6
:1023F0000D6A020E0C6E41C00EF096EC29F079ECDD
:102400002AF00D6A030E0C6E411C0E6E96EC29F03C
:1024100042EC28F020EE04F02750D9262850DA228A
:1024200000016EC0DFFF7DD72950060A2A103DE16A
:1024300020EE03F02750D9262850DA22DF502B6EE9
:102440007F0E2B162B50010A30E120EE03F02750AF
:10245000D9262850DA22DF502B6E2BBE1CD020EE5E
:1024600004F02750D9262850DA22DF50426E79EC4A
:102470002AF00D6A040E0C6E42C00EF096EC29F0A4
:1024800079EC2AF00D6A050E0C6E421C0E6E96EC6D
:1024900029F042EC28F020EE04F02750D9262850ED
:1024A000DA22000184C0DFFF3CD72950060A2A1037
:1024B0003DE120EE03F02750D9262850DA22DF50E4
:1024C0002B6E7F0E2B162B50020A30E120EE03F00C
:1024D0002750D9262850DA22DF502B6E2BBE1CD075
:1024E00020EE04F02750D9262850DA22DF50436E20
:1024F00079EC2AF0000E0D6A0C6A43C00EF096ECDF
:1025000029F079EC2AF00D6A010E0C6E431C0E6E58
:1025100096EC29F042EC28F020EE04F02750D92662
:102520002850DA22000178C0DFFFFBD6060E295CB6
:10253000000E2A582FE320EE03F02750D92628500A
:10254000DA22DF502B6E7F0E2B162B50040A22E16D
:1025500027C0D9FF28C0DAFF810EDF6E28C00DF03A
:1025600027C00CF00F6A040E0E6E31EC2AF02B6EB1
:1025700020EE04F02750D9262850DA222BC0DFFFA6
:1025800028C00DF027C00CF00F6A050E0E6EBAECD5
:1025900027F0010C060E295C000E2A580DE320EEF0
:1025A00003F02750D9262850DA22DF502B6E7F0EF9
:1025B0002B162B50050ACCE02950060A2A105BE1A5
:1025C00020EE03F02750D9262850DA22FA0EDF62D7
:1025D00052D020EE04F02750D9262850DA22FA0EE5
:1025E000DF6249D027C0D9FF28C0DAFF830EDF6E33
:1025F00020EE04F02750D9262850DA22000EF36A84
:1026000000017763F32AF3CF2BF02B50DF6E7B674B
:1026100003D03E6A3F6A03D03F6A020E3E6E20EE50
:1026200004F02750D9262850DA223E50DF1220EE3F
:1026300005F02750D9262850DA227AC0DFFF28C0BB
:102640000DF027C00CF00F6A060E0E6E31EC2AF06A
:102650002B6E20EE06F02750D9262850DA222BC008
:10266000DFFF28C00DF027C00CF00F6A070E0E6EBA
:10267000BAEC27F0010C2950060A2A1058E120EE86
:1026800003F02750D9262850DA22FB0EDF624FD004
:1026900020EE04F02750D9262850DA22FB0EDF6204
:1026A00046D027C0D9FF28C0DAFF890EDF6E200E82
:1026B0003D6E3C6A3B6A446A070E446401D01BD0FD
:1026C0003BC0F6FF3CC0F7FF3DC0F8FF4450272455
:1026D0002B6E000E28202C6E040E2B24D96E000EBB
:1026E0002C20DA6E0800F5CFDFFF3B2A000E3C22DB
:1026F0003D22442AE1D728C00DF027C00CF00F6A14
:102700000C0E0E6E31EC2AF02B6E20EE0CF02750E2
:10271000D9262850DA222BC0DFFF28C00DF027C0B1
:102720000CF00F6A0D0E0E6EBAEC27F0010C29505A
:10273000060A2A107DE120EE03F02750D926285002
:10274000DA22FC0EDF6274D020EE04F02750D92686
:102750002850DA22FC0EDF626BD0C282C2B2FED7F2
:1027600020EE04F02750D9262850DA222C0E2B6EAA
:10277000010E2C6E000E2D6A2E6AC3CF2FF0C4CF2F
:1027800030F030BEFF0E316E326E2F502B02F3CF81
:1027900033F0F4CF34F0356A366A2C02F350342625
:1027A000F4503522000E362230502B02F3503426DE
:1027B000F4503522000E36222F502D02F3503526CC
:1027C000F450362230502C02F3503526F450362285
:1027D00031502B02F3503526F45036222E502F0262
:1027E000F350362630502D02F350362631502C024D
:1027F000F350362632502B02F350362633C00CF0FD
:1028000034C00DF035C00EF036C00FF0106A100E57
:10281000116E000E126A136AACEC26F00CC037F091
:102820000DC038F00EC039F00FC03AF0375078D5EF
:102830002950060A2A1052E120EE03F02750D9262B
:102840002850DA22FD0EDF6249D020EE04F0275036
:10285000D9262850DA22FD0EDF6240D027C0D9FFEA
:1028600028C0DAFF850EDF6E20EE04F02750D9264F
:102870002850DA22DF6A20EE05F02750D9262850AA
:10288000DA22020EDF6E20EE06F02750D9262850FD
:10289000DA22DF6A20EE07F02750D9262850DA2204
:1028A0000A0EDF6E28C00DF027C00CF00F6A080E6C
:1028B0000E6E31EC2AF02B6E20EE08F02750D92650
:1028C0002850DA222BC0DFFF28C00DF027C00CF003
:1028D0000F6A090E0E6EBAEC27F0010C2950060A99
:1028E0002A1025E120EE03F02750D9262850DA22BD
:1028F000FE0EDF621CD020EE04F02750D9262850AF
:10290000DA22FE0EDF6213D020EE04F02750D92623
:102910002850DA22010E82A8000EDF6E20EE04F0AD
:102920002750D9262850DA22000EDB8EFAD420EE6A
:1029300003F02750D9262850DA22FF0EDF62010C5F
:1029400020EE04F02750D9262850DA22FF0EDF624D
:10295000010CFF00010C000123C0C8F022C0C7F029
:1029600002D0BBEC28F09DB8FCD7BBEC28F04A5055
:1029700047104810491043E1F29EAB98CD909E90CD
:10298000526A20EC27F09E92CA848A9E8A92B86B83
:10299000B96B28D004009EA2FED79E928A80C7C041
:1029A000D9FFC8C0DAFFDF500001BA6FC74BC82B90
:1029B000C36B9EA2FED79E920001BAA102D08A905C
:1029C00001D08A80D890BA33C32B070EC365F1D7E4
:1029D0009EA2FED79E928A909EA2FED79E92000152
:1029E000B84BB92B2450B85D2550B959D3E38A9020
:1029F0008A8ECA94F294AB88886BF28E1200F29E93
:102A0000AB98CD909E90526A0001CA6BC96B50AED4
:102A100002D0010ECA6F50A603D0010EC96F02D0BA
:102A2000010ECA6F50A8F7D0030E245C000E255883
:102A300001E2EAD0090E266E3D0E276E286A296A49
:102A400022C0D9FF23C0DAFFDF502A6E2AC02BF044
:102A50002C6A2D6A2E6A2B502602F3CF2FF0F4CF6A
:102A600030F0316A326A2702F3503026F4503122B6
:102A7000000E32222C502602F3503026F450312220
:102A8000000E32222B502802F3503126F45032220D
:102A90002C502702F3503126F45032222D502602BA
:102AA000F3503126F450322229502B02F3503226B3
:102AB0002C502802F35032262D502702F350322694
:102AC0002E502602F35032262FC00CF030C00DF0ED
:102AD00031C00EF032C00FF0E80E106E030E116E12
:102AE000000E126A136A80EC28F00CC033F00DC09F
:102AF00034F00EC035F00FC036F033C0B0F034C043
:102B0000B1F020EE01F02250D9262350DA22DF5016
:102B10000001BD6FBD51266E276A070E2626000EE6
:102B200027222734273226322734273226322734E9
:102B3000273226322650BE6FBE51266E276A020EFD
:102B40002626000E27222450265C255027580EE208
:102B5000BE512224266E000E2320276E020E26244C
:102B6000D96E000E2720DA6EDF508B6F020E222402
:102B7000C76F000E2320C86F8A9EC46B42D004002A
:102B8000C4C026F0070E261609E1C7C0D9FFC8C089
:102B9000DAFFDF500001BB6FC74BC82B0001BBA1A0
:102BA00007D0CA51D8A48A90C95108E08A9206D0A9
:102BB000CA51D8A48A80C951D8A48A82D890BB337C
:102BC000D6CF0EF0D7CF0FF00F500D6E0E500C6E0B
:102BD0000CC0B2F00DC0B3F001D00400D6CF0EF09F
:102BE000D7CF0FF00F500D6E0E500C6E0001B2518A
:102BF0000C5EB3510D5AB0510C5CB1510D58EDE360
:102C0000C42BBD51C45DBBE38A908A928A8EAB8887
:102C1000886BF28E120020EC27F08A9E50AC4CD0CC
:102C2000CA51D8A48A80C951D8A48A82D6CF0EF0BE
:102C3000D7CF0FF00F500D6E0E500C6E0CC0BFF0C2
:102C40000DC0C0F001D00400D6CF0EF0D7CF0FF0EA
:102C50000F500D6E0E500C6E0001BF510C5EC05136
:102C60000D5A860E0C5C010E0D58EDE3CA51D8A426
:102C70008A90C951D8A48A92D6CF0EF0D7CF0FF040
:102C80000F500D6E0E500C6E0CC0BFF00DC0C0F09A
:102C900001D00400D6CF0EF0D7CF0FF00F500D6E3D
:102CA0000E500C6E0001BF510C5EC0510D5A860EC5
:102CB0000C5C010E0D58EDE39E92CA84C16BC26B91
:102CC0000CD18F5101E189D0C251C11101E185D0F0
:102CD000CA94D6CF0EF0D7CF0FF00F500D6E0E5016
:102CE0000C6E0CC0B4F00DC0B5F0090E266E3D0E92
:102CF000276E286A296A00018FC02AF02B6A2C6A85
:102D00002D6A2A502602F3CF2EF0F4CF2FF0306A2E
:102D1000316A2702F3502F26F4503022000E312260
:102D20002B502602F3502F26F4503022000E312271
:102D30002A502802F3503026F45031222B5027021B
:102D4000F3503026F45031222C502602F350302616
:102D5000F450312229502A02F35031262B502802F8
:102D6000F35031262C502702F35031262D502602E5
:102D7000F35031262EC00CF02FC00DF030C00EF0F5
:102D800031C00FF0E80E106E030E116E000E126AC5
:102D9000136A80EC28F00CC032F00DC033F00EC086
:102DA00034F00FC035F032C0B6F033C0B7F001D008
:102DB0000400D6CF0EF0D7CF0FF00F500D6E0E508F
:102DC0000C6E0001B4510C5EB5510D5AB6510C5C3D
:102DD000B7510D58EDE39E92CA8404009EA2FED71F
:102DE0009E920001CA51D8A48A80C951D8A48A826F
:102DF000C7C0D9FFC8C0DAFFDF50BC6FC74BC82BB4
:102E0000C56BC66B070EC66501D048D09EA2FED723
:102E10009E920001BCA108D0CA51D8A48A90C95181
:102E2000D8A48A92C52B06D0CA51D8A48A80C95189
:102E3000D8A48A82D890BC33C62BE4D79EA2FED7F2
:102E40009E920001C5A104D0CA51D8A48A9017D07F
:102E5000CA51D8A48A801ED09EA2FED79E9200019D
:102E6000C5A103D0CA51F6E115D0CA51EFE107D090
:102E70009EA2FED79E920001CA51D8A48A90C95141
:102E80001CE08A921AD09EA2FED79E920001CA51DF
:102E9000D8A48A80C95111E08A820FD05050070B04
:102EA000266E276A275009E12650010AC7E0030A67
:102EB000D3E0010ADDE0070AE6E09EA2FED79E927B
:102EC0000001CA51D8A48A90C951D8A48A929EA25E
:102ED000FED79E920001C14BC22B2450C15D2550EC
:102EE000C25901E2EED68A908A928A8ECA94AB8841
:102EF000886BF28E12005250020A03E0456A466A5D
:102F000012000001886BC16BC26B94511BE04DC075
:102F1000C1F04EC0C2F0465045100FE046C00DF063
:102F200045C00CF00B0E0F6E590E0E6EC1C010F0A6
:102F3000C2C011F0D9EC29F0526AC1C045F0C2C03C
:102F400046F01200BF6BC06B59CBE8FF000901E0EF
:102F5000D5D12BEE5AF0DF506FE14650451002E01C
:102F60005104CCE12BEE5CF0DF505BCBB0F0B0C095
:102F7000B1F0B26BB36BB46BB3C0B4F0B2C0B3F02A
:102F8000B1C0B2F0B16BB125B56F000EB221B66F12
:102F9000000EB321B76F000EB421B86FD890B535CD
:102FA000476EB635486EB735496EB8354A6E4A50E9
:102FB0004710481049101BE04750020A48104910BA
:102FC0004A1015E0A00E475C0F0E4858000E4958F5
:102FD000000E4A5809E3A90E475C610E4858000EDE
:102FE0004958000E4A5803E3C16BC26B22D05DCB37
:102FF00050F08E6B936B5ECB8FF060CBB0F02BEE0E
:103000005FF0DF50C26FB051C16F465045100EE007
:1030100046C00DF045C00CF00B0E0F6E610E0E6E2B
:10302000C1C010F0C2C011F0D9EC29F0010E0001AE
:10303000BF6F8B6B8C6BEAD0010E2BEE5AF0DF6208
:103040006DD0465045100AE05150020A01E056D7B3
:103050002BEE5BF0DF50751901E050D72BEE5BF0E3
:10306000DF50751902E0010EC06F5BCB75F02BEEDF
:103070005CF0DF506F1902E0010EC06F5CCB6FF0A7
:103080005DCB71F060C0B9F061C0BAF01ED06EC007
:1030900072F084C073F05FCBB0F02BEE5EF0DF50C7
:1030A000636FB051626F070E616FE80E606F11D0F1
:1030B0005ECB70F05FCB74F02BEE60F0DF500A0D4A
:1030C000F3CF2CF1F4CF2DF104D07551020ADFE0DB
:1030D000EFD76151BA1902E16051B91902E0010E4E
:1030E000C06F62CBB0F02BEE61F0DF50C26FB05119
:1030F000C16F465045100EE046C00DF045C00CF0C3
:103100000B0E0F6E630E0E6EC1C010F0C2C011F038
:10311000D9EC29F0020E0001BF6F6FD1020E2BEE29
:103120005AF0DF6277D04650451003E0510401E0C9
:10313000E5D62BEE5CF0DF505BCBB0F0B0C0B1F069
:10314000B26BB36BB46BB3C0B4F0B2C0B3F0B1C088
:10315000B2F0B16BB125B56F000EB221B66F000EA3
:10316000B321B76F000EB421B86FD890B535476E54
:10317000B635486EB735496EB8354A6E4A50471075
:10318000481049101BE04750020A481049104A10E5
:1031900015E0A00E475C0F0E4858000E4958000E6F
:1031A0004A5809E3A90E475C610E4858000E495879
:1031B000000E4A5803E3C16BC26B24D05DCB50F0C4
:1031C0005ECB8EF05FCB8FF060CB93F062CBB0F034
:1031D0002BEE61F0DF50C26FB051C16F4650451009
:1031E0000EE046C00DF045C00CF00B0E0F6E630EE6
:1031F0000E6EC1C010F0C2C011F0D9EC29F0010E62
:103200000001BF6F8B6B8C6B50A88EA1916B906B84
:10321000926BF3D0030E2BEE5AF0DF62EED04650E5
:1032200045100AE05150020A01E068D62BEE5BF02F
:10323000DF50751901E062D62BEE5BF0DF50751997
:1032400002E0010EC06F5BCB75F02BEE5CF0DF503F
:103250006F1902E0010EC06F5CCB6FF05DCB71F0B7
:1032600060C0BBF061C0BCF022D05ECB72F05FCB1F
:1032700073F061CBB0F02BEE60F0DF50636FB051B4
:10328000626F63CBB0F02BEE62F0DF50616FB05134
:10329000606F11D05ECB70F05FCB74F02BEE60F0FE
:1032A000DF500A0DF3CF2CF1F4CF2DF104D075517E
:1032B000020ADBE0EFD76151BC1902E16051BB1992
:1032C00002E0010EC06F65CBB0F02BEE64F0DF5072
:1032D000C26FB051C16F4650451001E11BD746C0C7
:1032E0000DF045C00CF00B0E0F6E660E0E6EC1C0D9
:1032F00010F0C2C011F0D9EC29F00CD70B0E286EDB
:10330000590E276E4DC029F04EC02AF047EC11F03F
:10331000000904E0526A456A466A120000017829F1
:103320004FE1895102E051504BE04650451001E019
:10333000E5D5896B516AB6EC25F00D6A0C6A0F6A07
:103340000B0E0E6E0001A20E46EC2AF0060E0001D6
:10335000A36FF10EA26FA451F00B0809A46FF10E38
:10336000A56FA66B49EC29F0D6CF0EF0D7CF0FF0A2
:103370000F500D6E0E500C6E0CC0BDF00DC0BEF0A7
:103380000400BBEC28F07CEC2AF0000903E0020EFC
:10339000000113D0D6CF0EF0D7CF0FF00F500D6E27
:1033A0000E500C6E0001BD510C5EBE510D5A390E0F
:1033B0000C5D010E0D59E4E3010E896F010EC06F23
:1033C0004650451003E0515001E098D51FEC29F01C
:1033D0004DC0C1F04EC0C2F0465045100EE046C090
:1033E0000DF045C00CF00B0E0F6E590E0E6EC1C0E5
:1033F00010F0C2C011F0D9EC29F051500001BF19F2
:1034000004E0010EC06FBFC051F0C051D8A4B6ECAB
:1034100025F04650451001E08FD58FD50001D36FC0
:10342000776701D012007F672FD09DB82DD0060E90
:10343000466E590E456E7BEC17F045C0D4F046C081
:10344000D5F00001D551D4111FE07CEC2AF0000921
:10345000D8A4B6EC25F0010E00017F6F836B686B7A
:10346000696BD4C032F1D5C033F1D6CF0EF0D7CFCF
:103470000FF00F500D6E0E500C6E0CC02EF10DC0E3
:103480002FF1010E0001766F76515CE07CEC2AF0A2
:10349000000923E0000171A31BD0020E0101446F5B
:1034A000456B010E466F476F010E0D6E440E0C6E9C
:1034B0000F6A040E0E6E31EC2AF00101486F010E06
:1034C0000D6E440E0C6E0F6A050E0E6EBAEC27F0F0
:1034D0000001766B00017F6B12000001D36713D0EF
:1034E000D6CF0EF0D7CF0FF00F500D6E0E500C6EE2
:1034F00001012E510C5E2F510D5A390E00010C5D49
:10350000010E0D591FE371A51BD0020E0101446F7E
:10351000456B010E466F476B010E0D6E440E0C6E2F
:103520000F6A040E0E6E31EC2AF00101486F010E95
:103530000D6E440E0C6E0F6A050E0E6EBAEC27F07F
:103540000001766B7F51D8B41200886B060ED86FDD
:10355000590ED76F32C1DAF033C1DBF0695168110F
:1035600069E1080EDA5D000EDB5923E20D6A0C6A90
:103570000F6A0B0E0E6EA20E46EC2AF062C0A2F08D
:1035800063C0A3F00001A451F00B0809A46FDAC0D6
:10359000A5F00D6AA60E0C6ED8C00FF0D7C00EF0C5
:1035A000DAC010F0DBC011F0D9EC29F049EC29F0B9
:1035B00091D70D6A0C6A0F6A0B0E0E6EA20E46ECC6
:1035C0002AF062C0A2F063C0A3F00001A451F00B86
:1035D0000809A46FDBC0C3F0C3C0C4F0C56BC451FD
:1035E0001009A56FDAC0A6F0060ED66F0D6AA70EF9
:1035F0000C6ED8C00FF0D7C00EF0D6C010F0116A14
:10360000D9EC29F00001D6516827000E692349EC56
:1036100029F0010E0001826FAE6FD6CF0EF0D7CF2A
:103620000FF00F500D6E0E500C6E0CC036F10DC029
:1036300037F1120082514CE0D35131E061519819B9
:1036400002E1605197192BE199510F0BC36F030EE3
:10365000C35D25E39AC0C3F0F00EC317C351300A0F
:1036600010E01DD0826B17D0D6CF0EF0D7CF0FF061
:103670000F500D6E0E500C6E0CC036F10DC037F1B0
:103680000AD09A510F0BC36FC46BC45104E1C351EC
:10369000E9E0010AE9E09BC080F09CC081F00001F4
:1036A0008251D8B41200D6CF0EF0D7CF0FF00F5002
:1036B0000D6E0E500C6E010136510C5E37510D5AD5
:1036C0000A0E00010C5D3D0E0D59D8A0120002D764
:1036D000835172E0090EC36F3D0EC46FC56BC66B9C
:1036E00081C0C7F0C86BC96BCA6BC751C303F3CFA6
:1036F000CBF0F4CFCCF0CD6BCE6BC403F350CC2722
:10370000F450CD23000ECE23C851C303F350CC2771
:10371000F450CD23000ECE23C751C503F350CD275F
:10372000F450CE23C851C403F350CD27F450CE2318
:10373000C951C303F350CD27F450CE23C651C7035C
:10374000F350CE27C851C503F350CE27C951C40347
:10375000F350CE27CA51C303F350CE27CBC00CF091
:10376000CCC00DF0CDC00EF0CEC00FF0E80E106E44
:10377000030E116E000E126A136A80EC28F00CC062
:10378000CFF00DC0D0F00EC0D1F00FC0D2F0D6CF28
:103790000EF0D7CF0FF00F500D6E0E500C6E0101D2
:1037A00034510C5E35510D5A00010C51CF5D0D5155
:1037B000D059D8B01200836B0D6A0C6A0F6A0B0ED9
:1037C0000E6EA20E46EC2AF062C0A2F063C0A3F017
:1037D0000001A451F00B0809A46FAE510F0B200992
:1037E000A56F6851DA5DD96F070ED96501D0D96F21
:1037F0000D6AA60E0C6ED7C0C3F0D8C0C4F06851D5
:10380000C3276951C423C3C00EF0C4C00FF0D9C090
:1038100010F0116AD9EC29F00001D9516827000E87
:103820006923AE2B49EC29F00001DA51685DDB51C8
:10383000695901E34FD6826B805112E080050EE199
:10384000010E826FD6CF0EF0D7CF0FF00F500D6E56
:103850000E500C6E0CC036F10DC037F10001800720
:10386000826712008151D8B41200010E836FD6CF47
:103870000EF0D7CF0FF00F500D6E0E500C6E0CC027
:1038800034F10DC035F112001D6E0001776701D0D3
:1038900012007B5114E0D6CF0EF0D7CF0FF00F50AF
:1038A0000D6E0E500C6E010130510C5E31510D5AEF
:1038B000850E0C5C1E0E0D5802E300017B6B1D5043
:1038C00001E1E7D10001886B9805300ED8B4971953
:1038D00017E199510F0B166E050E165C11E3010EE0
:1038E0007B6FD6CF0EF0D7CF0FF00F500D6E0E506E
:1038F0000C6E0CC030F10DC031F19AC07AF012009C
:10390000166A176897C018F098C019F01650181664
:10391000175019161950060A181001E055D199517F
:103920000F0B166E020E165C01E24ED19B390F0B87
:103930001E6E42D197C01FF09AC020F09B510F0B12
:10394000246E2450166E176AFE0E186E196899516F
:103950000F0B1A6E1B6A18501A2619501B221B5087
:10396000800A1C6E16501A5C1750800A1C5801E21F
:103970002BD1245080090101446F20C045F11FC0A4
:1039800046F1010E0D6E470E0C6E0F6A00019C0E83
:103990000E6E24C010F0116AD9EC29F02450030FE8
:1039A000216E0101010E0D6E440E0C6E21C00EF051
:1039B0000F6A31EC2AF0166E0101440E2124D96EF3
:1039C000DA6A010EDA2216C0DFFF212A0D6E440EDC
:1039D0000C6E21C00EF00F6ABAEC27F0F5D07E51C4
:1039E00001E0F2D099510F0B166E080E165C01E241
:1039F000EBD097C07DF09AC0ADF09B510F0B546E89
:103A00009C51536E000E535C010E545801E3DCD000
:103A1000400E535C000E545804E3060E656F5D0EB5
:103A200003D0060E656F5C0E646F65C00DF064C058
:103A30000CF00F6A9D0E0E6E116A050E106ED9EC19
:103A400029F04C6A050E4B6E010E0001796F0D6A6C
:103A50000C6A0F6A0B0E0E6EA20E46EC2AF0000ED8
:103A60000001AD11A26F060EA36FA451F00B08095F
:103A7000A46F7DC0A5F0300EA66F6EC0A7F084C005
:103A8000A8F06EC07CF0010E7E6FF29E6CC027F035
:103A90006DC028F0F28E050E5324166E000E5420D1
:103AA000176E0A0E186E050E196E2750185E2850F4
:103AB000195A1650185C1750195803E2F9EC29F0FE
:103AC000E4D749EC29F0D6CF0EF0D7CF0FF00F5046
:103AD0000D6E0E500C6E0CC066F00DC067F074D009
:103AE0007E5172E07D5197636FD0AD5120EE9AF018
:103AF000DF626AD079C016F00F0E16169B510F0BBD
:103B0000161862E14B50535C256E4C505458266E8B
:103B1000070E255C000E265803E3266A060E256E66
:103B2000FE0E166E176899510F0B186E196A165013
:103B30001826175019222550185C2650195844E3AE
:103B40004B5064250C6E4C5065210D6E0F6A9C0E17
:103B50000E6E25C010F026C011F0D9EC29F02550CA
:103B60004B2626504C220001792B7C51ACE053505F
:103B70004B5C54504C58A7E27C077C67A4D70D6A75
:103B80000C6A0F6A0B0E0E6EA20E46EC2AF0000EA7
:103B90000001AD11A26F060EA36FA451F00B08092E
:103BA000A46F7DC0A5F0300EA66F6EC0A7F084C0D4
:103BB000A8F06EC07CF085D71E5001E1BBD6010A8B
:103BC00001E10DD7030A8CE000017E51D8B4120048
:103BD00053504B5C54504C58D8A01200400E535CCC
:103BE000000E545811E3800EE8CF59F626EE5AF035
:103BF000ADC0DFFF26EE5BF07DC0DFFF26EE5CF0A0
:103C000053C0DFFF040E0FD053C016F0800E161203
:103C100016C059F626EE5AF0ADC0DFFF26EE5BF077
:103C20007DC0DFFF030E5324226E000E5420236E4E
:103C3000060E0D6E590E0C6E22C00EF023C00FF052
:103C400031EC2AF0166E590E2224D96E060E23206E
:103C5000DA6E16C0DFFF224A232A060E0D6E590EB9
:103C60000C6E22C00EF023C00FF0BAEC27F0000952
:103C700003E000017E6B1200D6CF0EF0D7CF0FF01D
:103C80000F500D6E0E500C6E0CC066F00DC067F03C
:103C9000120000017E51D8B41200D6CF0EF0D7CF5B
:103CA0000FF00F500D6E0E500C6E000166510C5E41
:103CB00067510D5A0A0E0C5C3D0E0D58D8A012002B
:103CC000D8D70001D36F776701D012007F6722D069
:103CD0009DB820D0060E466E590E456E7BEC17F04F
:103CE00045C0D4F046C0D5F00001D551D41112E042
:103CF00050BA0AD0060E0D6E590E0C6ED4C00EF0DE
:103D0000D5C00FF0BAEC27F0010E00017F6F836B76
:103D1000686B696B7F51D8B41200886B060ED86F40
:103D20005C0ED76F59C6E8FF3F0BDC6FDC6706D02F
:103D30005CC6DCF0060ED86F5D0ED76F5AC6DAF09F
:103D40005BC6DBF06951681166E1070EDC5D27E2B6
:103D50000D6A0C6A0F6A0B0E0E6EA20E46EC2AF06C
:103D6000000E0001DB11A26F060EA36FA451F00B31
:103D70000809A46FDAC0A5F0DCC0A6F00D6AA70E92
:103D80000C6ED8C00FF0D7C00EF0DCC010F0116A76
:103D9000D9EC29F049EC29F000017F6B12000D6A83
:103DA0000C6A0F6A0B0E0E6EA20E46EC2AF0000E85
:103DB0000001DB11A26F060EA36FA451F00B0809DE
:103DC000A46FDAC0A5F0100EA66FDCC0A7F00D6AD4
:103DD000A80E0C6ED8C00FF0D7C00EF0116A050EF9
:103DE000106ED9EC29F0050E00016827000E69233A
:103DF00049EC29F0010E0001826FAE6FD6CF0EF0B4
:103E0000D7CF0FF00F500D6E0E500C6E0CC036F168
:103E10000DC037F1120082515CE0D35141E0C36B19
:103E2000C46997C0C5F098C0C6F0C351C517C45146
:103E3000C617C651060AC51133E199510F0BC36F5E
:103E4000040EC35D2DE3DA5197632AD0DB5120EED7
:103E50009AF0DF6225D09BC0C3F0F00EC317C351A8
:103E6000300A10E01DD0826B17D0D6CF0EF0D7CF1E
:103E70000FF00F500D6E0E500C6E0CC036F10DC0D1
:103E800037F10AD09B510F0BC36FC46BC45104E1CF
:103E9000C351E9E0010AE9E09CC080F09DC081F0D7
:103EA00000018251D8B41200D6CF0EF0D7CF0FF058
:103EB0000F500D6E0E500C6E010136510C5E3751D5
:103EC0000D5A0A0E00010C5D3D0E0D59D8A01200CE
:103ED00063D7835172E0090EC36F3D0EC46FC56B8B
:103EE000C66B81C0C7F0C86BC96BCA6BC751C3032F
:103EF000F3CFCBF0F4CFCCF0CD6BCE6BC403F3504B
:103F0000CC27F450CD23000ECE23C851C303F35069
:103F1000CC27F450CD23000ECE23C751C503F35058
:103F2000CD27F450CE23C851C403F350CD27F4500D
:103F3000CE23C951C303F350CD27F450CE23C6512D
:103F4000C703F350CE27C851C503F350CE27C9513C
:103F5000C403F350CE27CA51C303F350CE27CBC0BE
:103F60000CF0CCC00DF0CDC00EF0CEC00FF0E80EBE
:103F7000106E030E116E000E126A136A80EC28F0A8
:103F80000CC0CFF00DC0D0F00EC0D1F00FC0D2F0F9
:103F9000D6CF0EF0D7CF0FF00F500D6E0E500C6E27
:103FA000010134510C5E35510D5A00010C51CF5DA9
:103FB0000D51D059D8B01200836B0D6A0C6A0F6A8C
:103FC0000B0E0E6EA20E46EC2AF0000E0001DB1165
:103FD000A26F060EA36FA451F00B0809A46FDAC0FC
:103FE000A5F0AE510F0B2009A66F6851DC5DD96FAB
:103FF000060ED96501D0D96F0D6AA70E0C6ED7C019
:10400000C3F0D8C0C4F06851C3276951C423C3C0EA
:104010000EF0C4C00FF0D9C010F0116AD9EC29F02D
:104020000001D9516827000E6923AE2B49EC29F015
:104030000001DC51C36FC46BC351685DC451695941
:1040400001E3AAD6826B805112E080050EE1010ED9
:10405000826FD6CF0EF0D7CF0FF00F500D6E0E50EF
:104060000C6E0CC036F10DC037F10001800782677D
:1040700012008151D8B41200010E836FD6CF0EF01A
:10408000D7CF0FF00F500D6E0E500C6E0CC034F1E8
:104090000DC035F11200010E01014E6F00018A6B57
:1040A000886B526A4D6A4E6A946B0101406B416B9A
:1040B0003E6B3F6B00016C6B6D6B7F6B7E6B516A6F
:1040C000896B1FEC29F0D08E9280010E0F015D6F7D
:1040D0005C6B100E5B6FF19E8A908A929390939224
:1040E000948289929292899492948B9694968A98CB
:1040F0008A9A8A8C8A8E939A939C939E9386786AE6
:104100000E017E699488830EC216F80EC116C19600
:10411000C150CF0B1009C16EC08EC70EC016C05063
:10412000F80B0509C06EC280949C948E7D6A670E60
:10413000AF6EAC8AAC84AC98A786AB889F8A9E9AF7
:104140009D8A9E989D98AB8ED59ED59CD59A070E3C
:10415000D512D596D76AD66AF194F294D58ECD90C1
:10416000CD823F0ECD16CD96300ECD129F809E9003
:104170009D80FC0ECA16870ECA16CC6A220ECB6E24
:104180009F929E92F28CF28EC282D38ED180D18881
:10419000D18E040042EC28F0000E466A456A7BECA2
:1041A00017F00001775123E0F0EC28F001012B6FAC
:1041B00017D001012B5181EC07F016D101012B51D1
:1041C000F9EC21F001012B510EEC1AF00DD1010197
:1041D0002B5144EC1CF001012B5161EC1EF004D179
:1041E00000017551010AE5E0030AE8E0F0D79DB847
:1041F000FBD0060E466E590E456E7BEC17F045C09F
:1042000029F146C02AF101012A51291101E1ECD01E
:1042100050BA0AD0060E0D6E590E0C6E29C10EF062
:104220002AC10FF0BAEC27F00001915101E1CFD083
:104230000101276B286BC5D000018F5101E18AD0A5
:1042400001012851271101E185D0D6CF0EF0D7CF3B
:104250000FF00F500D6E0E500C6E0CC022F10DC001
:1042600023F1090E0001E86F3D0EE96FEA6BEB6B7D
:104270008FC0ECF0ED6BEE6BEF6BEC51E803F3CF1E
:10428000F0F0F4CFF1F0F26BF36BE903F350F127A8
:10429000F450F223000EF323ED51E803F350F1271D
:1042A000F450F223000EF323EC51EA03F350F2270B
:1042B000F450F323ED51E903F350F227F450F323C4
:1042C000EE51E803F350F227F450F323EB51EC03E3
:1042D000F350F327ED51EA03F350F327EE51E903CE
:1042E000F350F327EF51E803F350F327F0C00CF03D
:1042F000F1C00DF0F2C00EF0F3C00FF0E80E106E3A
:10430000030E116E000E126A136A80EC28F00CC0C6
:10431000F4F00DC0F5F00EC0F6F00FC0F7F0F4C0E9
:1043200024F1F5C025F101D00400D6CF0EF0D7CF8F
:104330000FF00F500D6E0E500C6E010122510C5EED
:1043400023510D5A245100010C5D0101255100013A
:104350000D59EAE3590E01012725D96E060E2821D1
:10436000DA6EDF50446F010E236E440E226E256A12
:10437000010E246EABEC14F0010E010127250001A3
:10438000E86F000E010128210001E96F01012951A8
:104390000001E85D01012A510001E959010ED8A090
:1043A000000E0101266F2651F3EC0CF000091CE110
:1043B0000101266704D0441D3C193D1115E1274B2E
:1043C000282B2951275D2A5128590EE235D7060E90
:1043D000236E590E226E29C124F02AC125F0ABECC0
:1043E00014F0010EF3EC0CF0BBEC28F0F9EC29F022
:1043F000D3D61D6E0001776701D012001D5001E178
:1044000086D1886B6151981902E16051971901E0DA
:104410002FD199510F0B01E12BD19A390F0B1E6E41
:104420001FD19A510F0B226E2250166E176A186810
:10443000196899510F0B1A6E1B6A18501A261950D9
:104440001B221B50800A1C6E16501A5C1750800AE3
:104450001C5801E20DD1010E0101446F456B22C0D1
:1044600046F1010E0D6E470E0C6E0F6A00019B0E99
:104470000E6E22C010F0116AD9EC29F02250030F01
:10448000216E0101010E0D6E440E0C6E21C00EF066
:104490000F6A31EC2AF0166E0101440E2124D96E08
:1044A000DA6A010EDA2216C0DFFF212A0D6E440EF1
:1044B0000C6E21C00EF00F6ABAEC27F0D9D07E51F5
:1044C00001E0D6D099510F0B166E080E165C01E272
:1044D000CFD09A510F0B546E9B51536EFD0E535C0F
:1044E000040E545801E3C4D0060E656F5C0E646F71
:1044F00065C00DF064C00CF00F6A9C0E0E6E116A60
:10450000060E106ED9EC29F04C6A060E4B6E010EA9
:104510000001796F0D6A0C6A0F6A0B0E0E6EA20E07
:1045200046EC2AF062C0A2F063C0A3F00001A451DF
:10453000F00B0809A46F300EA56F72C0A6F073C00F
:10454000A7F072C07CF0010E7E6FF29E6CC025F069
:104550006DC026F0F28E040E5324166E000E542009
:10456000176E0A0E186E050E196E2550185E26502D
:10457000195A1650185C1750195803E2F9EC29F033
:10458000E4D749EC29F0D6CF0EF0D7CF0FF00F507B
:104590000D6E0E500C6E0CC066F00DC067F068D04A
:1045A0007E5166E079C016F00F0E16169A510F0B69
:1045B00016185EE14B50535C236E4C505458246ED9
:1045C000080E235C000E245803E3246A070E236EB2
:1045D0001668176899510F0B186E196A165018262D
:1045E000175019222350185C2450195841E34B509E
:1045F00064250C6E4C5065210D6E0F6A9B0E0E6E7D
:1046000023C010F024C011F0D9EC29F023504B2620
:1046100024504C220001792B7C51B5E053504B5C67
:1046200054504C58B0E27C077C67ADD70D6A0C6AD9
:104630000F6A0B0E0E6EA20E46EC2AF062C0A2F0BC
:1046400063C0A3F00001A451F00B0809A46F300E61
:10465000A56F72C0A6F073C0A7F072C07CF091D7AE
:104660001E5001E1DED6010A01E129D7030A98E0D4
:1046700000017E51D8B4120053504B5C54504C583A
:10468000D8A01200030E53241F6E000E5420206E7B
:10469000010EE8CF59F654C016F016C017F0186A8C
:1046A00017C05AF626EE5BF053C0DFFF060E0D6E04
:1046B000590E0C6E1FC00EF020C00FF031EC2AF026
:1046C000166E590E1F24D96E060E2020DA6E16C003
:1046D000DFFF1F4A202A060E0D6E590E0C6E1FC0FA
:1046E0000EF020C00FF0BAEC27F0000903E0000143
:1046F0007E6B1200D6CF0EF0D7CF0FF00F500D6E9D
:104700000E500C6E0CC066F00DC067F012007E51AA
:10471000D8B41200D6CF0EF0D7CF0FF00F500D6ED9
:104720000E500C6E000166510C5E67510D5A0A0E58
:104730000C5C3D0E0D58D8A01200D9D79DBA9EAA88
:1047400001D1ABCF01F0060E011603E0AB98AB88A8
:104750003AD1AECF08F00001966BFE0ECF6E0C0E74
:10476000CE6E9E90CD80945134E1E5D04D6A4E6A74
:10477000590E4D24D96E0B0E4E20DA6E08C0DFFFA5
:104780004D4A4E2A956B010E526E130E4D5C010E72
:104790004E581AE2590E4D24D96E0B0E4E20DA6E89
:1047A00008C0DFFF4D4A4E2A0FD008504F0A01E0E3
:1047B0000AD1952B08D108504B0A04E1CD909E9068
:1047C000020EA8D0956BFFD09551EFE0010AF3E0FF
:1047D000FAD05250CBE0010AD8E0F5D04D6A4E6ACB
:1047E000590E4D24D96E0B0E4E20DA6E08C0DFFF35
:1047F0004D4A4E2A08C095F0010E8CD0130E4D5C28
:10480000010E4E580AE2590E4D24D96E0B0E4E2061
:10481000DA6E08C0DFFF4D4A4E2A040E4D5C000ED2
:104820004E5801E285D059CBE8FF00094BE059D042
:10483000080E4D5C000E4E5810E32BEE60F0DF507A
:104840005FCB01F001C002F0036A02C003F0026A0C
:104850000226000E0322090E2CD0066A076A3DD0FC
:104860000A0E4D5C000E4E58F8E32BEE62F0DF505E
:1048700061CB01F001C002F0036A02C003F0026ADA
:104880000226000E03220B0E14D00D0E4D5C000EFE
:104890004E58E3E32BEE65F0DF5064CB01F001C02E
:1048A00002F0036A02C003F0026A0226000E03222D
:1048B0000E0E0224066E000E0320076E0ED0030EAD
:1048C000526E0BD02BEE5AF0DF50B2E0010AC8E076
:1048D000030AC6E0010AD9E0F2D75250030A73E096
:1048E00013D059CBE8FF3F0B066E076A075006103E
:1048F00007E15CCB01F0050E0124066E076A02D0C9
:10490000040E0626000E0722140E065C010E075840
:1049100003E3030E526E57D00750061009E006500D
:104920004D5C07504E5804E395510818F2E146D704
:104930000850952748D0525001E150D7010A01E1B3
:104940005DD741D09DB89EA81ED000016D516C115D
:1049500002E19D9838D04F0E01013E25D96E010E1F
:104960003F21DA6EDF50AD6E3E4B3F2B00016C07EE
:10497000D8A06D070A0E01013E5D050E3F5923E3E5
:104980003E6B3F6B20D09DB09EA01DD0650E4D5C50
:10499000000E4E580CE3640E0001965D0AE2962B61
:1049A000FE0ECF6E0C0ECE6E9E90CD800CD0000110
:1049B000966BCD909E9002D0526A05D05250010A5B
:1049C000FBE0020AF9E005C0DAFF04C0D9FF1100DC
:1049D00000018C6B4750020A481049104A1001E050
:1049E000010CF29ECD909E90CF6ACE6A526A886B7F
:1049F000040082A282B205D082A282B202D082A238
:104A0000CD80CDB00DD09EAA02D0F28E000CF2A4C3
:104A1000EFD7F2940001882B100E8865E9D71ED0DD
:104A20001D6A02D09EB01AD082B282A2FBD782B297
:104A300082A2F8D782B203D0F5D79EB00FD082A25F
:104A400082B2FBD782A282B2F8D782B2F6D71D2AF1
:104A5000030E1D64E9D705D09EA003D0CD909E9093
:104A6000D4D782B282A2F8D782B282A2F5D782A22C
:104A7000F3D7CD909E90400E0C6E540E0D6E890EA5
:104A80000E6E0F6ACE50196ECF501A6E1B6A1C6ADA
:104A9000D8901934106E1A34116E1B34126E1C34F7
:104AA000136E80EC28F00CC01EF00DC01FF00EC07D
:104AB00020F00FC021F0A00E196E0F0E1A6E1B6AA7
:104AC0001C6A19501E5C1A501F581B5020581C504D
:104AD000215805E21E6A1F6A206A216A09D0A90EC0
:104AE0001E5C610E1F58000E2058000E2158F2E285
:104AF000ACA2FED71EC019F01FC01AF020C01BF0D8
:104B000021C01CF00A0E05D0D8901C321B321A327C
:104B10001932E82EF9D71950AD6EACA2FED71EC0DF
:104B200019F01FC01AF020C01BF021C01CF0D89053
:104B30001C321B321A3219321950AD6EACA2FED79C
:104B400021501E101F10201001E15FD71EC047F03A
:104B50001FC048F020C049F021C04AF000018B512D
:104B600002E0020E8C6F916BF28E010C050E1C6E32
:104B7000060E1E6E1D6A070E206E1F6A010E226E43
:104B8000300E216E070E246E236800017B6B45D02A
:104B9000776B49D0050E01D0010E1C6E010E776FA8
:104BA00042D08951F7E0010AF5E0F2D77851F0E000
:104BB000010AF0E0080AF0E0F60AF3E0EBD7010E94
:104BC000776F6F51090A23E1010E1C6E20D0020E8F
:104BD0001E6E000E1D6E070E206E000E1F6E030E61
:104BE000226E000E216E070E246E000E236E1BD067
:104BF00060C01DF061C01EF0070E206E1F6860C00F
:104C000021F061C022F0070E246E23680CD075518C
:104C1000010ADDE0030AECE006D05150C7E0010ACA
:104C2000B7E0030ACCE077511FE01C0403E1040E57
:104C30000D6E01D00D6A280E0E6E060E0F6E010E5F
:104C4000106E1DC011F01EC012F01FC013F020C066
:104C500014F021C015F022C016F023C017F024C0B4
:104C600018F0400E36EF26F073EF2AF01B6E800E20
:104C70006AEC2AF0830E726E0E017D6B606A0F0182
:104C8000306B13C019F014C01AF0D8901A321932D0
:104C9000D8901A321932D8901A32193219500E019E
:104CA000F86F1338E846E00BF96FFA6BFB6B11C035
:104CB00019F012C01AF0D8901A321932D8901A325C
:104CC0001932D8901A3219321950E06F1138E8466B
:104CD000E00BE16FFC0E791717C019F018C01AF03D
:104CE000D8901A321932D8901A321932D8901A3212
:104CF00019321950FC6F1738E846E00BFD6FFE6B58
:104D0000FF6B15C019F016C01AF0D8901A3219327C
:104D1000D8901A321932D8901A3219321950E46FD9
:104D20001538E846E00BE56F7951F30B0409796F0C
:104D3000716B726B736B030E466F476B1B500D10DC
:104D4000436F0E500F10C009446F10508009456F1B
:104D5000708A000E6AEF2AF0156A1350800A800FDD
:104D600008E1000E125C05E1000E115C02E1000E8C
:104D7000105C0AE2131E121E111E106C000E11228E
:104D800012221322010E156E0F50800A800F08E1C7
:104D9000000E0E5C05E1000E0D5C02E1000E0C5CE5
:104DA0000AE20F1E0E1E0D1E0C6C000E0D220E22AE
:104DB0000F22010E151A166A176A186A196A13501B
:104DC00010101110121029E0010E146E06D0D890A8
:104DD0001036113612361336142A13AEF8D7D8907F
:104DE000163617361836193610500C5C11500D58FF
:104DF00012500E5813500F5809E310500C5E11500A
:104E00000D5A12500E5A13500F5A1680D890133262
:104E1000123211321032142EE2D7155008E0191E4A
:104E2000181E171E166C000E17221822192216C003
:104E30000CF017C00DF018C00EF019C00FF01200E2
:104E40004A504710481049100BE1CA94FC0ECA168C
:104E5000870ECA16CC6A220ECB6E00018D6B120033
:104E600047C01DF048C01EF049C01FF04AC020F0E6
:104E70001D50020A1E101F10201006E1800E1D6E2C
:104E8000250E1E6E1F6A206ACA94CA50FC0B0109C7
:104E9000CA6E870ECA16400E0C6E420E0D6E0F0EB5
:104EA0000E6E000E0F6A1DC010F01EC011F01FC064
:104EB00012F020C013F080EC28F00CC019F00DC0E7
:104EC0001AF00EC01BF00FC01CF01950CB6E000181
:104ED0008D6BD890CB300F0F216ECB50215CD8A0BA
:104EE00021C08DF01200176E17503F0B186E196A13
:104EF00031D0090E18240C6E000E19200D6E0F6AA9
:104F00000A0E0E6E71EC29F00CC013F00DC014F0F7
:104F1000120018C013F019C014F012000A0E180283
:104F2000F3CF15F0F4CF16F01902F350162615C082
:104F300013F016C014F01200640E1802F3CF15F02F
:104F4000F4CF16F01902F350162615C013F016C050
:104F500014F012001744E846030B156E166A16503B
:104F6000D8E11550C6E0010AD4E0030AD7E0010AEF
:104F7000E3E0CFD70F500E1001E1010C0001886B68
:104F8000F29E6CC014F06DC015F0F28E14C010F0DB
:104F900015C011F00E5010260F5011220B0E105C90
:104FA000050E115801E3000C126A136A1AD0125050
:104FB0000C24D96E13500D20DA6E4F0E01014025DE
:104FC000E16E010E4121E26EDFCFE7FF404B412B46
:104FD0000A0E405D050E415902E3406B416B124AD7
:104FE000132A0E50125C0F501358E1E3F29E0E503C
:104FF00000016C270F506D239D88F28E010C0F016C
:1050000020B7000C11D0ACC02DFFABC02CFFAAC044
:105010002BFFA9C02AFFA8C029FFA7C028FFA6C050
:1050200027FFA5C026FF14D00001A4510F0B10E0EC
:10503000010AF7E0030AF3E0010AEFE0070AEBE0F8
:10504000010AE7E0030AE3E0010ADFE00F0ADBE020
:10505000A4C025FFA2C00CF0A3C00DF0D8900D3263
:105060000C32D8900D320C32D8900D320C320C50DC
:105070000F01216F0001A239E846E00B0F01226FFA
:105080002087010C7FB2FED7000E0D6A0C6A59EC26
:105090002AF0266E0D6A010E0C6E59EC2AF0256E70
:1050A00000017869896B261C2518D8B426C078F0D1
:1050B0000D6A020E0C6E59EC2AF0266E0D6A030E74
:1050C0000C6E59EC2AF0256E00016E6B261C25181B
:1050D000D8B426C06EF00D6A040E0C6E59EC2AF09E
:1050E000266E0D6A050E0C6E59EC2AF0256E000135
:1050F000846B261C2518D8B426C084F0B6EF25F0A2
:10510000146A156A166A176A1350101011101210DB
:1051100029E0010E186E06D0D890103611361236DE
:105120001336182A13AEF8D7D8901436153616361B
:10513000173610500C5C11500D5812500E58135069
:105140000F5809E310500C5E11500D5A12500E5AB0
:1051500013500F5A1480D890133212321132103279
:10516000182EE2D714C00CF015C00DF016C00EF0CA
:1051700017C00FF0120001014E511EE0D6CF0EF005
:10518000D7CF0FF00F500D6E0E500C6E0CC010F0FC
:105190000DC011F0840E105C1E0E115803E28A8CB3
:1051A0008A9E0AD0090E105C3D0E115803E28A9CBB
:1051B0008A8E02D001014E6B01014E6712005250DF
:1051C00003E100018A5102E08A9C01D08A8C00012F
:1051D0006D516C1103E08A6B8A9E12008A8E120058
:1051E00071AE000C6F50070B9009726E60AE000C30
:1051F00066CF9AF067CF9BF068CF9CF069CF9DF0A7
:105200006ACF9EF06BCF9FF06CCFA0F06DCFA1F076
:1052100065CF99F06238E842070B61CF0CF00D6A58
:10522000D8900C360D36D8900C360D36D8900C36FA
:105230000D360C10976F0D50986F609E010C5150F9
:10524000020A04E17505D8B416EC2AF0476A486AE8
:10525000496A4A6A506A00018E6B8F6B936B8B6B45
:105260008C6B01013C693D690001916B906B926B05
:10527000766B756B010E6F6F716B706B746B0101E8
:105280002C6B2D6B0001626B636B606B616B4F6A03
:105290001200D6CF0EF0D7CF0FF00F500D6E0E507C
:1052A0000C6E0CC012F00DC013F015D00400BBEC56
:1052B00028F0D6CF0EF0D7CF0FF00F500D6E0E5056
:1052C0000C6E12500C5E13500D5A430E0C5C0F0EF8
:1052D0000D58D8B01200FFEC27F00009D8A4120036
:1052E000E5D7116A126A0F500E101BE0010E106E06
:1052F00004D0D8900E360F36102A0FAEFAD7D890B9
:10530000113612360E500C5C0F500D5805E30E503E
:105310000C5E0F500D5A1180D8900F320E32102EA5
:10532000EED711C00CF012C00DF012000DC00FF03E
:105330000FC010F0116A1050030B756E0CC074FF93
:105340000EC073FF7F9E7F9C7F84000EF2BE010E15
:10535000126EF29E550E7E6EAA0E7E6E7F827FB218
:10536000FED712B002D0F29E01D0F28E7F941200CE
:1053700001EE4FF01BEE1DF0EE6AE550E150FCE14E
:10538000E250FAE101EE2CF0220EEE6AE806FDE1B1
:1053900000EE60F0500EEE6AE806FDE100EE47F028
:1053A0000E0EEE6AE806FDE1000EF86E00014BEF0E
:1053B00020F00FC015F00EC014F00DC013F00CC09B
:1053C00012F00ED014C0D9FF15C0DAFF12C0E1FFF1
:1053D00013C0E2FFDFCFE7FF144A152A124A132A4F
:1053E0001006D8A011061028D8B41128D8B412007D
:1053F000E9D70400F2A403D0F2940001882B020E36
:1054000000018865020C010E0C6E775106E0776A88
:1054100071AE02D00C6A01D076820C50D8B4120062
:10542000886BD1900300D18076921200020E4F64F7
:1054300016D00D6A0C6A0F6A0B0E0E6E0001A20EDA
:1054400046EC2AF06AC0A2F06BC0A3F00001A451A0
:10545000F00B0109A46FA80EA56F49EC29F04F6A63
:105460001200106A116A126A0AD011500C24D96E07
:1054700012500D20DA6EDF501026114A122A0E50FB
:10548000115C0F501258F1E310501200116E11C050
:1054900010F006D01050D96EDA6A0CC0DFFF102A67
:1054A0000E06D8A00F060E28D8B40F28D8B41200C4
:1054B000F1D70DC00EF00EC00FF0106A0F50030BA5
:1054C000756E0CC074FF7F9C7F9E7F8000F000F0A3
:1054D000735012000C6E0CC06FFF6E50E00B0C1876
:1054E000D8B41200FAD7800E6AEC2AF0200E6E6E45
:1054F000200C7FA21200FDD771B0010C000CFFFF41
:10550000FFFFFFFFFFFFFFFFFFFFFFFFFFFFFFFFAB
:10551000FFFFFFFFFFFFFFFFFFFFFFFFFFFFFFFF9B
:10552000FFFFFFFFFFFFFFFFFFFFFFFFFFFFFFFF8B
:10553000FFFFFFFFFFFFFFFFFFFFFFFFFFFFFFFF7B
:107FF000FFFFFFFFFFFFFFFFFFFF0A0002006C040F
:020000040020DA
:08000000FFFFFFFFFFFFFFFF00
:020000040030CA
:0E0000001413461EFF8981FF0FC00F800F40B2
:00000001FF
