:1008000027EF04F0FFFFFFFFD9CF04F0DACF05F0A8
:10081000E6EF24F0FFFFFFFFD8CF09F0E8CF0AF0A2
:10082000E0CF0BF0F2A402D0F2940AD09EA202D044
:100830009E9206D0765004E0775002E0766A776A9E
:100840000BC0E0FF0AC0E8FF09C0D8FF100098EF16
:100850002DF0FFFFFFFFFFFFFFFFFFFFFFFFFFFF89
:10086000FFFFFFFFFFFFFFFFFFFFFFFFFFFFFFFF98
:10087000FFFFFFFFFFFFFFFFFFFFFFFFFFFFFFFF88
:10088000FFFFFFFFFFFFFFFFFFFFFFFFFFFFFFFF78
:10089000FFFFFFFFFFFFFFFFFFFFFFFFFFFFFFFF68
:100F000000283841542B44454641554C540D0A00A5
:100F100041542B42415544380D0A00446565702008
:100F20004F4244003132333441542B454E41424C00
:100F300045494E44300D0A0041542B524F4C453028
:100F40000D0A000000018C6F4F502DE054EC2EF084
:100F5000000929E00001C6A324D0820EE8CF61F683
:100F6000F10EE8CF62F6E8CF63F67F0EE8CF64F6C5
:100F7000030EE8CF65F6060E0D6E610E0C6E0F6A5D
:100F8000050E0E6E09EC2EF00001786F78C066F643
:100F9000060E0D6E610E0C6E0F6A060E0E6E62EC82
:100FA0002AF04F6A12004F5003E0090E4F647ED0C2
:100FB0009DB87CD0060E3F6E610E3E6E55EC18F06B
:100FC0003EC090F03FC091F00001915190116EE051
:100FD000C6B10AD0060E0D6E610E0C6E90C00EF0FA
:100FE00091C00FF062EC2AF054EC2EF0000904E0FE
:100FF000C7EC27F0B9EC2DF00001C6A726D0B9EC5C
:101000002DF0820EE8CF61F6F10EE8CF62F6E8CF60
:1010100063F67F0EE8CF64F6010EE8CF65F6060EA4
:101020000D6E610E0C6E0F6A050E0E6E09EC2EF041
:101030000001786F78C066F6060E0D6E610E0C6EBC
:101040000F6A060E0E6E62EF2AF0C6A51BD0040EC4
:101050004F6418D0820EE8CF61F6F10EE8CF62F649
:10106000E8CF63F67F0EE8CF64F6000EE8CF65F6B2
:10107000060E0D6E610E0C6E0F6A050E0E6E09ECFB
:101080002EF0D6D74F5005E026EE62F0DF50D8198B
:101090000AE0B9EC2DF0010E4F6E62C6D8F00001E7
:1010A000BD6BBE6B03D0050E4F6EF9D74F5001E1FB
:1010B00013D30001DA6B10D30D6A0001F20E0C6E2F
:1010C0000F6A0E6A116A0B0E106EF3EC2DF0020E11
:1010D0000001F36FF26BF451F00B0709F46FD8C005
:1010E000F5F0C00EF66FF76B100EF86FF96B030E8C
:1010F000FA6F010EFB6F02EC2DF00001D96B0101BC
:101100003B6B196BD6CF0EF0D7CF0FF00F500D6E93
:101110000E500C6E0CC0BBF00DC0BCF0020EB4D271
:10112000D6CF0EF0D7CF0FF00F500D6E0E500C6EC5
:101130000001BB510C5EBC510D5A1B0E0C5D060E1E
:101140000D5901E2EBD24F6AE9D20D6A0001F20EAD
:101150000C6E0F6A0E6A116A0B0E106EF3EC2DF016
:10116000BFC0F2F0C0C0F3F00001F451F00B06096B
:10117000F46FA00EF56FC5C0F6F08A0EF76FF86930
:10118000C9C0F9F0FA6902EC2DF0D6CF0EF0D7CF36
:101190000FF00F500D6E0E500C6E0CC0BBF00DC05A
:1011A000BCF0040E71D2060E00018E6F640E8D6FBE
:1011B00061C6E8FF3F0B9A6F9A6706D064C69AF043
:1011C000060E8E6F650E8D6F0D6AF20E0C6E0F6A35
:1011D0000E6A116A0B0E106EF3EC2DF0BFC0F2F028
:1011E000C0C0F3F00001BD519A5D986FBE51D8A008
:1011F000BE29996B995FBE51BD1108E10101186BC1
:101200000001F66B9AC0F7F0030E01D0010E9B6F40
:10121000080E786F796B9B51785F000E795B98515F
:10122000785D9951795908E29B510808986F000E32
:10123000D8A0E82A0008996F946B14D094518D259A
:10124000786F000E8E21796FBD517825D96EBE5111
:101250007921DA6E9451F50F9B25E16EE26ADFCFBA
:10126000E7FF942B9451786F796B9851785D995181
:101270007959E4E39B519825786FF419F00B7819AC
:10128000F46F9851BD279951BE239A51786F796BAD
:101290007851BD5D7951BE5904E3010E8F6F080E80
:1012A00017D00101182B0001D7510AE0D7510101D5
:1012B000185D06E300018F6B0101186B070E08D063
:1012C000020E00018F6F01010F510E1102E0060E98
:1012D0004F6ED9C078F00F0E000178178F39F00BE0
:1012E0007811F56FD9290F0BD96F02EC2DF0D6CFFD
:1012F0000EF0D7CF0FF00F500D6E0E500C6E0CC0CD
:10130000BBF00DC0BCF00AD2090E0001786F3D0E93
:10131000796F7A6B7B6B01010E5100017C6F0101CB
:101320000F5100017D6F7E6B7F6B7C517803F3CF93
:1013300080F0F4CF81F0826B836B7903F3508127C7
:10134000F4508223000E83237D517803F3508127CC
:10135000F4508223000E83237C517A03F3508227BA
:10136000F45083237D517903F3508227F450832373
:101370007E517803F3508227F45083237B517C0302
:10138000F35083277D517A03F35083277E517903ED
:10139000F35083277F517803F350832780C00CF0EC
:1013A00081C00DF082C00EF083C00FF0E80E106E09
:1013B000030E116E000E126A136AE2EC2BF00CC0E1
:1013C00084F00DC085F00EC086F00FC087F0D6CF38
:1013D0000EF0D7CF0FF00F500D6E0E500C6E0001B7
:1013E000BB510C5C886FBC510D58896F8A6B8B6B3D
:1013F0008451885D8551895986518A5987518B5905
:1014000001E28CD1050E40D153504A5C54504B58E8
:1014100001E283D0400E535C000E545811E3800E5D
:10142000E8CF61F6000EE8CF62F626EE63F0000129
:10143000D8C0DFFF26EE64F053C0DFFF040E0FD0EC
:1014400053C078F0800E0001781378C061F6000E6A
:10145000E8CF62F626EE63F0D8C0DFFF030E532418
:10146000956F000E5420966F060E0D6E610E0C6E79
:1014700095C00EF096C00FF009EC2EF00001786FC9
:10148000610E9525D96E060E9621DA6E78C0DFFFC3
:10149000954B962B060E0D6E610E0C6E95C00EF0E0
:1014A00096C00FF062EC2AF0000901E137D101018A
:1014B00019510EE0D6CF0EF0D7CF0FF00F500D6EB2
:1014C0000E500C6E0CC0BBF00DC0BCF00A0EDCD090
:1014D000820EE8CF61F6F10EE8CF62F6E8CF63F650
:1014E0007F0EE8CF64F6020EE8CF65F6060E0D6EAD
:1014F000610E0C6E0F6A050E0E6E09EC2EF00001E7
:10150000786F78C066F6060E0D6E610E0C6E0F6A6F
:10151000060E0E6E62EC2AF0CDD7D6CF0EF0D7CFE6
:101520000FF00F500D6E0E500C6E0001BB510C5E93
:10153000BC510D5A1B0E0C5D060E0D5901E2EED08A
:10154000B9EC2DF0EBD0090E0001786F3D0E796FEC
:101550007A6B7B6B0101005100017C6F010101512D
:1015600000017D6F7E6B7F6B7C517803F3CF80F041
:10157000F4CF81F0826B836B7903F3508127F450B1
:101580008223000E83237D517803F3508127F4508A
:101590008223000E83237C517A03F3508227F45078
:1015A00083237D517903F3508227F45083237E51A6
:1015B0007803F3508227F45083237B517C03F3504C
:1015C00083277D517A03F35083277E517903F350AB
:1015D00083277F517803F350832780C00CF081C0AC
:1015E0000DF082C00EF083C00FF0E80E106E030EF7
:1015F000116E000E126A136AE2EC2BF00CC084F03C
:101600000DC085F00EC086F00FC087F0D6CF0EF06B
:10161000D7CF0FF00F500D6E0E500C6E0001BB5166
:101620000C5C886FBC510D58896F8A6B8B6B845131
:10163000885D8551895986518A5987518B596EE346
:101640000D6AF20E0C6E0F6A0E6A116A0B0E106EA6
:10165000F3EC2DF0BFC0F2F0C0C0F3F00001F45184
:10166000F00B0109F46FA30EF56F02EC2DF0D6CF4D
:101670000EF0D7CF0FF00F500D6E0E500C6E0CC049
:10168000BBF00DC0BCF00B0E4F6E48D046D7D6CF86
:101690000EF0D7CF0FF00F500D6E0E500C6E0001F4
:1016A000BB510C5EBC510D5A1B0E0C5D060E0D5944
:1016B00001E346D733D0D6CF0EF0D7CF0FF00F507F
:1016C0000D6E0E500C6E0001BB510C5EBC510D5ADC
:1016D0001C0E0C5DB70E31D74F5020E0010A01E11E
:1016E000EBD4030A01E11CD5010A01E12ED5070A5A
:1016F00001E113D7010A01E156D5030A01E104D63D
:10170000010A01E10AD70F0A01E107D7010A01E145
:101710007BD6030A01E117D7010ACDE000018C5105
:10172000D8B41200786B020E796FD8517A6F7B6B48
:1017300078517A2779517B23E8517B1902E1E751EF
:101740007A1925E1E9510F0B070A21E14F50020AEE
:10175000D8A41200EB51D00AD8B4EDB91200EFB9F9
:101760001200ED5101010D6F0001EC5101010C6FF0
:101770000001EF51C06FEE51BF6F0F0ED76F000E1B
:1017800001010F6F0A0E0E6F030E4F6E030C020E57
:101790004F64020C01010D510001E81904E101013F
:1017A0000C510001E719D8A41200E9510F0BD8B46D
:1017B0001200EA510F0B976FEA390F0B9C6F33D170
:1017C00001013B510001971902E0B9EF2DF0972973
:1017D0000F0B01013B6F4F50090A4DE04F500A0AB1
:1017E00003E04F500B0AF1E10001E9510F0B786F54
:1017F000030E785DD8A01200EC51EBC078F0796B45
:1018000078C079F0786B7827000E79237851536E81
:101810007F0E7915546E010EEBAF000E0101196FAA
:10182000000E535C010E5458D0E2400E535C000E83
:10183000545805E3060E0001BA6F650E04D0060E7B
:101840000001BA6F640EB96FE9510F0BFD0F926F73
:10185000BAC00DF0B9C00CF00F6AED0E0E6E92C05A
:1018600010F0116AAFEC2CF0000192C04AF04B6A04
:10187000090E4F6E1ED053504A5C54504B58A5E28F
:101880000001E9510F0B786F7805936F4A50B92525
:101890000C6E4B50BA210D6E0F6AEB0E0E6E93C09C
:1018A00010F0116AAFEC2CF0000193514A26000EA3
:1018B0004B229C0503E09C51030A05E153504A5C0E
:1018C00054504B5882E39C5102E09C051BE10D6A89
:1018D000F20E0C6E0F6A0E6A116A0B0E106EF3ECAC
:1018E0002DF0BFC0F2F0C0C0F3F00001F451F00BD6
:1018F0000109F46F01013B510F0BB0090001F56FB5
:1019000002EC2DF0D6CF0EF0D7CF0FF00F500D6EAA
:101910000E500C6E0CC0BBF00DC0BCF012004F504E
:101920000B0A0FE1D6CF0EF0D7CF0FF00F500D6E90
:101930000E500C6E0CC0BBF00DC0BCF00A0E4F6E0A
:101940000A0C4F50040AD8A41200E9510F0B060AE2
:1019500009E1EBC0D7F0EE5158EC2BF013C00EF1BB
:1019600014C00FF1C6A525D0820EE8CF61F6F10EA6
:10197000E8CF62F6E8CF63F67F0EE8CF64F6000E9C
:10198000E8CF65F6060E0D6E610E0C6E0F6A050E41
:101990000E6E09EC2EF00001786F78C066F6060E28
:1019A0000D6E610E0C6E0F6A060E0E6E62EC2AF062
:1019B000B9D7050E4F6E050C0D6AF20E0C6E0F6A4C
:1019C0000E6A116A0B0E106EF3EC2DF0BFC0F2F030
:1019D000C0C0F3F00001F451F00B0609F46FA10E42
:1019E000F56FC5C0F6F08A0EF76FF869C9C0F9F057
:1019F000FA6902EF2DF0EA51A10A91E0020AD8A497
:101A00001200DAD79751D91901E0DFD67BD7975169
:101A1000D91901E0DAD64F50080A84E04F50070A7E
:101A2000D8A41200C6D79C5101E1CAD6010A01E12F
:101A3000C7D6030A01E1C4D6010A01E1C1D60A0AE8
:101A4000E1E0030AD8E0010AD8A41200E0D70001BF
:101A50009F6F610E7B6F060E7C6F7CC07BF07C6B92
:101A60007B51AA6FAB6BAC6B060EAE6F610EAD6FA8
:101A7000060EB06F610EAF6F0101106911690001B0
:101A8000B451B111B211B31175E1F29EB9EC2AF063
:101A90009E92F294DA6B040082A2CA84CAB438D04F
:101AA0009EAA02D0F28E010CF2A408D0F29400019A
:101AB000DA2B100EDA6502D0F28E000C82A2CA84F4
:101AC0000001AC51AB11D8A4ACA2E5D782A2CA8464
:101AD000AFC0D9FFB0C0DAFFDF50AD6E82A2CA84BA
:101AE000AF4BB02B82A2CA84AA51B05D976F82A27D
:101AF000CA849751050A06E182A2CA84060EB06F15
:101B0000610EAF6F82A2CA84AB07D8A0AC07C3D75F
:101B10000001DA6B8A9CA26BA46B9EA2FED79E92F8
:101B200082A204D0D890A233A28F02D0D890A23340
:101B3000A42B070EA465F1D7000EAB5D050EAC59C2
:101B400014E2ADC0D9FFAEC0DAFFA2C0DFFFAD4BDB
:101B5000AE2BAB4BAC2BAA51AE5D986F9851050ADA
:101B600004E1060EAE6F610EAD6FCA94CC6A9E9210
:101B70008A8C91D73FEC26F000099FE0F29EB9ECE9
:101B80002AF09E92F294DA6BD6CF0EF0D7CF0FF0F8
:101B90000F500D6E0E500C6E0CC09BF00DC09CF0E3
:101BA0000400CAB40ED082B20CD00001DF51D8B408
:101BB00007D0DFC0CCFFCA849EA2FED79E9201D080
:101BC000CA84CAB447D39EBA6DD7F2A407D0F294A0
:101BD0000001DA2B100EDA6501D06ED7CAB40ED030
:101BE00082B20CD00001DF51D8B407D0DFC0CCFFE7
:101BF000CA849EA2FED79E9201D0CA840001AC5135
:101C0000AB11D8A4ACA2CCD7CAB40ED082B20CD03F
:101C10000001DF51D8B407D0DFC0CCFFCA849EA238
:101C2000FED79E9201D0CA84AFC0D9FFB0C0DAFF00
:101C3000DF50AD6E0001E35101E1C1D1AFC0D9FF6A
:101C4000B0C0DAFFDF500101106F116B00019F6718
:101C500002D0E26B31D7D6CF0EF0D7CF0FF00F50B6
:101C60000D6E0E500C6E00019B510C5CA06F9C51D0
:101C70000D58A16F9D6BA0517B6FA1517C6F7D6B47
:101C80007E6B090E7F6F3D0E806F816B826B1CC176
:101C900083F0846B856B866B83517F03F3CF87F072
:101CA000F4CF88F0896B8A6B8003F3508827F45057
:101CB0008923000E8A2384517F03F3508827F45030
:101CC0008923000E8A2383518103F3508927F4501E
:101CD0008A2384518003F3508927F4508A23855145
:101CE0007F03F3508927F4508A2382518303F350F2
:101CF0008A2784518103F3508A2785518003F3504A
:101D00008A2786517F03F3508A2787C00CF088C04A
:101D10000DF089C00EF08AC00FF0E80E106E030EB1
:101D2000116E000E126A136AE2EC2BF00CC08BF0FD
:101D30000DC08CF00EC08DF00FC08EF000017B51F5
:101D40008B5D7C518C597D518D597E518E5903E2AA
:101D5000E26B010E9D6F640E7B6F7C6B7D6B7E6B07
:101D6000A0517F6FA151806F816B826B7F517B038C
:101D7000F3CF83F0F4CF84F0856B866B7C03F35054
:101D80008427F4508523000E862380517B03F35073
:101D90008427F4508523000E86237F517D03F35062
:101DA0008527F450862380517C03F3508527F45017
:101DB000862381517B03F3508527F45086237E517F
:101DC0007F03F350862780517D03F350862781518E
:101DD0007C03F350862782517B03F350862783C010
:101DE0000CF084C00DF085C00EF086C00FF0090E17
:101DF000106E3D0E116E000E126A136AE2EC2BF0AB
:101E00000CC0A6F00DC0A7F00EC0A8F00FC0A9F03E
:101E1000800E0001A65D000EA759000EA859000E05
:101E2000A95906E37F0EA66F000EA76FA86FA96FD2
:101E30009D51D8A4A68FE26708D0AFC0D9FFB0C02B
:101E4000DAFFDF50E26F01011B6B0001E25101017B
:101E50001B5D05E3ACA2FED7A6C0ADFF2DD61B2BA4
:101E6000F28E0001E15101E182D0D6CF0EF0D7CF42
:101E70000FF00F500D6E0E500C6E0CC08FF00DC099
:101E800090F0090E00017B6F3D0E7C6F7D6B7E6BC9
:101E9000E1C07FF0806B816B826B7F517B03F3CF5E
:101EA00083F0F4CF84F0856B866B7C03F35084273A
:101EB000F4508523000E862380517B03F350842742
:101EC000F4508523000E86237F517D03F350852730
:101ED000F450862380517C03F3508527F4508623E9
:101EE00081517B03F3508527F45086237E517F0375
:101EF000F350862780517D03F350862781517C0360
:101F0000F350862782517B03F350862783C00CF061
:101F100084C00DF085C00EF086C00FF0E80E106E84
:101F2000030E116E000E126A136AE2EC2BF00CC065
:101F300087F00DC088F00EC089F00FC08AF087C00E
:101F400091F088C092F001D00400D6CF0EF0D7CF28
:101F50000FF00F500D6E0E500C6E00018F510C5E85
:101F600090510D5A91510C5D92510D59EDE3ACA277
:101F7000FED7A6C0ADFF270E5016AFC0D9FFB0C028
:101F8000DAFFDF1C01012D6F010E236E2D0E226E74
:101F9000256A010E246E85EC15F0F29ED6CF0EF068
:101FA000D7CF0FF00F500D6E0E500C6E0CC09BF083
:101FB0000DC09CF0B9EC2AF09E92F294DA6BCAB490
:101FC0000ED082B20CD00001DF51D8B407D0DFC0F0
:101FD000CCFFCA849EA2FED79E9201D0CA84000183
:101FE000DE5101E1D2D0CAB40ED082B20CD00001D1
:101FF000DF51D8B407D0DFC0CCFFCA849EA2FED781
:102000009E9201D0CA840001DE07CAB40ED082B20B
:102010000CD00001DF51D8B407D0DFC0CCFFCA8498
:102020009EA2FED79E9201D0CA840001DE67ADD089
:102030009F5101E1AAD09E6BE0A109D0AFC0D9FFAA
:10204000B0C0DAFFDF508F0A02E0010E9E6F9EC023
:10205000E3F0E26BF28ED6CF0EF0D7CF0FF00F5039
:102060000D6E0E500C6E0CC093F00DC094F0090E66
:1020700000017B6F3D0E7C6F7D6B7E6BDDC07FF062
:10208000806B816B826B7F517B03F3CF83F0F4CF46
:1020900084F0856B866B7C03F3508427F450852392
:1020A000000E862380517B03F3508427F450852350
:1020B000000E86237F517D03F3508527F45086233D
:1020C00080517C03F3508527F450862381517B0394
:1020D000F3508527F45086237E517F03F3508627E3
:1020E00080517D03F350862781517C03F35086276E
:1020F00082517B03F350862783C00CF084C00DF01F
:1021000085C00EF086C00FF0E80E106E030E116E43
:10211000000E126A136AE2EC2BF00CC087F00DC0BF
:1021200088F00EC089F00FC08AF087C095F088C093
:1021300096F001D00400D6CF0EF0D7CF0FF00F509D
:102140000D6E0E500C6E000193510C5E94510D5AA1
:1021500095510C5D96510D59EDE3270E5016AFC009
:10216000D9FFB0C0DAFFDF1C01012D6F010E236E15
:102170002D0E226E256A010E246E85EC15F0F29E5E
:10218000B9EC2AF09E92F294DA6BCAB40ED082B205
:102190000CD00001DF51D8B407D0DFC0CCFFCA8417
:1021A0009EA2FED79E9201D0CA840001AF4BB02BF5
:1021B000CAB40ED082B20CD00001DF51D8B407D01F
:1021C000DFC0CCFFCA849EA2FED79E9201D0CA84F3
:1021D0000001AA51B05D996FCAB40ED082B20CD082
:1021E0000001DF51D8B407D0DFC0CCFFCA849EA263
:1021F000FED79E9201D0CA8400019951050A15E1CB
:10220000CAB40ED082B20CD00001DF51D8B407D0CE
:10221000DFC0CCFFCA849EA2FED79E9201D0CA84A2
:10222000060E0001B06F610EAF6FCAB40ED082B25D
:102230000CD00001DF51D8B407D0DFC0CCFFCA8476
:102240009EA2FED79E9201D0CA840001AB07D8A0FF
:10225000AC07A6D40001DA6B8A9CA36BA56B0CD0EB
:102260009EA2FED79E9282A204D0D890A333A38FC1
:1022700002D0D890A333A52B070EA565F1D750C087
:102280007BF07B1703E09EA2FED79E92000EAB5D13
:10229000050EAC5914E2ADC0D9FFAEC0DAFFA3C041
:1022A000DFFFAD4BAE2BAB4BAC2BAA51AE5D9A6FA3
:1022B0009A51050A04E1060EAE6F610EAD6F9EA243
:1022C000FED79E92CA94CC6A9E928A8C69D42C5076
:1022D000050A2D1070E1810E2AC0D9FF2BC0DAFF4C
:1022E000DF6269D020EE01F02A50D9262B50DA2285
:1022F000DF5061E120EE02F02A50D9262B50DA227D
:10230000DF5059E12BC00DF02AC00CF02CC00EF0AC
:102310002DC00FF062EC2AF020EE03F02A50D926EF
:102320002B50DA22DF500001676F51EC2EF0000EC7
:102330000D6A0C6A67C00EF076EC2DF051EC2EF0B1
:102340000D6A010E0C6E0001671D0E6E76EC2DF00D
:102350000CEC27F020EE03F02A50D9262B50DA227D
:102360000001CB1DDF6E2BC00DF02AC00CF0FF0E5C
:102370002C240E6EFF0E2D200F6E09EC2EF02E6E0B
:102380002AC02FF02BC030F02C502F262D50302299
:10239000FF0E2F24D96EFF0E3020DA6E2EC0DFFF25
:1023A0002BC00DF02AC00CF02CC00EF02DC00FF089
:1023B00062EC2AF0010C20EE01F02A50D9262B50B5
:1023C000DA22F10EDF62000C20EE02F02A50D9264C
:1023D0002B50DA22F10EDF62000C2BC00DF02AC068
:1023E0000CF02CC00EF02DC00FF062EC2AF02C5037
:1023F000060A2D103DE120EE03F02A50D9262B507D
:10240000DA22DF502E6E7F0E2E1632E120EE03F020
:102410002A50D9262B50DA22DF502E6E2EBE1ED027
:1024200020EE04F02A50D9262B50DA22DF5000018A
:10243000686F51EC2EF00D6A020E0C6E68C00EF043
:1024400076EC2DF051EC2EF00D6A030E0C6E0001AF
:10245000681D0E6E76EC2DF00CEC27F020EE04F0EB
:102460002A50D9262B50DA220001C3C0DFFF7BD7C8
:102470002C50060A2D103FE120EE03F02A50D926F9
:102480002B50DA22DF502E6E7F0E2E162E50010AB0
:1024900032E120EE03F02A50D9262B50DA22DF5009
:1024A0002E6E2EBE1ED020EE04F02A50D9262B50C0
:1024B000DA22DF500001696F51EC2EF00D6A040E34
:1024C0000C6E69C00EF076EC2DF051EC2EF00D6A1A
:1024D000050E0C6E0001691D0E6E76EC2DF00CECF5
:1024E00027F020EE04F02A50D9262B50DA220001E2
:1024F000D6C0DFFF38D72C50060A2D103FE120EE62
:1025000003F02A50D9262B50DA22DF502E6E7F0E90
:102510002E162E50020A32E120EE03F02A50D92660
:102520002B50DA22DF502E6E2EBE1ED020EE04F08D
:102530002A50D9262B50DA22DF5000016A6F51EC65
:102540002EF0000E0D6A0C6A6AC00EF076EC2DF0CB
:1025500051EC2EF00D6A010E0C6E00016A1D0E6E1C
:1025600076EC2DF00CEC27F020EE04F02A50D92662
:102570002B50DA220001CBC0DFFFF5D6060E2C5C13
:10258000000E2D5801E283D020EE03F02A50D92608
:102590002B50DA22DF502E6E7F0E2E162E50040A9C
:1025A00076E120EE03F02A50D9262B50DA22DF50B4
:1025B0002E6E2EBE3AD000016C6B030E6C6501D0FE
:1025C00032D0656BFB0E2E6E2F682CC030F02DC004
:1025D00031F02E5030262F5031226C51326E336A3A
:1025E0003050325C315033580EE26C512A242E6E3A
:1025F000000E2B202F6E040E2E24D96E000E2F20DD
:10260000DA6EDF50656F51EC2EF0080E00016C257C
:102610000C6E0D6A000E0D2265C00EF076EC2DF0EA
:1026200000016C2BCAD70CEC27F0040E2A240C6E88
:10263000000E2B200D6E0101010E0F6E370E0E6E77
:10264000116A040E106EAFEC2CF02AC0D9FF2BC01B
:10265000DAFF850EDF6E2BC00DF02AC00CF00F6A7A
:10266000080E0E6E09EC2EF02E6E20EE08F02A50A9
:10267000D9262B50DA222EC0DFFF2BC00DF02AC046
:102680000CF00F6A090E0E6E62EC2AF0010C060EB9
:102690002C5C000E2D5801E283D020EE03F02A506E
:1026A000D9262B50DA22DF502E6E7F0E2E162E509A
:1026B000050A76E120EE03F02A50D9262B50DA22C3
:1026C000DF502E6E2EBE3AD000016D6B0F0E6D6581
:1026D00001D032D0666BFB0E2E6E2F682CC030F00E
:1026E0002DC031F02E5030262F5031226D51326ED8
:1026F000336A3050325C315033580EE26D512A2427
:102700002E6E000E2B202F6E040E2E24D96E000E7E
:102710002F20DA6EDF50666F51EC2EF0180E00019C
:102720006D250C6E0D6A000E0D2266C00EF076EC63
:102730002DF000016D2BCAD70CEC27F0040E2A24D3
:102740000C6E000E2B200D6E0101010E0F6E1D0E82
:102750000E6E116A100E106EAFEC2CF02AC0D9FF6D
:102760002BC0DAFF910EDF6E2BC00DF02AC00CF0EB
:102770000F6A140E0E6E09EC2EF02E6E20EE14F081
:102780002A50D9262B50DA222EC0DFFF2BC00DF0A5
:102790002AC00CF00F6A150E0E6E62EC2AF0010CC6
:1027A0002C50060A2D105CE120EE03F02A50D926A9
:1027B0002B50DA22FA0EDF6253D020EE04F02A50BA
:1027C000D9262B50DA22FA0EDF624AD02AC0D9FF6E
:1027D0002BC0DAFF830EDF6E20EE04F02A50D926DC
:1027E0002B50DA22000EF36A0001CA63F32AF3CFFA
:1027F0002EF02E50DF6ECD6703D0636B646B03D079
:10280000646B020E636F20EE04F02A50D9262B5021
:10281000DA226351DF1220EE05F02A50D9262B5020
:10282000DA22010117C1DFFF2BC00DF02AC00CF026
:102830000F6A060E0E6E09EC2EF02E6E20EE06F0DC
:102840002A50D9262B50DA222EC0DFFF2BC00DF0E4
:102850002AC00CF00F6A070E0E6E62EC2AF0010C13
:102860002C50060A2D1059E120EE03F02A50D926EB
:102870002B50DA22FB0EDF6250D020EE04F02A50FB
:10288000D9262B50DA22FB0EDF6247D02AC0D9FFAF
:102890002BC0DAFF890EDF6E200E0001626F616BC4
:1028A000606B6B6B070E6B6501D01BD060C0F6FFD1
:1028B00061C0F7FF62C0F8FF6B512A242E6E000E34
:1028C0002B202F6E040E2E24D96E000E2F20DA6ED0
:1028D0000800F5CFDFFF602B000E612362236B2B16
:1028E000E1D72BC00DF02AC00CF00F6A0C0E0E6E53
:1028F00009EC2EF02E6E20EE0CF02A50D9262B502B
:10290000DA222EC0DFFF2BC00DF02AC00CF00F6AB8
:102910000D0E0E6E62EC2AF0010C2C50060A2D10E2
:102920007DE120EE03F02A50D9262B50DA22FC0E4E
:10293000DF6274D020EE04F02A50D9262B50DA2220
:10294000FC0EDF626BD0C282C2B2FED720EE04F072
:102950002A50D9262B50DA222C0E2E6E010E2F6E05
:10296000000E306A316AC3CF32F0C4CF33F033BEC9
:10297000FF0E346E356E32502E02F3CF36F0F4CFA8
:1029800037F0386A396A2F02F3503726F45038226C
:10299000000E392233502E02F3503726F4503822DD
:1029A000000E392232503002F3503826F4503922CA
:1029B00033502F02F3503826F450392234502E026F
:1029C000F3503826F450392231503202F350392670
:1029D00033503002F350392634502F02F350392649
:1029E00035502E02F350392636C00CF037C00DF0AA
:1029F00038C00EF039C00FF0106A100E116E000EC4
:102A0000126A136A33EC29F00CC03AF00DC03BF0A7
:102A10000EC03CF00FC03DF03A50A4D42C50060A32
:102A20002D1036E120EE03F02A50D9262B50DA2261
:102A3000FD0EDF622DD020EE04F02A50D9262B5057
:102A4000DA22FD0EDF6224D02AC0D9FF2BC0DAFFC4
:102A5000850EDF6E20EE04F02A50D9262B50DA22A4
:102A6000DF6A20EE05F02A50D9262B50DA22030E19
:102A7000DF6E20EE06F02A50D9262B50DA22DF6ACC
:102A800020EE07F02A50D9262B50DA220A0EE2D582
:102A90002C50060A2D1025E120EE03F02A50D926ED
:102AA0002B50DA22FE0EDF621CD020EE04F02A50FA
:102AB000D9262B50DA22FE0EDF6213D020EE04F06E
:102AC0002A50D9262B50DA22010E82A8000EDF6E82
:102AD00020EE04F02A50D9262B50DA22000EDB8E8D
:102AE00042D420EE03F02A50D9262B50DA22FF0ED2
:102AF000DF62010C20EE04F02A50D9262B50DA2296
:102B0000FF0EDF62010CFF00010C000123C078F012
:102B100022C077F002D01DEC2CF09DB8FCD71DEC44
:102B20002CF00001B451B111B211B31143E1F29E86
:102B3000AB98CD909E90526AB9EC2AF09E92CA84CE
:102B40008A9E8A92686B696B28D004009EA2FED789
:102B50009E928A8077C0D9FF78C0DAFFDF500001EB
:102B60006A6F774B782B736B9EA2FED79E92000103
:102B70006AA102D08A9001D08A80D8906A33732BE0
:102B8000070E7365F1D79EA2FED79E928A909EA2F1
:102B9000FED79E920001684B692B2450685D25503A
:102BA0006959D3E38A908A8ECA94F294AB88DA6B1F
:102BB000F28E1200F29EAB98CD909E90526A7A6B84
:102BC000796B50AE02D0010E7A6F50A603D0010E81
:102BD000796F02D0010E7A6F50A8F7D0030E245CF3
:102BE000000E255801E2EAD0090E266E3D0E276E32
:102BF000286A296A22C0D9FF23C0DAFFDF502A6E73
:102C00002AC02BF02C6A2D6A2E6A2B502602F3CF95
:102C10002FF0F4CF30F0316A326A2702F3503026B9
:102C2000F4503122000E32222C502602F35030266E
:102C3000F4503122000E32222B502802F35031265C
:102C4000F45032222C502702F3503126F450322215
:102C50002D502602F3503126F450322229502B02F7
:102C6000F35032262C502802F35032262D502702E2
:102C7000F35032262E502602F35032262FC00CF08D
:102C800030C00DF031C00EF032C00FF0E80E106E03
:102C9000030E116E000E126A136AE2EC2BF00CC0E8
:102CA00033F00DC034F00EC035F00FC036F033C035
:102CB00060F034C061F020EE01F02250D92623509C
:102CC000DA22DF5000016D6F6D51266E276A070E04
:102CD0002626000E27222734273226322734273291
:102CE000263227342732263226506E6F6E51266EDA
:102CF000276A020E2626000E27222450265C255025
:102D000027580EE26E512224266E000E2320276ED5
:102D1000020E2624D96E000E2720DA6EDF50DD6FFA
:102D2000020E2224776F000E2320786F8A9E746B28
:102D300042D0040074C026F0070E261609E177C0C1
:102D4000D9FF78C0DAFFDF5000016B6F774B782B2B
:102D500000016BA107D07A51D8A48A90795108E07C
:102D60008A9206D07A51D8A48A807951D8A48A82CE
:102D7000D8906B33D6CF0EF0D7CF0FF00F500D6E2B
:102D80000E500C6E0CC062F00DC063F001D0040058
:102D9000D6CF0EF0D7CF0FF00F500D6E0E500C6E39
:102DA000000162510C5E63510D5A60510C5C61511F
:102DB0000D58EDE3742B6D51745DBBE38A908A92DC
:102DC0008A8EAB88DA6BF28E1200B9EC2AF08A9EFA
:102DD00050AC4CD07A51D8A48A807951D8A48A8238
:102DE000D6CF0EF0D7CF0FF00F500D6E0E500C6EE9
:102DF0000CC06FF00DC070F001D00400D6CF0EF003
:102E0000D7CF0FF00F500D6E0E500C6E00016F51AA
:102E10000C5E70510D5A860E0C5C010E0D58EDE3E0
:102E20007A51D8A48A907951D8A48A92D6CF0EF03C
:102E3000D7CF0FF00F500D6E0E500C6E0CC06FF010
:102E40000DC070F001D00400D6CF0EF0D7CF0FF038
:102E50000F500D6E0E500C6E00016F510C5E7051D4
:102E60000D5A860E0C5C010E0D58EDE39E92CA843D
:102E7000716B726B0CD1E15101E189D0725171110A
:102E800001E185D0CA94D6CF0EF0D7CF0FF00F5006
:102E90000D6E0E500C6E0CC064F00DC065F0090E86
:102EA000266E3D0E276E286A296A0001E1C02AF0CD
:102EB0002B6A2C6A2D6A2A502602F3CF2EF0F4CF0B
:102EC0002FF0306A316A2702F3502F26F450302257
:102ED000000E31222B502602F3502F26F4503022C0
:102EE000000E31222A502802F3503026F4503122AD
:102EF0002B502702F3503026F45031222C5026025A
:102F0000F3503026F450312229502A02F350312652
:102F10002B502802F35031262C502702F350312633
:102F20002D502602F35031262EC00CF02FC00DF08C
:102F300030C00EF031C00FF0E80E106E030E116EAF
:102F4000000E126A136AE2EC2BF00CC032F00DC0D6
:102F500033F00EC034F00FC035F032C066F033C02D
:102F600067F001D00400D6CF0EF0D7CF0FF00F508E
:102F70000D6E0E500C6E000164510C5E65510D5AC1
:102F800066510C5C67510D58EDE39E92CA840400B3
:102F90009EA2FED79E9200017A51D8A48A807951D0
:102FA000D8A48A8277C0D9FF78C0DAFFDF506C6F6F
:102FB000774B782B756B766B070E766501D048D012
:102FC0009EA2FED79E9200016CA108D07A51D8A48F
:102FD0008A907951D8A48A92752B06D07A51D8A4B8
:102FE0008A807951D8A48A82D8906C33762BE4D722
:102FF0009EA2FED79E92000175A104D07A51D8A45A
:103000008A9017D07A51D8A48A801ED09EA2FED76B
:103010009E92000175A103D07A51F6E115D07A5144
:10302000EFE107D09EA2FED79E9200017A51D8A46C
:103030008A9079511CE08A921AD09EA2FED79E9265
:1030400000017A51D8A48A80795111E08A820FD088
:103050005050070B266E276A275009E12650010AB7
:10306000C7E0030AD3E0010ADDE0070AE6E09EA21A
:10307000FED79E9200017A51D8A48A907951D8A4A3
:103080008A929EA2FED79E920001714B722B245011
:10309000715D2550725901E2EED68A908A928A8E2D
:1030A000CA94AB88DA6BF28E12005250020A03E027
:1030B0003E6A3F6A12000001DA6B766B776BE4516F
:1030C0001BE04CC076F04DC077F03F503E100FE053
:1030D0003FC00DF03EC00CF00B0E0F6E610E0E6E79
:1030E00076C010F077C011F0AFEC2CF0526A76C0C9
:1030F0003EF077C03FF01200746B756B61CBE8FF58
:10310000000901E0D8D12BEE62F0DF5071E13F50B1
:103110003E1002E05104CCE12BEE64F0DF5063CBB3
:1031200040F040C041F0426A436A446A43C044F000
:1031300042C043F041C042F0416A4124456E000E56
:103140004220466E000E4320476E000E4420486E1B
:10315000D8904534B16F4634B26F4734B36F4834BA
:10316000B46FB451B111B211B3111BE0B151020AE5
:10317000B211B311B41115E0A00EB15D0F0EB2592A
:10318000000EB359000EB45909E3A90EB15D610EEA
:10319000B259000EB359000EB45903E3766B776B46
:1031A00024D065CB50F0E06B01011C6B66CBE1F0E5
:1031B00068CB40F02BEE67F0DF500001776F405096
:1031C000766F3F503E100EE03FC00DF03EC00CF059
:1031D0000B0E0F6E690E0E6E76C010F077C011F0F8
:1031E000AFEC2CF0010E0001746FDD6BDE6BEAD0EA
:1031F000010E2BEE62F0DF626DD03F503E100AE010
:103200005150020A01E054D72BEE63F0DF504E1804
:1032100001E04ED72BEE63F0DF504E1802E0010EB6
:10322000756F63CB4EF02BEE64F0DF50C41902E0F3
:10323000010E756F64CBC4F065CBC6F0B5C06EF0FF
:10324000B6C06FF01ED0C3C0C7F0D6C0C8F067CB01
:1032500040F02BEE66F0DF50B86F4050B76F070EAE
:10326000B66FE80EB56F11D066CBC5F067CBC9F06D
:103270002BEE68F0DF500A0DF3CF00F1F4CF01F12F
:1032800004D04E50020ADFE0EFD7B6516F1902E1C9
:10329000B5516E1902E0010E756F6ACB40F02BEE4E
:1032A00069F0DF50776F4050766F3F503E100EE070
:1032B0003FC00DF03EC00CF00B0E0F6E6B0E0E6E8D
:1032C00076C010F077C011F0AFEC2CF0020E0001C8
:1032D000746F72D1020E2BEE62F0DF6278D03F5035
:1032E0003E1003E0510401E0E3D62BEE64F0DF5022
:1032F00063CB40F040C041F0426A436A446A43C035
:1033000044F042C043F041C042F0416A4124456E5E
:10331000000E4220466E000E4320476E000E4420F1
:10332000486ED8904534B16F4634B26F4734B36FAE
:103330004834B46FB451B111B211B3111BE0B151A3
:10334000020AB211B311B41115E0A00EB15D0F0E57
:10335000B259000EB359000EB45909E3A90EB15D7C
:10336000610EB259000EB359000EB45903E3766BE7
:10337000776B24D065CB50F066CBE0F067CBE1F003
:1033800068CB1CF16ACB40F02BEE69F0DF50776F11
:103390004050766F3F503E100EE03FC00DF03EC0F3
:1033A0000CF00B0E0F6E6B0E0E6E76C010F077C029
:1033B00011F0AFEC2CF0010E0001746FDD6BDE6BD1
:1033C00050A8E0A1E36BE26B01011B6BF5D0030E8B
:1033D0002BEE62F0DF62F0D03F503E100AE0515019
:1033E000020A01E065D62BEE63F0DF504E1801E0D3
:1033F0005FD62BEE63F0DF504E1802E0010E756FC2
:1034000063CB4EF02BEE64F0DF50C41902E0010EE6
:10341000756F64CBC4F065CBC6F0B5C070F0B6C0B4
:1034200071F022D066CBC7F067CBC8F069CB40F013
:103430002BEE68F0DF50B86F4050B76F6BCB40F0A9
:103440002BEE6AF0DF50B66F4050B56F11D066CBEF
:10345000C5F067CBC9F02BEE68F0DF500A0DF3CF53
:1034600000F1F4CF01F104D04E50020ADBE0EFD7B7
:10347000B651711902E1B551701902E0010E756F74
:103480006DCB40F02BEE6CF0DF50776F4050766FD5
:103490003F503E1001E11AD73FC00DF03EC00CF086
:1034A0000B0E0F6E6E0E0E6E76C010F077C011F020
:1034B000AFEC2CF00BD70B0E2B6E610E2A6E4CC0AE
:1034C0002CF04DC02DF067EC11F0000904E0526AB9
:1034D0003E6A3F6A12000001CB2951E1DB5102E054
:1034E00051504DE03F503E1001E0E2D5DB6B516A98
:1034F000C7EC27F00D6A0001F20E0C6E0F6A0E6A1F
:10350000116A0B0E106EF3EC2DF0060E0001F36F36
:10351000F10EF26FF451F00B0809F46FF10EF56F34
:10352000F66B02EC2DF0D6CF0EF0D7CF0FF00F5088
:103530000D6E0E500C6E0CC072F00DC073F00400D6
:103540001DEC2CF054EC2EF0000903E0020E0001FB
:1035500013D0D6CF0EF0D7CF0FF00F500D6E0E5008
:103560000C6E000172510C5E73510D5A390E0C5CD9
:10357000010E0D58E4E3010EDB6F010E756F3F5035
:103580003E1003E0515001E093D581EC2CF04CC08B
:1035900076F04DC077F03F503E100EE03FC00DF08A
:1035A0003EC00CF00B0E0F6E610E0E6E76C010F06A
:1035B00077C011F0AFEC2CF051500001741904E009
:1035C000010E756F74C051F07551D8A4C7EC27F087
:1035D0003F503E1001E08AD58AD50001886FCA6746
:1035E00001D01200D1672FD09DB82DD0060E3F6EAE
:1035F000610E3E6E55EC18F03EC089F03FC08AF077
:1036000000018A5189111FE054EC2EF00009D8A462
:10361000C7EC27F0010E0001D16FD56BBD6BBE6BFF
:1036200089C006F18AC007F1D6CF0EF0D7CF0FF0D0
:103630000F500D6E0E500C6E0CC002F10DC003F158
:10364000010E0101166F010116515CE054EC2EF0E1
:10365000000923E00001C6A31BD0020E01012D6F5B
:103660002E6B010E2F6F306F010E0D6E2D0E0C6E36
:103670000F6A040E0E6E09EC2EF00101316F010E7F
:103680000D6E2D0E0C6E0F6A050E0E6E62EC2AF09A
:103690000101166B0001D16B12000001886713D085
:1036A000D6CF0EF0D7CF0FF00F500D6E0E500C6E20
:1036B000010102510C5E03510D5A390E00010C5DDF
:1036C000010E0D591FE3C6A51BD0020E01012D6F7F
:1036D0002E6B010E2F6F306B010E0D6E2D0E0C6ECA
:1036E0000F6A040E0E6E09EC2EF00101316F010E0F
:1036F0000D6E2D0E0C6E0F6A050E0E6E62EC2AF02A
:103700000101166B0001D151D8B41200DA6B060E1C
:103710008D6F610E8C6F06C18FF007C190F0BE51A6
:10372000BD116DE1080E8F5D000E905925E20D6A06
:10373000F20E0C6E0F6A0E6A116A0B0E106EF3EC2D
:103740002DF0B7C0F2F0B8C0F3F00001F451F00B67
:103750000809F46F8FC0F5F00D6AF60E0C6E8DC07F
:103760000FF08CC00EF08FC010F090C011F0AFECD5
:103770002CF002EC2DF08ED70D6AF20E0C6E0F6A53
:103780000E6A116A0B0E106EF3EC2DF0B7C0F2F05A
:10379000B8C0F3F00001F451F00B0809F46F90C0C9
:1037A00078F078C079F07A6B79511009F56F8FC095
:1037B000F6F0060E8B6F0D6AF70E0C6E8DC00FF0D3
:1037C0008CC00EF08BC010F0116AAFEC2CF0000131
:1037D0008B51BD27000EBE2302EC2DF0010E00011F
:1037E000D46FFE6FD6CF0EF0D7CF0FF00F500D6E07
:1037F0000E500C6E0CC00AF10DC00BF11200D4512A
:103800004CE0885131E0B651E81902E1B551E719B1
:103810002BE1E9510F0B786F030E785D25E3EAC0C9
:1038200078F0F00E78177851300A10E01DD0D46B84
:1038300017D0D6CF0EF0D7CF0FF00F500D6E0E5021
:103840000C6E0CC00AF10DC00BF10AD0EA510F0B3F
:10385000786F796B795104E17851E9E0010AE9E088
:10386000EBC0D2F0ECC0D3F00001D451D8B41200B8
:10387000D6CF0EF0D7CF0FF00F500D6E0E500C6E4E
:1038800001010A510C5E0B510D5A0A0E00010C5D2C
:103890003D0E0D59D8A01200FDD6D55172E0090E8B
:1038A000786F3D0E796F7A6B7B6BD3C07CF07D6B4C
:1038B0007E6B7F6B7C517803F3CF80F0F4CF81F087
:1038C000826B836B7903F3508127F4508223000EBF
:1038D00083237D517803F3508127F4508223000E17
:1038E00083237C517A03F3508227F45083237D5144
:1038F0007903F3508227F45083237E517803F350E9
:103900008227F45083237B517C03F35083277D511E
:103910007A03F35083277E517903F35083277F5135
:103920007803F350832780C00CF081C00DF082C073
:103930000EF083C00FF0E80E106E030E116E000E35
:10394000126A136AE2EC2BF00CC084F00DC085F013
:103950000EC086F00FC087F0D6CF0EF0D7CF0FF095
:103960000F500D6E0E500C6E010108510C5E095186
:103970000D5A00010C51845D0D518559D8B01200CB
:10398000D56B0D6AF20E0C6E0F6A0E6A116A0B0E81
:10399000106EF3EC2DF0B7C0F2F0B8C0F3F00001F8
:1039A000F451F00B0809F46FFE510F0B2009F56F6D
:1039B000BD518F5D8E6F070E8E6501D08E6F0D6AC3
:1039C000F60E0C6E8CC078F08DC079F0BD51782762
:1039D000BE51792378C00EF079C00FF08EC010F080
:1039E000116AAFEC2CF000018E51BD27000EBE23F2
:1039F000FE2B02EC2DF000018F51BD5D9051BE59A0
:103A000001E348D6D46BD25112E0D2050EE1010E8B
:103A1000D46FD6CF0EF0D7CF0FF00F500D6E0E50E3
:103A20000C6E0CC00AF10DC00BF10001D207D46777
:103A30001200D351D8B41200010ED56FD6CF0EF0BC
:103A4000D7CF0FF00F500D6E0E500C6E0CC008F15A
:103A50000DC009F112001D6E0001CA6701D01200ED
:103A6000CD5114E0D6CF0EF0D7CF0FF00F500D6E22
:103A70000E500C6E010104510C5E05510D5A850E5D
:103A80000C5C1E0E0D5802E30001CD6B1D5001E1D0
:103A9000EBD10001DA6BE805300ED8B4E71917E175
:103AA000E9510F0B166E050E165C11E3010ECD6F7A
:103AB000D6CF0EF0D7CF0FF00F500D6E0E500C6E0C
:103AC0000CC004F10DC005F1EAC017F11200166A2E
:103AD0001768E7C018F0E8C019F01650181617500C
:103AE00019161950060A181001E059D1E9510F0BA7
:103AF000166E020E165C01E252D1EB390F0B1E6EF0
:103B000046D1E7C01FF0EAC020F0EB510F0B246E46
:103B10002450166E176AFE0E186E1968E9510F0BC5
:103B20001A6E1B6A18501A2619501B221B50800A45
:103B30001C6E16501A5C1750800A1C5801E22FD1D7
:103B40002450800901012D6F20C02EF11FC02FF1DC
:103B5000010E0D6E300E0C6E0F6A0001EC0E0E6E33
:103B600024C010F0116AAFEC2CF02450030F216E2A
:103B70000101010E0D6E2D0E0C6E21C00EF00F6AAC
:103B800009EC2EF0166E01012D0E2124D96EDA6A91
:103B9000010EDA2216C0DFFF212A0D6E2D0E0C6EEB
:103BA00021C00EF00F6A62EC2AF0F9D0D05101E08A
:103BB000F6D0E9510F0B166E080E165C01E2EFD03D
:103BC000E7C0CFF0EAC0FDF0EB510F0B546EEC51A3
:103BD000536E000E535C010E545801E3E0D0400ECA
:103BE000535C000E545804E3060EBA6F650E03D002
:103BF000060EBA6F640EB96FBAC00DF0B9C00CF002
:103C00000F6AED0E0E6E116A050E106EAFEC2CF001
:103C10004B6A050E4A6E010E0001CC6F0D6AF20E62
:103C20000C6E0F6A0E6A116A0B0E106EF3EC2DF01B
:103C3000000E0001FD11F26F060EF36FF451F00B50
:103C40000809F46FCFC0F5F0300EF66FC3C0F7F07F
:103C5000D6C0F8F0C3C0CEF0010ED06FF29EC1C046
:103C600027F0C2C028F0F28E050E5324166E000E07
:103C70005420176E0A0E186E050E196E2750185E26
:103C80002850195A1650185C1750195803E2D6ECF0
:103C90002DF0E4D702EC2DF0D6CF0EF0D7CF0FF0F9
:103CA0000F500D6E0E500C6E0CC0BBF00DC0BCF072
:103CB00076D0D05174E0CF51E76371D0FD5120EE42
:103CC000EAF0DF626CD0CCC016F00F0E1616EB5186
:103CD0000F0B161864E14A50535C256E4B50545834
:103CE000266E070E255C000E265803E3266A060E94
:103CF000256EFE0E166E1768E9510F0B186E196AC5
:103D000016501826175019222550185C265019589D
:103D100046E34A50B9250C6E4B50BA210D6E0F6A1E
:103D2000EC0E0E6E25C010F026C011F0AFEC2CF09A
:103D300025504A2626504B220001CC2BCE51ACE018
:103D400053504A5C54504B58A7E2CE07CE67A4D7D5
:103D50000D6AF20E0C6E0F6A0E6A116A0B0E106E6F
:103D6000F3EC2DF0000E0001FD11F26F060EF36F63
:103D7000F451F00B0809F46FCFC0F5F0300EF66F78
:103D8000C3C0F7F0D6C0F8F0C3C0CEF083D71E5042
:103D900001E1B7D6010A01E109D7030A8AE000016F
:103DA000D051D8B4120053504A5C54504B58D8A04C
:103DB0001200400E535C000E545811E3800EE8CF01
:103DC00061F626EE62F0FDC0DFFF26EE63F0CFC0A5
:103DD000DFFF26EE64F053C0DFFF040E0FD053C0A8
:103DE00016F0800E161216C061F626EE62F0FDC0C7
:103DF000DFFF26EE63F0CFC0DFFF030E5324226EF9
:103E0000000E5420236E060E0D6E610E0C6E22C045
:103E10000EF023C00FF009EC2EF0166E610E222476
:103E2000D96E060E2320DA6E16C0DFFF224A232A3F
:103E3000060E0D6E610E0C6E22C00EF023C00FF048
:103E400062EC2AF0000903E00001D06B1200D6CF2B
:103E50000EF0D7CF0FF00F500D6E0E500C6E0CC041
:103E6000BBF00DC0BCF012000001D051D8B412005C
:103E7000D6CF0EF0D7CF0FF00F500D6E0E500C6E48
:103E80000001BB510C5EBC510D5A0A0E0C5C3D0E7C
:103E90000D58D8A01200D8D7010E0101566F0001AD
:103EA000DC6BDA6B526A4C6A4D6AE46B0101146B8D
:103EB000156B126B136B0001C16BC26BD16BD06BB6
:103EC000516ADB6B81EC2CF0D08E9280010E0F01D9
:103ED0005D6F5C6B300E5B6FF19E8A908A9293905F
:103EE0009392948289929292899492948B969496CA
:103EF0008A988A9A8A8C8A8E938A939C939E9386B8
:103F0000786A0E017E699488830EC216F80EC11677
:103F1000C196C150CF0B1009C16EC08EC70EC0161E
:103F2000C050F80B0509C06EC280949C948E7D6AC7
:103F3000220EAF6EAC8AAC84AC98A786AB889F8A01
:103F40009E9A9D8A9E989D98AB8ED59ED59CD59A1B
:103F5000070ED512D596D76AD66AF194F294D58E0B
:103F6000CD90CD823F0ECD16CD96300ECD129F80D6
:103F70009E909D80FC0ECA16870ECA16CC6A220E31
:103F8000CB6E9F929E92F28CF28EC282D38ED180A3
:103F9000D188D18E040081BA59D051EC2EF00D6A2F
:103FA0000C6AFF0E0E6876EC2DF051EC2EF00D6AC7
:103FB000010E0C6EFF0E0E6876EC2DF051EC2EF01B
:103FC0000D6A020E0C6EFF0E0E6876EC2DF051ECB1
:103FD0002EF00D6A030E0C6EFF0E0E6876EC2DF0BF
:103FE00051EC2EF00D6A040E0C6EFF0E0E6876EC8E
:103FF0002DF051EC2EF00D6A050E0C6EFF0E0E68C2
:1040000076EC2DF051EC2EF00D6A060E0C6EFF0EC4
:104010000E6876EC2DF051EC2EF00D6A070E0C6E4A
:10402000FF0E0E6876EC2DF051EC2EF00D6A080EA6
:104030000C6EFF0E0E6876EC2DF051EC2EF00D6A32
:10404000180E0C6EFF0E0E6876EC2DF00CEC27F0BF
:1040500047EC28F0000903E1010E0001DC6F000EBF
:104060003F6A3E6A55EC18F00001CA511FE052EC5D
:104070002CF00101556F14D05551A2EC07F008D176
:1040800055513DEC23F001015551EDEC1AF000D1F2
:1040900055512BEC1DF0010155514DEC21F0F8D09C
:1040A0004E50010AE9E0030AEBE0F2D79DB8F0D0E8
:1040B000060E3F6E610E3E6E55EC18F03EC053F199
:1040C0003FC054F101015451531101E1E1D050BA04
:1040D0000AD0060E0D6E610E0C6E53C10EF054C167
:1040E0000FF062EC2AF00001E35101E1C4D00101BC
:1040F000516B526BBAD00001E15101E187D001014F
:104100005251511101E182D0D6CF0EF0D7CF0FF02E
:104110000F500D6E0E500C6E0CC04CF10DC04DF1D9
:10412000090E01013C6F3D0E3D6F3E6B3F6BE1C0E0
:1041300040F1416B426B436B40513C03F3CF44F180
:10414000F4CF45F1466B476B3D03F3504527F450E0
:104150004623000E472341513C03F3504527F450BA
:104160004623000E472340513E03F3504627F450A8
:10417000472341513D03F3504627F4504723425112
:104180003C03F3504627F45047233F514003F3507C
:10419000472741513E03F350472742513D03F35017
:1041A000472743513C03F350472744C10CF045C116
:1041B0000DF046C10EF047C10FF0E80E106E030E71
:1041C000116E000E126A136AE2EC2BF00CC048F17B
:1041D0000DC049F10EC04AF10FC04BF148C14EF17C
:1041E00049C14FF101D00400D6CF0EF0D7CF0FF068
:1041F0000F500D6E0E500C6E01014C510C5E4D5166
:104200000D5A4E510C5D4F510D59EDE3610E0101F8
:104210005125D96E060E5221DA6EDF502D6F010E38
:10422000236E2D0E226E256A010E246E85EC15F08C
:10423000010E010151253C6F000E52213D6F53517B
:104240003C5D54513D59010ED8A0000E506F5051A5
:1042500027EC0DF000091CE10101506704D02D1D71
:104260001019111115E1514B522B5351515D5451FD
:1042700052590EE240D7060E236E610E226E53C1D4
:1042800024F054C125F085EC15F0010E27EC0DF05B
:104290001DEC2CF0D6EC2DF0E2D60001886FCA6739
:1042A00001D01200D16722D09DB820D0060E3F6EFB
:1042B000610E3E6E55EC18F03EC089F03FC08AF0AA
:1042C00000018A51891112E050BA0AD0060E0D6E13
:1042D000610E0C6E89C00EF08AC00FF062EC2AF0FD
:1042E000010E0001D16FD56BBD6BBE6BD151D8B43F
:1042F0001200DA6B060E8D6F640E8C6F61C6E8FFDC
:104300003F0B916F916706D064C691F0060E8D6FDA
:10431000650E8C6F62C68FF063C690F0BE51BD1102
:104320006AE1070E915D29E20D6AF20E0C6E0F6ACA
:104330000E6A116A0B0E106EF3EC2DF0000E0001E8
:104340009011F26F060EF36FF451F00B0809F46F41
:104350008FC0F5F091C0F6F00D6AF70E0C6E8DC0AF
:104360000FF08CC00EF091C010F0116AAFEC2CF081
:1043700002EC2DF00001D16B12000D6AF20E0C6EF2
:104380000F6A0E6A116A0B0E106EF3EC2DF0000E20
:1043900000019011F26F060EF36FF451F00B080953
:1043A000F46F8FC0F5F0100EF66F91C0F7F00D6A44
:1043B000F80E0C6E8DC00FF08CC00EF0116A050E59
:1043C000106EAFEC2CF0050E0001BD27000EBE23D1
:1043D00002EC2DF0010E0001D46FFE6FD6CF0EF06F
:1043E000D7CF0FF00F500D6E0E500C6E0CC00AF1AF
:1043F0000DC00BF11200D4515CE0885141E0786BA4
:104400007969E7C07AF0E8C07BF078517A17795182
:104410007B177B51060A7A1133E1E9510F0B786F54
:10442000040E785D2DE38F51E7632AD0905120EE82
:10443000EAF0DF6225D0EBC078F0F00E7817785103
:10444000300A10E01DD0D46B17D0D6CF0EF0D7CFE6
:104450000FF00F500D6E0E500C6E0CC00AF10DC017
:104460000BF10AD0EB510F0B786F796B795104E1A6
:104470007851E9E0010AE9E0ECC0D2F0EDC0D3F0F8
:104480000001D451D8B41200D6CF0EF0D7CF0FF020
:104490000F500D6E0E500C6E01010A510C5E0B5147
:1044A0000D5A0A0E00010C5D3D0E0D59D8A01200E8
:1044B00061D7D55172E0090E786F3D0E796F7A6B36
:1044C0007B6BD3C07CF07D6B7E6B7F6B7C51780304
:1044D000F3CF80F0F4CF81F0826B836B7903F350DC
:1044E0008127F4508223000E83237D517803F350FB
:1044F0008127F4508223000E83237C517A03F350EA
:104500008227F45083237D517903F3508227F4509E
:1045100083237E517803F3508227F45083237B5109
:104520007C03F35083277D517A03F35083277E5118
:104530007903F35083277F517803F350832780C09A
:104540000CF081C00DF082C00EF083C00FF0E80EB9
:10455000106E030E116E000E126A136AE2EC2BF05D
:104560000CC084F00DC085F00EC086F00FC087F03F
:10457000D6CF0EF0D7CF0FF00F500D6E0E500C6E41
:10458000010108510C5E09510D5A00010C51845D66
:104590000D518559D8B01200D56B0D6AF20E0C6E14
:1045A0000F6A0E6A116A0B0E106EF3EC2DF0000EFE
:1045B00000019011F26F060EF36FF451F00B080931
:1045C000F46F8FC0F5F0FE510F0B2009F66FBD514F
:1045D000915D8E6F060E8E6501D08E6F0D6AF70E9F
:1045E0000C6E8CC078F08DC079F0BD517827BE512B
:1045F000792378C00EF079C00FF08EC010F0116AE8
:10460000AFEC2CF000018E51BD27000EBE23FE2B17
:1046100002EC2DF000019151786F796B7851BD5DFE
:104620007951BE5901E3A6D6D46BD25112E0D2051E
:104630000EE1010ED46FD6CF0EF0D7CF0FF00F5092
:104640000D6E0E500C6E0CC00AF10DC00BF1000186
:10465000D207D4671200D351D8B41200010ED56F1F
:10466000D6CF0EF0D7CF0FF00F500D6E0E500C6E50
:104670000CC008F10DC009F112001D6E0001CA67DF
:1046800001D012001D5001E18AD1DA6BB651E81950
:1046900002E1B551E71901E033D1E9510F0B01E116
:1046A0002FD1EA390F0B1E6E23D1EA510F0B226E68
:1046B0002250166E176A18681968E9510F0B1A6EA6
:1046C0001B6A18501A2619501B221B50800A1C6E98
:1046D00016501A5C1750800A1C5801E211D1010EC5
:1046E00001012D6F2E6B22C02FF1010E0D6E300EC9
:1046F0000C6E0F6A0001EB0E0E6E22C010F0116AF4
:10470000AFEC2CF02250030F216E0101010E0D6E53
:104710002D0E0C6E21C00EF00F6A09EC2EF0166EF5
:1047200001012D0E2124D96EDA6A010EDA2216C09B
:10473000DFFF212A0D6E2D0E0C6E21C00EF00F6AC8
:1047400062EC2AF0DDD0D05101E0DAD0E9510F0B54
:10475000166E080E165C01E2D3D0EA510F0B546EB0
:10476000EB51536EFD0E535C040E545801E3C8D058
:10477000060EBA6F640EB96FBAC00DF0B9C00CF076
:104780000F6AEC0E0E6E116A060E106EAFEC2CF076
:104790004B6A060E4A6E010E0001CC6F0D6AF20ED6
:1047A0000C6E0F6A0E6A116A0B0E106EF3EC2DF090
:1047B000B7C0F2F0B8C0F3F00001F451F00B0809F3
:1047C000F46F300EF56FC7C0F6F0C8C0F7F0C7C081
:1047D000CEF0010ED06FF29EC1C025F0C2C026F00F
:1047E000F28E040E5324166E000E5420176E0A0E1D
:1047F000186E050E196E2550185E2650195A16505F
:10480000185C1750195803E2D6EC2DF0E4D702ECEF
:104810002DF0D6CF0EF0D7CF0FF00F500D6E0E50FB
:104820000C6E0CC0BBF00DC0BCF06AD0D05168E07B
:10483000CCC016F00F0E1616EA510F0B161860E1D9
:104840004A50535C236E4B505458246E080E235C20
:10485000000E245803E3246A070E236E16681768B7
:10486000E9510F0B186E196A1650182617501922A5
:104870002350185C2450195843E34A50B9250C6E54
:104880004B50BA210D6E0F6AEB0E0E6E23C010F066
:1048900024C011F0AFEC2CF023504A2624504B22B8
:1048A0000001CC2BCE51B5E053504A5C54504B58CC
:1048B000B0E2CE07CE67ADD70D6AF20E0C6E0F6A6E
:1048C0000E6A116A0B0E106EF3EC2DF0B7C0F2F009
:1048D000B8C0F3F00001F451F00B0809F46F300E8A
:1048E000F56FC7C0F6F0C8C0F7F0C7C0CEF08FD7DD
:1048F0001E5001E1DAD6010A01E125D7030A96E04C
:104900000001D051D8B4120053504A5C54504B5857
:10491000D8A01200030E53241F6E000E5420206EE8
:10492000010EE8CF61F654C016F016C017F0186AF1
:1049300017C062F626EE63F053C0DFFF060E0D6E61
:10494000610E0C6E1FC00EF020C00FF009EC2EF0AF
:10495000166E610E1F24D96E060E2020DA6E16C068
:10496000DFFF1F4A202A060E0D6E610E0C6E1FC05F
:104970000EF020C00FF062EC2AF0000903E0000105
:10498000D06B1200D6CF0EF0D7CF0FF00F500D6EB8
:104990000E500C6E0CC0BBF00DC0BCF01200D0511C
:1049A000D8B41200D6CF0EF0D7CF0FF00F500D6E47
:1049B0000E500C6E0001BB510C5EBC510D5A0A0E1C
:1049C0000C5C3D0E0D58D8A01200D9D79DBA9EAAF6
:1049D00010D1ABCF01F0060E011603E0AB98AB8807
:1049E00049D1AECF08F00001E66BFE0ECF6E0C0E83
:1049F000CE6E9E90CD80E45143E1F4D04C6A4D6A76
:104A0000610E4C24D96E0B0E4D20DA6E08C0DFFF0C
:104A10004C4A4D2AE56B010E526E130E4C5C010E92
:104A20004D5825E2610E4C24D96E0B0E4D20DA6EE6
:104A300008C0DFFF4C4A4D2A1AD008504F0A01E047
:104A400019D1E52B17D108504B0AFBE0E56B12D1C9
:104A500008500D0AFAD708500A0A04E1CD909E903A
:104A6000020EAFD008500D0A01E104D1EFD7E55195
:104A7000E4E0010AE8E0030AEBE0010AECE0FAD026
:104A80005250BCE0010AC9E0F5D04C6A4D6A610E93
:104A90004C24D96E0B0E4D20DA6E08C0DFFF4C4A55
:104AA0004D2A08C0E5F0010E8CD0130E4C5C010EAF
:104AB0004D580AE2610E4C24D96E0B0E4D20DA6E71
:104AC00008C0DFFF4C4A4D2A040E4C5C000E4D58C6
:104AD00001E285D061CBE8FF00094BE059D0080E18
:104AE0004C5C000E4D5810E32BEE68F0DF5067CBA6
:104AF00001F001C002F0036A02C003F0026A02265C
:104B0000000E0322090E2CD0066A076A3DD00A0E59
:104B10004C5C000E4D58F8E32BEE6AF0DF5069CB89
:104B200001F001C002F0036A02C003F0026A02262B
:104B3000000E03220B0E14D00D0E4C5C000E4D58CF
:104B4000E3E32BEE6DF0DF506CCB01F001C002F01F
:104B5000036A02C003F0026A0226000E03220E0E50
:104B60000224066E000E0320076E0ED0030E526E56
:104B70000BD02BEE62F0DF50B2E0010AC8E0030A6E
:104B8000C6E0010AD9E0F2D75250030A73E013D00D
:104B900061CBE8FF3F0B066E076A0750061007E17E
:104BA00064CB01F0050E0124066E076A02D0040EE4
:104BB0000626000E0722140E065C010E075803E3BA
:104BC000030E526E57D00750061009E006504C5C99
:104BD00007504D5804E3E5510818F2E13FD708505B
:104BE000E52748D0525001E150D7010A01E15DD7D5
:104BF00041D09DB89EA81ED00001C251C11102E152
:104C00009D9838D0570E01011225D96E010E13213F
:104C1000DA6EDF50AD6E124B132B0001C107D8A026
:104C2000C2070A0E0101125D050E135923E3126B30
:104C3000136B20D09DB09EA01DD0650E4C5C000E65
:104C40004D580CE3640E0001E65D0AE2E62BFE0E11
:104C5000CF6E0C0ECE6E9E90CD800CD00001E66B18
:104C6000CD909E9002D0526A05D05250010AFBE0CE
:104C7000020AF9E005C0DAFF04C0D9FF1100DE6BBB
:104C8000B151020AB211B311B41101E0010CF29E4C
:104C9000CD909E90CF6ACE6A526ADA6B040082A2EF
:104CA00082B205D082A282B202D082A2CD80CDB0E3
:104CB0000DD09EAA02D0F28E000CF2A4EFD7F2948F
:104CC0000001DA2B100EDA65E9D71ED01D6A02D07A
:104CD0009EB01AD082B282A2FBD782B282A2F8D74B
:104CE00082B203D0F5D79EB00FD082A282B2FBD79A
:104CF00082A282B2F8D782B2F6D71D2A030E1D64B3
:104D0000E9D705D09EA003D0CD909E90D4D782B293
:104D100082A2F8D782B282A2F5D782A2F3D7CD9031
:104D20009E90400E0C6E540E0D6E890E0E6E0F6A24
:104D3000CE50196ECF501A6E1B6A1C6AD890193467
:104D4000106E1A34116E1B34126E1C34136EE2ECAA
:104D50002BF00CC01EF00DC01FF00EC020F00FC0D5
:104D600021F0A00E196E0F0E1A6E1B6A1C6A1950E4
:104D70001E5C1A501F581B5020581C50215805E229
:104D80001E6A1F6A206A216A09D0A90E1E5C610E84
:104D90001F58000E2058000E2158F2E2ACA2FED798
:104DA0001EC019F01FC01AF020C01BF021C01CF05B
:104DB0000A0E05D0D8901C321B321A321932E82E56
:104DC000F9D71950AD6EACA2FED71EC019F01FC0A6
:104DD0001AF020C01BF021C01CF0D8901C321B32EE
:104DE0001A3219321950AD6EACA2FED721501E10E6
:104DF0001F10201001E15FD71EC0B1F01FC0B2F03C
:104E000020C0B3F021C0B4F00001DD5102E0020E79
:104E1000DE6FE36BF28E010C7FB2FED7000E0D6ADF
:104E20000C6A31EC2EF0296E0D6A010E0C6E31EC1D
:104E30002EF0266E0001CB69DB6B291C2618D8B436
:104E400029C0CBF00D6A020E0C6E31EC2EF0296EEB
:104E50000D6A030E0C6E31EC2EF0266E0001C36B52
:104E6000291C2618D8B429C0C3F00D6A040E0C6E94
:104E700031EC2EF0296E0D6A050E0C6E31EC2EF021
:104E8000266E0001D66B291C2618D8B429C0D6F08E
:104E9000C7EC27F00D6A060E0C6E31EC2EF0296E71
:104EA0000D6A070E0C6E31EC2EF0266E010E01011C
:104EB0001A6F291C261803E12904D8B41A6B010EB5
:104EC0000D6E370E0C6E0F6A0E6A116A040E106EAC
:104ED000F3EC2DF0256A276A080E27240C6E0D6A64
:104EE000000E0D2231EC2EF0296E2F0E296413D006
:104EF000390E296401D00FD02728256E0101370E05
:104F00002724D96EDA6A010EDA2229C0DFFF272AA8
:104F1000030E2764E1D7040E255C0EE20101010EA9
:104F20000D6E370E0C6E0F0E0F6E240E0E6E116A84
:104F3000040E106EAFEC2CF0286A180E28240C6EAC
:104F40000D6A000E0D2231EC2EF0296E286603D07A
:104F50002928D8B4296A01011D0E2824D96EDA6ADD
:104F6000010EDA2229C0DFFF282A0F0E2864E5D7B8
:104F70001D670F0C010E0D6E1D0E0C6E0F0E0F6EC9
:104F80001B0E0E6E116A090E106EAFEF2CF0050E9F
:104F90001C6E060E1E6E1D6A070E206E1F6A010E25
:104FA000226E300E216E070E246E23680001CD6B39
:104FB00045D0CA6B49D0050E01D0010E1C6E010E02
:104FC000CA6F42D0DB51F7E0010AF5E0F2D7CB51CE
:104FD000F0E0010AF0E0080AF0E0F60AF3E0EBD7AF
:104FE000010ECA6FC451090A23E1010E1C6E20D0C4
:104FF000020E1E6E000E1D6E070E206E000E1F6E3E
:10500000030E226E000E216E070E246E000E236E1C
:105010001BD0B5C01DF0B6C01EF0070E206E1F6875
:10502000B5C021F0B6C022F0070E246E23680CD064
:105030004E50010ADDE0030AECE006D05150C7E013
:10504000010AB7E0030ACCE0CA511FE01C0403E1E7
:10505000040E0D6E01D00D6A280E0E6E060E0F6E38
:10506000010E106E1DC011F01EC012F01FC013F013
:1050700020C014F021C015F022C016F023C017F094
:1050800024C018F0400EBDEF28F04BEF2EF0D0A852
:10509000010CF29E010E0001E46F526AF28ED6CF2F
:1050A0000EF0D7CF0FF00F500D6E0E500C6E0CC0DF
:1050B00087F00DC088F003D004001DEC2CF0D6CF93
:1050C0000EF0D7CF0FF00F500D6E0E500C6E00018A
:1050D00087510C5E88510D5A090E0C5C3D0E0D581F
:1050E000EBE3010E896F01011A511FE0DAEC2CF09D
:1050F000000902E10001896B2AEC2DF00009D8B407
:10510000896B895112E051EC2EF00D6A060E0C6E7F
:10511000010E0E6E76EC2DF051EC2EF00D6A070E9E
:105120000C6EFE0E0E6E76EC2DF00CEC2BF00009E2
:1051300002E10001896B0BEC2AF0000902E1000199
:10514000896B0001896712D051EC2EF00D6A060EB2
:105150000C6EFF0E0E6876EC2DF051EC2EF00D6A01
:10516000070E0C6EFF0E0E6876EC2DF0F29E00011D
:10517000E46B526AF28E895112001B6E800E42EC73
:105180002EF0830E726E0E017D6B606A0F01306B24
:1051900013C019F014C01AF0D8901A321932D890EE
:1051A0001A321932D8901A32193219500E01F86F8A
:1051B0001338E846E00BF96FFA6BFB6B11C019F07E
:1051C00012C01AF0D8901A321932D8901A32193205
:1051D000D8901A3219321950E06F1138E846E00BB6
:1051E000E16FFC0E791717C019F018C01AF0D890AB
:1051F0001A321932D8901A321932D8901A3219321A
:105200001950FC6F1738E846E00BFD6FFE6BFF6B23
:1052100015C019F016C01AF0D8901A321932D89069
:105220001A321932D8901A3219321950E46F1538DF
:10523000E846E00BE56F7951F30B0409796F716B68
:10524000726B736B030E466F476B1B500D10436FF1
:105250000E500F10C009446F10508009456F708ABE
:10526000000E42EF2EF0156A1350800A800F08E1FD
:10527000000E125C05E1000E115C02E1000E105CF4
:105280000AE2131E121E111E106C000E11221222B1
:105290001322010E156E0F50800A800F08E1000ED8
:1052A0000E5C05E1000E0D5C02E1000E0C5C0AE2F2
:1052B0000F1E0E1E0D1E0C6C000E0D220E220F2254
:1052C000010E151A166A176A186A196A1350101017
:1052D0001110121029E0010E146E06D0D89010366D
:1052E000113612361336142A13AEF8D7D890163664
:1052F00017361836193610500C5C11500D581250D4
:105300000E5813500F5809E310500C5E11500D5AEF
:1053100012500E5A13500F5A1680D8901332123270
:1053200011321032142EE2D7155008E0191E181E43
:10533000171E166C000E17221822192216C00CF028
:1053400017C00DF018C00EF019C00FF01200836BDB
:105350005ED079C00DF078C00CF07AC00EF07BC042
:105360000FF062EC2AF0000901E1000CD6CF0EF03C
:10537000D7CF0FF00F500D6E0E500C6E0CC07DF09D
:105380000DC07EF004001DEC2CF0060E3F6E610E89
:105390003E6E55EC18F03EC07FF03FC080F000013B
:1053A00080517F1121E0D6CF0EF0D7CF0FF00F50F4
:1053B0000D6E0E500C6E0CC081F00DC082F001D04D
:1053C0000400D6CF0EF0D7CF0FF00F500D6E0E5059
:1053D0000C6E000181510C5E82510D5A0D0E0C5C59
:1053E000030E0D58EDE3010CD6CF0EF0D7CF0FF022
:1053F0000F500D6E0E500C6E00017D510C5E7E51F3
:105400000D5A850E0C5C1E0E0D58BCE3832B7C518F
:10541000835DABE29ED7410EE8CF61F6540EE8CF34
:1054200062F62B0EE8CF63F64E0EE8CF64F6410E1F
:10543000E8CF65F64D0EE8CF66F6450EE8CF67F685
:10544000070E0001866F856B1D0E00018525D96E44
:10545000DA6A010EDA22DF50846F846701D00DD042
:10546000610E8625D96EDA6A060EDA2284C0DFFF65
:10547000862B852B0F0E8565E7D7610E8625D96EA5
:10548000DA6A060EDA22DF6A862B610E8625D96E6D
:10549000DA6A060EDA220D0EDF6E862B610E862585
:1054A000D96EDA6A060EDA220A0EDF6E862B060E37
:1054B000796F610E786F86C07AF07B6B030E7C6F1C
:1054C000A7EF29F00F500E1001E1010C0001DA6B7B
:1054D000F29EC1C014F0C2C015F0F28E14C010F0DC
:1054E00015C011F00E5010260F5011220B0E105C3B
:1054F000050E115801E3000C126A136A2CD00CC07F
:1055000010F00DC011F0125010261350112210C0CF
:10551000F6FF11C0F7FFF86A570E01011425D96E86
:10552000010E1521DA6E0E0EF76403D00800F55057
:1055300005D0F6CFE9FFF7CFEAFFEF50DF6E0101AC
:10554000144B152B0A0E145D050E155902E3146B4E
:10555000156B124A132A0E50125C0F501358CFE3EA
:10556000F29E0E500001C1270F50C2239D88F28E7B
:10557000010C0001B451B111B211B3110AE1CA9486
:10558000FC0ECA16870ECA16CC6A220ECB6EDF6BD3
:105590001200B1C01DF0B2C01EF0B3C01FF0B4C005
:1055A00020F01D50020A1E101F10201006E1800E70
:1055B0001D6E250E1E6E1F6A206ACA94CA50FC0B0F
:1055C0000109CA6E870ECA16400E0C6E420E0D6E91
:1055D0000F0E0E6E000E0F6A1DC010F01EC011F0EF
:1055E0001FC012F020C013F0E2EC2BF00CC019F039
:1055F0000DC01AF00EC01BF00FC01CF01950CB6E7E
:105600000001DF6BD890CB300F0F216ECB50215CA7
:10561000D8A021C0DFF01200410EE8CF61F6540E91
:10562000E8CF62F62B0EE8CF63F6500EE8CF64F6B3
:10563000490EE8CF65F64E0EE8CF66F6060E00017D
:10564000866F856B370E00018525D96EDA6A010EEB
:10565000DA22DF50846F846701D00DD0610E862579
:10566000D96EDA6A060EDA2284C0DFFF862B852B1C
:10567000030E8565E7D7610E8625D96EDA6A060EB8
:10568000DA220D0EDF6E862B610E8625D96EDA6A60
:10569000060EDA220A0EDF6E862B060E796F610E79
:1056A000786F86C07AF07B6B030E7C6FA7EF29F0D2
:1056B000176E17503F0B186E196A31D0090E182457
:1056C0000C6E000E19200D6E0F6A0A0E0E6E51EC54
:1056D0002DF00CC013F00DC014F0120018C013F020
:1056E00019C014F012000A0E1802F3CF15F0F4CF0F
:1056F00016F01902F350162615C013F016C014F058
:105700001200640E1802F3CF15F0F4CF16F0190250
:10571000F350162615C013F016C014F012001744EB
:10572000E846030B156E166A1650D8E11550C6E010
:10573000010AD4E0030AD7E0010AE3E0CFD70F0162
:1057400020B7000C11D0FCC02DFFFBC02CFFFAC00D
:105750002BFFF9C02AFFF8C029FFF7C028FFF6C0C9
:1057600027FFF5C026FF14D00001F4510F0B10E005
:10577000010AF7E0030AF3E0010AEFE0070AEBE0B1
:10578000010AE7E0030AE3E0010ADFE00F0ADBE0D9
:10579000F4C025FFF2C00CF0F3C00DF0D8900D322C
:1057A0000C32D8900D320C32D8900D320C320C5095
:1057B0000F01216F0001F239E846E00B0F01226F63
:1057C0002087010C146A156A166A176A13501010A4
:1057D0001110121029E0010E186E06D0D890103664
:1057E000113612361336182A13AEF8D7D89014365D
:1057F00015361636173610500C5C11500D581250D5
:105800000E5813500F5809E310500C5E11500D5AEA
:1058100012500E5A13500F5A1480D890133212326D
:1058200011321032182EE2D714C00CF015C00DF052
:1058300016C00EF017C00FF01200010156511EE005
:10584000D6CF0EF0D7CF0FF00F500D6E0E500C6E5E
:105850000CC010F00DC011F0840E105C1E0E11581B
:1058600003E28A8C8A9E0AD0090E105C3D0E115804
:1058700003E28A9C8A8E02D00101566B01015667B1
:105880001200525003E10001DC5102E08A9C01D079
:105890008A8C0001C251C11103E0DC6B8A9E1200A8
:1058A0008A8E120071AE000C6F50070B9009726E59
:1058B00060AE000C66CFEAF067CFEBF068CFECF09B
:1058C00069CFEDF06ACFEEF06BCFEFF06CCFF0F078
:1058D0006DCFF1F065CFE9F06238E842070B61CF98
:1058E0000CF00D6AD8900C360D36D8900C360D366B
:1058F000D8900C360D360C10E76F0D50E86F609E97
:10590000010C5150020A04E14E04D8B4B9EC2DF058
:105910000001B16BB26BB36BB46B506AE06BE16BBF
:1059200001011C6B0001DD6BDE6B01011069116967
:105930000001E36BE26B01011B6B166B4E6A010EFB
:105940000001C46FC66BC56BC96B0101006B016BB5
:105950000001B76BB86BB56BB66B4F6A12000FC026
:1059600015F00EC014F00DC013F00CC012F019D0D9
:1059700014C0F6FF15C0F7FFF86A12C0D9FF13C0B4
:10598000DAFF0E0EF76403D00800F55005D0F6CF0D
:10599000E9FFF7CFEAFFEF50DF6E144A152A124AEB
:1059A000132A1006D8A011061028D8B41128D8B48C
:1059B0001200DED7AFCF84F07DCF85F0AB9E010E15
:1059C0007D6E9F0EAF6EAB8E0F0E0001796F100EC5
:1059D000786F7B6B0A0E7A6F020E7C6FA7EC29F052
:1059E000AB9E85C07DFF84C0AFFFAB8E0F0E000164
:1059F000796F100E786F7B6B0A0E7A6F020E7C6FD8
:105A0000A7EF29F0D6CF0EF0D7CF0FF00F500D6EC5
:105A10000E500C6E0CC012F00DC013F015D0040027
:105A20001DEC2CF0D6CF0EF0D7CF0FF00F500D6E2F
:105A30000E500C6E12500C5E13500D5A430E0C5C3F
:105A40000F0E0D58D8B012009FEC2BF00009D8A40F
:105A50001200E5D7010E0001846F866B8651010F9D
:105A6000496E49C0F6FF0F0EF76E0800F5CF85F0BE
:105A7000796F85C078F085511EEC2EF00CC07AF05D
:105A80000DC07BF0030E7C6FA7EC29F0000902E14A
:105A90000001846B0001862B010E8665DFD78451DF
:105AA0001200116A126A0F500E101BE0010E106EE8
:105AB00004D0D8900E360F36102A0FAEFAD7D890F1
:105AC000113612360E500C5C0F500D5805E30E5077
:105AD0000C5E0F500D5A1180D8900F320E32102EDE
:105AE000EED711C00CF012C00DF012000DC00FF077
:105AF0000FC010F0116A1050030B756E0CC074FFCC
:105B00000EC073FF7F9E7F9C7F84000EF2BE010E4D
:105B1000126EF29E550E7E6EAA0E7E6E7F827FB250
:105B2000FED712B002D0F29E01D0F28E7F94120006
:105B300001EE57F01BEE1DF0EE6AE550E150FCE17E
:105B4000E250FAE101EE00F03C0EEE6AE806FDE1FB
:105B500000EEB1F04E0EEE6AE806FDE100EE4AF00E
:105B60000B0EEE6AE806FDE1000EF86E00014CEF48
:105B70001FF0020E4F6418D00D6A0001F20E0C6E79
:105B80000F6A0E6A116A0B0E106EF3EC2DF0BFC097
:105B9000F2F0C0C0F3F00001F451F00B0109F46F12
:105BA000A80EF56F02EC2DF04F6A12000400F2A46B
:105BB00003D0F2940001DA2B020E0001DA65020C28
:105BC000010E0C6ECA5106E0776A71AE02D00C6A03
:105BD00001D076820C50D8B41200DA6BD190030059
:105BE000D180769212000DC013F00CC012F008D0D4
:105BF00012C0D9FF13C0DAFF0EC0DFFF124A132A0A
:105C00001006D8A011061028D8B41128D8B4120054
:105C1000EFD7106A116A126A0AD011500C24D96E9B
:105C200012500D20DA6EDF501026114A122A0E5043
:105C3000115C0F501258F1E3105012000E6E0EC09E
:105C40000FF001D00F2A0FC0F6FF0F0EF76E0800FD
:105C5000F550F8E10E500F5C0C6E0D6A0CBE0D068F
:105C600012000DC00EF00EC00FF0106A0F50030BA3
:105C7000756E0CC074FF7F9C7F9E7F8000F000F0EB
:105C8000735012000C6E0CC06FFF6E50E00B0C18BE
:105C9000D8B41200FAD7800E42EC2EF0200E6E6EB1
:105CA000200C7FA21200FDD771B0010C000CFFFF89
:105CB000FFFFFFFFFFFFFFFFFFFFFFFFFFFFFFFFF4
:105CC000FFFFFFFFFFFFFFFFFFFFFFFFFFFFFFFFE4
:105CD000FFFFFFFFFFFFFFFFFFFFFFFFFFFFFFFFD4
:105CE000FFFFFFFFFFFFFFFFFFFFFFFFFFFFFFFFC4
:107FF000FFFFFFFFFFFFFFFFFFFF0A000300942FBB
:020000040020DA
:08000000FFFFFFFFFFFFFFFF00
:020000040030CA
:0E0000001413461EFF8981FF0FC00F800F40B2
:00000001FF
