:1008000027EF04F0FFFFFFFFD9CF04F0DACF05F0A8
:1008100009EF25F0FFFFFFFFD8CF09F0E8CF0AF07E
:10082000E0CF0BF0F2A402D0F2940AD09EA202D044
:100830009E9206D0765004E0775002E0766A776A9E
:100840000BC0E0FF0AC0E8FF09C0D8FF100025EF89
:100850002DF0FFFFFFFFFFFFFFFFFFFFFFFFFFFF89
:10086000FFFFFFFFFFFFFFFFFFFFFFFFFFFFFFFF98
:10087000FFFFFFFFFFFFFFFFFFFFFFFFFFFFFFFF88
:10088000FFFFFFFFFFFFFFFFFFFFFFFFFFFFFFFF78
:10089000FFFFFFFFFFFFFFFFFFFFFFFFFFFFFFFF68
:100F00000044656570204F424400313233340000A4
:100F10000001956F50502DE0CEEC2DF0000929E036
:100F20000001C2A324D0820EE8CF79F6F10EE8CFFB
:100F30007AF6E8CF7BF67F0EE8CF7CF6030EE8CF9B
:100F40007DF6060E0D6E790E0C6E0F6A050E0E6E96
:100F500096EC2DF00001816F81C07EF6060E0D6EBD
:100F6000790E0C6E0F6A060E0E6E38EC2BF0506A7E
:100F70001200505003E0090E50647ED09DB87CD022
:100F8000060E3F6E790E3E6E75EC18F03EC099F07D
:100F90003FC09AF000019A5199116EE0C2B10AD097
:100FA000060E0D6E790E0C6E99C00EF09AC00FF001
:100FB00038EC2BF0CEEC2DF0000904E0D8EC27F053
:100FC00046EC2DF00001C2A726D046EC2DF0820E93
:100FD000E8CF79F6F10EE8CF7AF6E8CF7BF67F0E10
:100FE000E8CF7CF6010EE8CF7DF6060E0D6E790E89
:100FF0000C6E0F6A050E0E6E96EC2DF00001816FDF
:1010000081C07EF6060E0D6E790E0C6E0F6A060E0E
:101010000E6E38EF2BF0C2A51BD0040E506418D012
:10102000820EE8CF79F6F10EE8CF7AF6E8CF7BF6BC
:101030007F0EE8CF7CF6000EE8CF7DF6060E0D6E33
:10104000790E0C6E0F6A050E0E6E96EC2DF0D6D74B
:10105000505005E026EE7AF0DF50D5190AE046EC54
:101060002DF0010E506E7AC6D5F00001B96BBA6B47
:1010700003D0050E506EF9D7505001E113D3000193
:10108000D76B10D30D6A0001F10E0C6E0F6A0E6A59
:10109000116A0B0E106E80EC2DF0020E0001F26F43
:1010A000F16BF351F00B0709F36FD5C0F4F0C00EEC
:1010B000F56FF66B100EF76FF86B030EF96F010EFC
:1010C000FA6FB6EC2CF00001D66BFE6B0101196BC8
:1010D000D6CF0EF0D7CF0FF00F500D6E0E500C6E16
:1010E0000CC0B7F00DC0B8F0020EB4D2D6CF0EF0DF
:1010F000D7CF0FF00F500D6E0E500C6E0001B75190
:101100000C5EB8510D5A1B0E0C5D060E0D5901E216
:10111000EBD2506AE9D20D6A0001F10E0C6E0F6A33
:101120000E6A116A0B0E106E80EC2DF0BBC0F1F050
:10113000BCC0F2F00001F351F00B0609F36FA00EF2
:10114000F46FC1C0F5F08A0EF66FF769C5C0F8F00C
:10115000F969B6EC2CF0D6CF0EF0D7CF0FF00F50C8
:101160000D6E0E500C6E0CC0B7F00DC0B8F0040E32
:1011700071D2060E0001976F7C0E966F79C6E8FF5C
:101180003F0BA36FA36706D07CC6A3F0060E976F34
:101190007D0E966F0D6AF10E0C6E0F6A0E6A116A63
:1011A0000B0E106E80EC2DF0BBC0F1F0BCC0F2F065
:1011B0000001B951A35DA16FBA51D8A0BA29A26BA1
:1011C000A25FBA51B91108E10101186B0001F56B7A
:1011D000A3C0F6F0030E01D0010EA46F080E816FBC
:1011E000826BA451815F000E825BA151815DA2518F
:1011F000825908E2A4510808A16F000ED8A0E82A7D
:101200000008A26F9D6B14D09D519625816F000E32
:101210009721826FB9518125D96EBA518221DA6E38
:101220009D51F40FA425E16EE26ADFCFE7FF9D2B0D
:101230009D51816F826BA151815DA2518259E4E37E
:10124000A451A125816FF319F00B8119F36FA151FE
:10125000B927A251BA23A351816F826B8151B95D25
:101260008251BA5904E3010E986F080E17D001019C
:10127000182B0001D4510AE0D4510101185D06E396
:101280000001986B0101186B070E08D0020E0001D7
:10129000986F01010F510E1102E0060E506ED6C07C
:1012A00081F00F0E000181179839F00B8111F46F56
:1012B000D6290F0BD66FB6EC2CF0D6CF0EF0D7CFC9
:1012C0000FF00F500D6E0E500C6E0CC0B7F00DC02D
:1012D000B8F00AD2090E0001816F3D0E826F836B58
:1012E000846B01010E510001856F01010F51000156
:1012F000866F876B886B85518103F3CF89F0F4CFBC
:101300008AF08B6B8C6B8203F3508A27F4508B230B
:10131000000E8C2386518103F3508A27F4508B23CF
:10132000000E8C2385518303F3508B27F4508C23BC
:1013300086518203F3508B27F4508C23875181030D
:10134000F3508B27F4508C2384518503F3508C2762
:1013500086518303F3508C2787518203F3508C27E7
:1013600088518103F3508C2789C00CF08AC00DF09E
:101370008BC00EF08CC00FF0E80E106E030E116ED5
:10138000000E126A136AC0EC2BF00CC08DF00DC079
:101390008EF00EC08FF00FC090F0D6CF0EF0D7CFEA
:1013A0000FF00F500D6E0E500C6E0001B7510C5C1B
:1013B000916FB8510D58926F936B946B8D51915DF5
:1013C0008E5192598F5193599051945901E28CD179
:1013D000050E40D153504C5C54504D5801E283D01F
:1013E000400E535C000E545811E3800EE8CF79F69E
:1013F000000EE8CF7AF626EE7BF00001D5C0DFFFC5
:1014000026EE7CF053C0DFFF040E0FD053C081F0F6
:10141000800E0001811381C079F6000EE8CF7AF6C4
:1014200026EE7BF0D5C0DFFF030E53249E6F000E27
:1014300054209F6F060E0D6E790E0C6E9EC00EF03E
:101440009FC00FF096EC2DF00001816F790E9E2564
:10145000D96E060E9F21DA6E81C0DFFF9E4B9F2B57
:10146000060E0D6E790E0C6E9EC00EF09FC00FF032
:1014700038EC2BF0000901E137D1010119510EE0E0
:10148000D6CF0EF0D7CF0FF00F500D6E0E500C6E62
:101490000CC0B7F00DC0B8F00A0EDCD0820EE8CF59
:1014A00079F6F10EE8CF7AF6E8CF7BF67F0EE8CF3B
:1014B0007CF6020EE8CF7DF6060E0D6E790E0C6EF0
:1014C0000F6A050E0E6E96EC2DF00001816F81C043
:1014D0007EF6060E0D6E790E0C6E0F6A060E0E6EFF
:1014E00038EC2BF0CDD7D6CF0EF0D7CF0FF00F5072
:1014F0000D6E0E500C6E0001B7510C5EB8510D5AB6
:101500001B0E0C5D060E0D5901E2EED046EC2DF0DF
:10151000EBD0090E0001816F3D0E826F836B846BEF
:10152000010100510001856F010101510001866F29
:10153000876B886B85518103F3CF89F0F4CF8AF0F4
:101540008B6B8C6B8203F3508A27F4508B23000E35
:101550008C2386518103F3508A27F4508B23000E8D
:101560008C2385518303F3508B27F4508C238651B1
:101570008203F3508B27F4508C2387518103F3505F
:101580008B27F4508C2384518503F3508C2786518C
:101590008303F3508C2787518203F3508C278851A3
:1015A0008103F3508C2789C00CF08AC00DF08BC0EA
:1015B0000EF08CC00FF0E80E106E030E116E000ED0
:1015C000126A136AC0EC2BF00CC08DF00DC08EF0C7
:1015D0000EC08FF00FC090F0D6CF0EF0D7CF0FF027
:1015E0000F500D6E0E500C6E0001B7510C5C916FD8
:1015F000B8510D58926F936B946B8D51915D8E51D4
:1016000092598F519359905194596EE30D6AF10E8E
:101610000C6E0F6A0E6A116A0B0E106E80EC2DF0C4
:10162000BBC0F1F0BCC0F2F00001F351F00B0109B6
:10163000F36FA30EF46FB6EC2CF0D6CF0EF0D7CF2D
:101640000FF00F500D6E0E500C6E0CC0B7F00DC0A9
:10165000B8F00B0E506E48D046D7D6CF0EF0D7CF8D
:101660000FF00F500D6E0E500C6E0001B7510C5E56
:10167000B8510D5A1B0E0C5D060E0D5901E346D7ED
:1016800033D0D6CF0EF0D7CF0FF00F500D6E0E50D7
:101690000C6E0001B7510C5EB8510D5A1C0E0C5D5A
:1016A000B70E31D7505020E0010A01E1EBD4030A14
:1016B00001E11CD5010A01E12ED5070A01E113D78A
:1016C000010A01E156D5030A01E104D6010A01E14C
:1016D0000AD70F0A01E107D7010A01E17BD6030A05
:1016E00001E117D7010ACDE000019551D8B41200ED
:1016F000816B020E826FD551836F846B815183277A
:1017000082518423E751841902E1E651831925E1CE
:10171000E8510F0B070A21E15050020AD8A4120029
:10172000EA51D00AD8B4ECB91200EEB91200EC516B
:1017300001010D6F0001EB5101010C6F0001EE5131
:10174000BC6FED51BB6F0F0ED46F000E01010F6F18
:101750000A0E0E6F030E506E030C020E5064020C44
:1017600001010D510001E71904E101010C510001D3
:10177000E619D8A41200E8510F0BD8B41200E951B1
:101780000F0BA06FE9390F0BA56F2CD1FE51A019DB
:1017900002E046EF2DF0A0290F0BFE6F5050090A12
:1017A0004CE050500A0A03E050500B0AF2E1E851B5
:1017B0000F0B816F030E815DD8A01200EB51EAC0C0
:1017C00081F0826B81C082F0816B8127000E8223C1
:1017D0008151536E7F0E8215546E010EEAAF000EDA
:1017E0000101196F000E535C010E5458D2E2400EF5
:1017F000535C000E545805E3060E0001B66F7D0ED3
:1018000004D0060E0001B66F7C0EB56FE8510F0BC9
:10181000FD0F9B6FB6C00DF0B5C00CF00F6AEC0E5B
:101820000E6E9BC010F0116A8BEC2CF000019BC077
:101830004CF04D6A090E506E1DD053504C5C545004
:101840004D58A7E2E8510F0B816F81059C6F4C50FA
:10185000B5250C6E4D50B6210D6E0F6AEA0E0E6E58
:101860009CC010F0116A8BEC2CF000019C514C26AE
:10187000000E4D22A50503E0A551030A05E15350D2
:101880004C5C54504D5885E3A55102E0A50519E183
:101890000D6AF10E0C6E0F6A0E6A116A0B0E106E55
:1018A00080EC2DF0BBC0F1F0BCC0F2F00001F351B0
:1018B000F00B0109F36FFE510F0BB009F46FB6EC9A
:1018C0002CF0D6CF0EF0D7CF0FF00F500D6E0E507C
:1018D0000C6E0CC0B7F00DC0B8F0120050500B0ADF
:1018E0000FE1D6CF0EF0D7CF0FF00F500D6E0E5088
:1018F0000C6E0CC0B7F00DC0B8F00A0E506E0A0C9A
:101900005050040AD8A41200E8510F0B060A09E14E
:10191000EAC0D4F0ED51F1EC2AF013C00EF114C07E
:101920000FF1C2A525D0820EE8CF79F6F10EE8CFEF
:101930007AF6E8CF7BF67F0EE8CF7CF6000EE8CF94
:101940007DF6060E0D6E790E0C6E0F6A050E0E6E8C
:1019500096EC2DF00001816F81C07EF6060E0D6EB3
:10196000790E0C6E0F6A060E0E6E38EC2BF0B9D79E
:10197000050E506E050C0D6AF10E0C6E0F6A0E6AA4
:10198000116A0B0E106E80EC2DF0BBC0F1F0BCC0E4
:10199000F2F00001F351F00B0609F36FA10EF46FA2
:1019A000C1C0F5F08A0EF66FF769C5C0F8F0F969A5
:1019B000B6EF2CF0E951A10A91E0020AD8A4120076
:1019C000DAD7A051D61901E0E4D67BD7A051D619B9
:1019D00001E0DFD65050080A84E05050070AD8A42E
:1019E0001200C6D7A55101E1D1D6010A01E1CED638
:1019F000030A01E1CBD6010A01E1C8D60A0AE1E0F7
:101A0000030AD8E0010AD8A41200E0D72C50050A36
:101A10002D1070E1810E2AC0D9FF2BC0DAFFDF62E2
:101A200069D020EE01F02A50D9262B50DA22DF505F
:101A300061E120EE02F02A50D9262B50DA22DF5045
:101A400059E12BC00DF02AC00CF02CC00EF02DC0B7
:101A50000FF038EC2BF020EE03F02A50D9262B5053
:101A6000DA22DF500001676FCBEC2DF0000E0D6A1B
:101A70000C6A67C00EF003EC2DF0CBEC2DF00D6A74
:101A8000010E0C6E0001671D0E6E03EC2DF01CECB8
:101A900027F020EE03F02A50D9262B50DA2200013D
:101AA000C81DDF6E2BC00DF02AC00CF0FF0E2C24D9
:101AB0000E6EFF0E2D200F6E96EC2DF02E6E2AC0AE
:101AC0002FF02BC030F02C502F262D503022FF0E3F
:101AD0002F24D96EFF0E3020DA6E2EC0DFFF2BC010
:101AE0000DF02AC00CF02CC00EF02DC00FF038EC19
:101AF0002BF0010C20EE01F02A50D9262B50DA22CF
:101B0000F10EDF62000C20EE02F02A50D9262B5095
:101B1000DA22F10EDF62000C2BC00DF02AC00CF0AF
:101B20002CC00EF02DC00FF038EC2BF02C50060A14
:101B30002D103DE120EE03F02A50D9262B50DA2259
:101B4000DF502E6E7F0E2E1632E120EE03F02A506B
:101B5000D9262B50DA22DF502E6E2EBE1ED020EE5C
:101B600004F02A50D9262B50DA22DF500001686F8A
:101B7000CBEC2DF00D6A020E0C6E68C00EF003EC7B
:101B80002DF0CBEC2DF00D6A030E0C6E0001681DDC
:101B90000E6E03EC2DF01CEC27F020EE04F02A5022
:101BA000D9262B50DA220001BFC0DFFF7BD72C5093
:101BB000060A2D103FE120EE03F02A50D9262B50C3
:101BC000DA22DF502E6E7F0E2E162E50010A32E1E1
:101BD00020EE03F02A50D9262B50DA22DF502E6E49
:101BE0002EBE1ED020EE04F02A50D9262B50DA2229
:101BF000DF500001696FCBEC2DF00D6A040E0C6E06
:101C000069C00EF003EC2DF0CBEC2DF00D6A050E43
:101C10000C6E0001691D0E6E03EC2DF01CEC27F01C
:101C200020EE04F02A50D9262B50DA220001D3C02E
:101C3000DFFF38D72C50060A2D103FE120EE03F0CD
:101C40002A50D9262B50DA22DF502E6E7F0E2E1608
:101C50002E50020A32E120EE03F02A50D9262B50F2
:101C6000DA22DF502E6E2EBE1ED020EE04F02A5057
:101C7000D9262B50DA22DF5000016A6FCBEC2DF011
:101C8000000E0D6A0C6A6AC00EF003EC2DF0CBEC6E
:101C90002DF00D6A010E0C6E00016A1D0E6E03EC34
:101CA0002DF01CEC27F020EE04F02A50D9262B5002
:101CB000DA220001C8C0DFFFF5D6060E2C5C000E4C
:101CC0002D5801E296D020EE03F02A50D9262B5051
:101CD000DA22DF502E6E7F0E2E162E50040A01E0FF
:101CE00088D020EE03F02A50D9262B50DA22DF507C
:101CF0002E6E2EBE4CD000016C6B0F0E6C6501D0A9
:101D000032D0656BFB0E2E6E2F682CC030F02DC0CC
:101D100031F02E5030262F5031226C51326E336A02
:101D20003050325C315033580EE26C512A242E6E02
:101D3000000E2B202F6E040E2E24D96E000E2F20A5
:101D4000DA6EDF50656FCBEC2DF0080E00016C25CC
:101D50000C6E0D6A000E0D2265C00EF003EC2DF026
:101D600000016C2BCAD7CBEC2DF00D6A060E0C6E61
:101D7000FF0E0E6803EC2DF0CBEC2DF00D6A070E74
:101D80000C6EFF0E0E6803EC2DF01CEC27F0040E19
:101D90002A240C6E000E2B200D6E0101010E0F6E19
:101DA0003A0E0E6E116A100E106E8BEC2CF02AC0DB
:101DB000D9FF2BC0DAFF910EDF6E2BC00DF02AC0C9
:101DC0000CF00F6A140E0E6E96EC2DF02E6E20EEB7
:101DD00014F02A50D9262B50DA222EC0DFFF2BC058
:101DE0000DF02AC00CF00F6A150E0E6E38EC2BF0B9
:101DF000010C060E2C5C000E2D5801E296D020EE50
:101E000003F02A50D9262B50DA22DF502E6E7F0E97
:101E10002E162E50050A01E088D020EE03F02A503D
:101E2000D9262B50DA22DF502E6E2EBE4CD0000168
:101E30006D6B1E0E6D6501D032D0666BFB0E2E6E83
:101E40002F682CC030F02DC031F02E5030262F508E
:101E500031226D51326E336A3050325C315033581A
:101E60000EE26D512A242E6E000E2B202F6E040ED2
:101E70002E24D96E000E2F20DA6EDF50666FCBEC69
:101E80002DF0180E00016D250C6E0D6A000E0D224E
:101E900066C00EF003EC2DF000016D2BCAD7CBEC21
:101EA0002DF00D6A060E0C6EFF0E0E6803EC2DF081
:101EB000CBEC2DF00D6A070E0C6EFF0E0E6803ECD6
:101EC0002DF01CEC27F0040E2A240C6E000E2B20A3
:101ED0000D6E0101010E0F6E1B0E0E6E116A1F0EAC
:101EE000106E8BEC2CF02AC0D9FF2BC0DAFFA00EAD
:101EF000DF6E2BC00DF02AC00CF00F6A230E0E6EA1
:101F000096EC2DF02E6E20EE23F02A50D9262B5081
:101F1000DA222EC0DFFF2BC00DF02AC00CF00F6AB2
:101F2000240E0E6E38EC2BF0010C2C50060A2D10EE
:101F30005CE120EE03F02A50D9262B50DA22FA0E6B
:101F4000DF6253D020EE04F02A50D9262B50DA223B
:101F5000FA0EDF624AD02AC0D9FF2BC0DAFF830E07
:101F6000DF6E20EE04F02A50D9262B50DA22000E24
:101F7000F36A0001C763F32AF3CF2EF02E50DF6E11
:101F8000CA6703D0636B646B03D0646B020E636F2C
:101F900020EE04F02A50D9262B50DA226351DF12AA
:101FA00020EE05F02A50D9262B50DA22010117C164
:101FB000DFFF2BC00DF02AC00CF00F6A060E0E6E6C
:101FC00096EC2DF02E6E20EE06F02A50D9262B50DE
:101FD000DA222EC0DFFF2BC00DF02AC00CF00F6AF2
:101FE000070E0E6E38EC2BF0010C2C50060A2D104B
:101FF00059E120EE03F02A50D9262B50DA22FB0EAD
:10200000DF6250D020EE04F02A50D9262B50DA227D
:10201000FB0EDF6247D02AC0D9FF2BC0DAFF890E42
:10202000DF6E200E0001626F616B606B6B6B070EE1
:102030006B6501D01BD060C0F6FF61C0F7FF62C0C6
:10204000F8FF6B512A242E6E000E2B202F6E040EEB
:102050002E24D96E000E2F20DA6E0800F5CFDFFF98
:10206000602B000E612362236B2BE1D72BC00DF098
:102070002AC00CF00F6A0C0E0E6E96EC2DF02E6E30
:1020800020EE0CF02A50D9262B50DA222EC0DFFF8A
:102090002BC00DF02AC00CF00F6A0D0E0E6E38EC3E
:1020A0002BF0010C2C50060A2D107DE120EE03F0E0
:1020B0002A50D9262B50DA22FC0EDF6274D020EE93
:1020C00004F02A50D9262B50DA22FC0EDF626BD0A6
:1020D000C282C2B2FED720EE04F02A50D9262B507D
:1020E000DA222C0E2E6E010E2F6E000E306A316A2F
:1020F000C3CF32F0C4CF33F033BEFF0E346E356E33
:1021000032502E02F3CF36F0F4CF37F0386A396A06
:102110002F02F3503726F4503822000E3922335064
:102120002E02F3503726F4503822000E3922325056
:102130003002F3503826F450392233502F02F35036
:102140003826F450392234502E02F3503826F450F9
:10215000392231503202F350392633503002F350D5
:10216000392634502F02F350392635502E02F350C1
:10217000392636C00CF037C00DF038C00EF039C02B
:102180000FF0106A100E116E000E126A136ACEEC78
:1021900028F00CC03AF00DC03BF00EC03CF00FC070
:1021A0003DF03A507ED42C50060A2D1052E120EE1C
:1021B00003F02A50D9262B50DA22FD0EDF6249D0D7
:1021C00020EE04F02A50D9262B50DA22FD0EDF62D1
:1021D00040D02AC0D9FF2BC0DAFF850EDF6E20EE7B
:1021E00004F02A50D9262B50DA22DF6A20EE05F0BF
:1021F0002A50D9262B50DA22050EDF6E20EE06F08B
:102200002A50D9262B50DA22DF6A20EE07F02A5016
:10221000D9262B50DA220A0EDF6E2BC00DF02AC011
:102220000CF00F6A080E0E6E96EC2DF02E6E20EE5E
:1022300008F02A50D9262B50DA222EC0DFFF2BC0FF
:102240000DF02AC00CF00F6A090E0E6E38EC2BF060
:10225000010C2C50060A2D1025E120EE03F02A5027
:10226000D9262B50DA22FE0EDF621CD020EE04F0BD
:102270002A50D9262B50DA22FE0EDF6213D020EE30
:1022800004F02A50D9262B50DA22010E82A8000E23
:10229000DF6E20EE04F02A50D9262B50DA22000EF1
:1022A000DB8E00D420EE03F02A50D9262B50DA2200
:1022B000FF0EDF62010C20EE04F02A50D9262B50CD
:1022C000DA22FF0EDF62010CFF00010C00019F6F9C
:1022D000790E7B6F060E7C6F7CC07BF07C6B7B5134
:1022E000AA6FAB6BAC6B060EAE6F790EAD6F060EC0
:1022F000B06F790EAF6F0101106911694B50481032
:1023000049104A1075E1F29EFDEC29F09E92F2947C
:10231000D76B040082A2CA84CAB438D09EAA02D065
:10232000F28E010CF2A408D0F2940001D72B100E0B
:10233000D76502D0F28E000C82A2CA840001AC5193
:10234000AB11D8A4ACA2E5D782A2CA84AFC0D9FF92
:10235000B0C0DAFFDF50AD6E82A2CA84AF4BB02BA3
:1023600082A2CA84AA51B05D976F82A2CA84975193
:10237000050A06E182A2CA84060EB06F790EAF6F1D
:1023800082A2CA84AB07D8A0AC07C3D70001D76B21
:102390008A9CA26BA46B9EA2FED79E9282A204D0BE
:1023A000D890A233A28F02D0D890A233A42B070ECC
:1023B000A465F1D7000EAB5D050EAC5914E2ADC0BB
:1023C000D9FFAEC0DAFFA2C0DFFFAD4BAE2BAB4BE7
:1023D000AC2BAA51AE5D986F9851050A04E1060E28
:1023E000AE6F790EAD6FCA94CC6A9E928A8C91D7EB
:1023F0004EEC26F000099FE0F29EFDEC29F09E9243
:10240000F294D76BD6CF0EF0D7CF0FF00F500D6EE2
:102410000E500C6E0CC09BF00DC09CF00400CAB4B2
:102420000ED082B20CD00001DD51D8B407D0DDC08F
:10243000CCFFCA849EA2FED79E9201D0CA84CAB4A1
:1024400047D39EBA6DD7F2A407D0F2940001D72BE0
:10245000100ED76501D06ED7CAB40ED082B20CD0A0
:102460000001DD51D8B407D0DDC0CCFFCA849EA2E4
:10247000FED79E9201D0CA840001AC51AB11D8A402
:10248000ACA2CCD7CAB40ED082B20CD00001DD51C0
:10249000D8B407D0DDC0CCFFCA849EA2FED79E92DE
:1024A00001D0CA84AFC0D9FFB0C0DAFFDF50AD6E33
:1024B0000001E25101E1C1D1AFC0D9FFB0C0DAFFE4
:1024C000DF500101106F116B00019F6702D0E16BBB
:1024D00031D7D6CF0EF0D7CF0FF00F500D6E0E5074
:1024E0000C6E00019B510C5CA06F9C510D58A16FAC
:1024F0009D6BA0517B6FA1517C6F7D6B7E6B090E34
:102500007F6F3D0E806F816B826BE3C083F0846BC5
:10251000856B866B83517F03F3CF87F0F4CF88F010
:10252000896B8A6B8003F3508827F4508923000E4F
:102530008A2384517F03F3508827F4508923000EA7
:102540008A2383518103F3508927F4508A238451CD
:102550008003F3508927F4508A2385517F03F35079
:102560008927F4508A2382518303F3508A278451A8
:102570008103F3508A2785518003F3508A278651BF
:102580007F03F3508A2787C00CF088C00DF089C004
:102590000EF08AC00FF0E80E106E030E116E000EE2
:1025A000126A136AC0EC2BF00CC08BF00DC08CF0DB
:1025B0000EC08DF00FC08EF000017B518B5D7C5101
:1025C0008C597D518D597E518E5903E2E16B010E7C
:1025D0009D6F640E7B6F7C6B7D6B7E6BA0517F6FFC
:1025E000A151806F816B826B7F517B03F3CF83F0AE
:1025F000F4CF84F0856B866B7C03F3508427F45012
:102600008523000E862380517B03F3508427F450EA
:102610008523000E86237F517D03F3508527F450D8
:10262000862380517C03F3508527F4508623815103
:102630007B03F3508527F45086237E517F03F350AC
:10264000862780517D03F350862781517C03F35008
:10265000862782517B03F350862783C00CF084C009
:102660000DF085C00EF086C00FF0090E106E3D0E05
:10267000116E000E126A136AC0EC2BF00CC0A6F0AB
:102680000DC0A7F00EC0A8F00FC0A9F0800E000189
:10269000A65D000EA759000EA859000EA95906E321
:1026A0007F0EA66F000EA76FA86FA96F9D51D8A4CB
:1026B000A68FE16708D0AFC0D9FFB0C0DAFFDF5006
:1026C000E16F01011A6B0001E15101011A5D05E39F
:1026D000ACA2FED7A6C0ADFF2DD61A2BF28E0001FC
:1026E000E05101E182D0D6CF0EF0D7CF0FF00F50DE
:1026F0000D6E0E500C6E0CC08FF00DC090F0090ED8
:1027000000017B6F3D0E7C6F7D6B7E6BE0C07FF0C8
:10271000806B816B826B7F517B03F3CF83F0F4CFAF
:1027200084F0856B866B7C03F3508427F4508523FB
:10273000000E862380517B03F3508427F4508523B9
:10274000000E86237F517D03F3508527F4508623A6
:1027500080517C03F3508527F450862381517B03FD
:10276000F3508527F45086237E517F03F35086274C
:1027700080517D03F350862781517C03F3508627D7
:1027800082517B03F350862783C00CF084C00DF088
:1027900085C00EF086C00FF0E80E106E030E116EAD
:1027A000000E126A136AC0EC2BF00CC087F00DC04B
:1027B00088F00EC089F00FC08AF087C091F088C001
:1027C00092F001D00400D6CF0EF0D7CF0FF00F500B
:1027D0000D6E0E500C6E00018F510C5E90510D5A13
:1027E00091510C5D92510D59EDE3ACA2FED7A6C0FC
:1027F000ADFF270EDE17AFC0D9FFB0C0DAFFDF1C78
:1028000001014A6F010E236E4A0E226E256A010EE7
:10281000246EA5EC15F0F29ED6CF0EF0D7CF0FF0B8
:102820000F500D6E0E500C6E0CC09BF00DC09CF046
:10283000FDEC29F09E92F294D76BCAB40ED082B20E
:102840000CD00001DD51D8B407D0DDC0CCFFCA8464
:102850009EA2FED79E9201D0CA840001DC5101E104
:10286000D2D0CAB40ED082B20CD00001DD51D8B49F
:1028700007D0DDC0CCFFCA849EA2FED79E9201D0B5
:10288000CA840001DC07CAB40ED082B20CD00001A9
:10289000DD51D8B407D0DDC0CCFFCA849EA2FED7DC
:1028A0009E9201D0CA840001DC67ADD09F5101E146
:1028B000AAD09E6BDFA109D0AFC0D9FFB0C0DAFFAC
:1028C000DF508F0A02E0010E9E6F9EC0E2F0E16BC6
:1028D000F28ED6CF0EF0D7CF0FF00F500D6E0E50F8
:1028E0000C6E0CC093F00DC094F0090E00017B6FCC
:1028F0003D0E7C6F7D6B7E6BDBC07FF0806B816BF0
:10290000826B7F517B03F3CF83F0F4CF84F0856B30
:10291000866B7C03F3508427F4508523000E8623B6
:1029200080517B03F3508427F4508523000E8623C7
:102930007F517D03F3508527F450862380517C031B
:10294000F3508527F450862381517B03F35085276C
:10295000F45086237E517F03F350862780517D03F8
:10296000F350862781517C03F350862782517B03E5
:10297000F350862783C00CF084C00DF085C00EF0A4
:1029800086C00FF0E80E106E030E116E000E126A74
:10299000136AC0EC2BF00CC087F00DC088F00EC09D
:1029A00089F00FC08AF087C095F088C096F001D0FA
:1029B0000400D6CF0EF0D7CF0FF00F500D6E0E5093
:1029C0000C6E000193510C5E94510D5A95510C5DA3
:1029D00096510D59EDE3270EDE17AFC0D9FFB0C0F9
:1029E000DAFFDF1C01014A6F010E236E4A0E226ED0
:1029F000256A010E246EA5EC15F0F29EFDEC29F07F
:102A00009E92F294D76BCAB40ED082B20CD0000161
:102A1000DD51D8B407D0DDC0CCFFCA849EA2FED75A
:102A20009E9201D0CA840001AF4BB02BCAB40ED025
:102A300082B20CD00001DD51D8B407D0DDC0CCFF8C
:102A4000CA849EA2FED79E9201D0CA840001AA51D8
:102A5000B05D996FCAB40ED082B20CD00001DD51C6
:102A6000D8B407D0DDC0CCFFCA849EA2FED79E9208
:102A700001D0CA8400019951050A15E1CAB40ED0EB
:102A800082B20CD00001DD51D8B407D0DDC0CCFF3C
:102A9000CA849EA2FED79E9201D0CA84060E00016F
:102AA000B06F790EAF6FCAB40ED082B20CD00001F5
:102AB000DD51D8B407D0DDC0CCFFCA849EA2FED7BA
:102AC0009E9201D0CA840001AB07D8A0AC07A6D45F
:102AD0000001D76B8A9CA36BA56B0CD09EA2FED77E
:102AE0009E9282A204D0D890A333A38F02D0D89014
:102AF000A333A52B070EA565F1D7DEC07BF07B17AE
:102B000003E09EA2FED79E92000EAB5D050EAC596F
:102B100014E2ADC0D9FFAEC0DAFFA3C0DFFFAD4BFA
:102B2000AE2BAB4BAC2BAA51AE5D9A6F9A51050AF6
:102B300004E1060EAE6F790EAD6F9EA2FED79E9297
:102B4000CA94CC6A9E928A8C69D4000123C078F022
:102B500022C077F002D0FBEC2BF09DB8FCD7FBEC49
:102B60002BF04B50481049104A1043E1F29EAB98AD
:102B7000CD909E90526AFDEC29F09E92CA848A9E66
:102B80008A92686B696B28D004009EA2FED79E9241
:102B90008A8077C0D9FF78C0DAFFDF5000016A6F02
:102BA000774B782B736B9EA2FED79E9200016AA191
:102BB00002D08A9001D08A80D8906A33732B070E96
:102BC0007365F1D79EA2FED79E928A909EA2FED7F1
:102BD0009E920001684B692B2450685D255069590D
:102BE000D3E38A908A8ECA94F294AB88D76BF28E24
:102BF0001200F29EAB98CD909E90526A00017A6BC3
:102C0000796BDEAF02D0010E7A6FDEA703D0010E22
:102C1000796F02D0010E7A6FDEA9F7D0030E245C23
:102C2000000E255801E2EAD0090E266E3D0E276EF1
:102C3000286A296A22C0D9FF23C0DAFFDF502A6E32
:102C40002AC02BF02C6A2D6A2E6A2B502602F3CF55
:102C50002FF0F4CF30F0316A326A2702F350302679
:102C6000F4503122000E32222C502602F35030262E
:102C7000F4503122000E32222B502802F35031261C
:102C8000F45032222C502702F3503126F4503222D5
:102C90002D502602F3503126F450322229502B02B7
:102CA000F35032262C502802F35032262D502702A2
:102CB000F35032262E502602F35032262FC00CF04D
:102CC00030C00DF031C00EF032C00FF0E80E106EC3
:102CD000030E116E000E126A136AC0EC2BF00CC0CA
:102CE00033F00DC034F00EC035F00FC036F033C0F5
:102CF00060F034C061F020EE01F02250D92623505C
:102D0000DA22DF5000016D6F6D51266E276A070EC3
:102D10002626000E27222734273226322734273250
:102D2000263227342732263226506E6F6E51266E99
:102D3000276A020E2626000E27222450265C2550E4
:102D400027580EE26E512224266E000E2320276E95
:102D5000020E2624D96E000E2720DA6EDF50DB6FBC
:102D6000020E2224776F000E2320786F8A9E746BE8
:102D700042D0040074C026F0070E261609E177C081
:102D8000D9FF78C0DAFFDF5000016B6F774B782BEB
:102D900000016BA107D07A51D8A48A90795108E03C
:102DA0008A9206D07A51D8A48A807951D8A48A828E
:102DB000D8906B33D6CF0EF0D7CF0FF00F500D6EEB
:102DC0000E500C6E0CC062F00DC063F001D0040018
:102DD000D6CF0EF0D7CF0FF00F500D6E0E500C6EF9
:102DE000000162510C5E63510D5A60510C5C6151DF
:102DF0000D58EDE3742B6D51745DBBE38A908A929C
:102E00008A8EAB88D76BF28E1200FDEC29F08A9E79
:102E1000DEAD4CD07A51D8A48A807951D8A48A8268
:102E2000D6CF0EF0D7CF0FF00F500D6E0E500C6EA8
:102E30000CC06FF00DC070F001D00400D6CF0EF0C2
:102E4000D7CF0FF00F500D6E0E500C6E00016F516A
:102E50000C5E70510D5A860E0C5C010E0D58EDE3A0
:102E60007A51D8A48A907951D8A48A92D6CF0EF0FC
:102E7000D7CF0FF00F500D6E0E500C6E0CC06FF0D0
:102E80000DC070F001D00400D6CF0EF0D7CF0FF0F8
:102E90000F500D6E0E500C6E00016F510C5E705194
:102EA0000D5A860E0C5C010E0D58EDE39E92CA84FD
:102EB000716B726B0CD1E05101E189D072517111CB
:102EC00001E185D0CA94D6CF0EF0D7CF0FF00F50C6
:102ED0000D6E0E500C6E0CC064F00DC065F0090E46
:102EE000266E3D0E276E286A296A0001E0C02AF08E
:102EF0002B6A2C6A2D6A2A502602F3CF2EF0F4CFCB
:102F00002FF0306A316A2702F3502F26F450302216
:102F1000000E31222B502602F3502F26F45030227F
:102F2000000E31222A502802F3503026F45031226C
:102F30002B502702F3503026F45031222C50260219
:102F4000F3503026F450312229502A02F350312612
:102F50002B502802F35031262C502702F3503126F3
:102F60002D502602F35031262EC00CF02FC00DF04C
:102F700030C00EF031C00FF0E80E106E030E116E6F
:102F8000000E126A136AC0EC2BF00CC032F00DC0B8
:102F900033F00EC034F00FC035F032C066F033C0ED
:102FA00067F001D00400D6CF0EF0D7CF0FF00F504E
:102FB0000D6E0E500C6E000164510C5E65510D5A81
:102FC00066510C5C67510D58EDE39E92CA84040073
:102FD0009EA2FED79E9200017A51D8A48A80795190
:102FE000D8A48A8277C0D9FF78C0DAFFDF506C6F2F
:102FF000774B782B756B766B070E766501D048D0D2
:103000009EA2FED79E9200016CA108D07A51D8A44E
:103010008A907951D8A48A92752B06D07A51D8A477
:103020008A807951D8A48A82D8906C33762BE4D7E1
:103030009EA2FED79E92000175A104D07A51D8A419
:103040008A9017D07A51D8A48A801ED09EA2FED72B
:103050009E92000175A103D07A51F6E115D07A5104
:10306000EFE107D09EA2FED79E9200017A51D8A42C
:103070008A9079511CE08A921AD09EA2FED79E9225
:1030800000017A51D8A48A80795111E08A820FD048
:10309000DE51070B266E276A275009E12650010AE8
:1030A000C7E0030AD3E0010ADDE0070AE6E09EA2DA
:1030B000FED79E9200017A51D8A48A907951D8A463
:1030C0008A929EA2FED79E920001714B722B2450D1
:1030D000715D2550725901E2EED68A908A928A8EED
:1030E000CA94AB88D76BF28E12005250020A03E0EA
:1030F0003E6A3F6A12000001D76B7F6B806BE45120
:103100001BE04EC07FF04FC080F03F503E100FE0FC
:103110003FC00DF03EC00CF00B0E0F6E790E0E6E20
:103120007FC010F080C011F08BEC2CF0526A7FC091
:103130003EF080C03FF012007D6B7E6B79CBE8FFE4
:10314000000901E0D6D12BEE7AF0DF506FE13F505D
:103150003E1002E05104CCE12BEE7CF0DF507BCB43
:103160006EF06EC06FF0706B716B726B71C072F04D
:1031700070C071F06FC070F06F6B6F25736F000ED1
:103180007021746F000E7121756F000E7221766FC1
:10319000D8907335486E7435496E75354A6E7635FC
:1031A0004B6E4B50481049104A101BE04850020A21
:1031B00049104A104B1015E0A00E485C0F0E4958FC
:1031C000000E4A58000E4B5809E3A90E485C610EE8
:1031D0004958000E4A58000E4B5803E37F6B806B32
:1031E00022D07DCBDEF0DF6BE36B7ECBE0F080CBDB
:1031F0006EF02BEE7FF0DF50806F6E517F6F3F508F
:103200003E100EE03FC00DF03EC00CF00B0E0F6EF6
:10321000810E0E6E7FC010F080C011F08BEC2CF090
:10322000010E00017D6FDB6BDC6BEAD0010E2BEE33
:103230007AF0DF626DD03F503E100AE05150020A32
:1032400001E056D72BEE7BF0DF50C61901E050D7D6
:103250002BEE7BF0DF50C61902E0010E7E6F7BCBB8
:10326000C6F02BEE7CF0DF50C01902E0010E7E6F3D
:103270007CCBC0F07DCBC2F0B1C077F0B2C078F0AB
:103280001ED0BFC0C3F0D3C0C4F07FCB6EF02BEE16
:103290007EF0DF50B46F6E51B36F070EB26FE80E61
:1032A000B16F11D07ECBC1F07FCBC5F02BEE80F09B
:1032B000DF500A0DF3CF00F1F4CF01F104D0C65175
:1032C000020ADFE0EFD7B251781902E1B151771964
:1032D00002E0010E7E6F82CB6EF02BEE81F0DF50AC
:1032E000806F6E517F6F3F503E100EE03FC00DF07B
:1032F0003EC00CF00B0E0F6E830E0E6E7FC010F0F2
:1033000080C011F08BEC2CF0020E00017D6F72D1A9
:10331000020E2BEE7AF0DF6278D03F503E1003E0D1
:10332000510401E0E5D62BEE7CF0DF507BCB6EF054
:103330006EC06FF0706B716B726B71C072F070C0A9
:1033400071F06FC070F06F6B6F25736F000E70219E
:10335000746F000E7121756F000E7221766FD89018
:103360007335486E7435496E75354A6E76354B6ED9
:103370004B50481049104A101BE04850020A4910AF
:103380004A104B1015E0A00E485C0F0E4958000E75
:103390004A58000E4B5809E3A90E485C610E495883
:1033A000000E4A58000E4B5803E37F6B806B24D00D
:1033B0007DCBDEF07ECBDFF07FCBE0F080CBE3F0A7
:1033C00082CB6EF02BEE81F0DF50806F6E517F6FFD
:1033D0003F503E100EE03FC00DF03EC00CF00B0E13
:1033E0000F6E830E0E6E7FC010F080C011F08BEC5C
:1033F0002CF0010E00017D6FDB6BDC6BDEA9DFA121
:10340000E26BE16B01011A6BF5D0030E2BEE7AF043
:10341000DF62F0D03F503E100AE05150020A01E056
:1034200067D62BEE7BF0DF50C61901E061D62BEE9C
:103430007BF0DF50C61902E0010E7E6F7BCBC6F039
:103440002BEE7CF0DF50C01902E0010E7E6F7CCBCA
:10345000C0F07DCBC2F0B1C079F0B2C07AF022D01A
:103460007ECBC3F07FCBC4F081CB6EF02BEE80F02F
:10347000DF50B46F6E51B36F83CB6EF02BEE82F0E2
:10348000DF50B26F6E51B16F11D07ECBC1F07FCBE8
:10349000C5F02BEE80F0DF500A0DF3CF00F1F4CF32
:1034A00001F104D0C651020ADBE0EFD7B2517A191C
:1034B00002E1B151791902E0010E7E6F85CB6EF009
:1034C0002BEE84F0DF50806F6E517F6F3F503E10C7
:1034D00001E11AD73FC00DF03EC00CF00B0E0F6E8D
:1034E000860E0E6E7FC010F080C011F08BEC2CF0B9
:1034F0000BD70B0E2B6E790E2A6E4EC02CF04FC0E0
:103500002DF006EC0DF0000904E0526A3E6A3F6AB5
:1035100012000001C82951E1D85102E051504DE09C
:103520003F503E1001E0E4D5D86B516AD8EC27F04B
:103530000D6A0001F10E0C6E0F6A0E6A116A0B0E15
:10354000106E80EC2DF0060E0001F26FF10EF16F9F
:10355000F351F00B0809F36FF10EF46FF56BB6EC55
:103560002CF0D6CF0EF0D7CF0FF00F500D6E0E50BF
:103570000C6E0CC07BF00DC07CF00400FBEC2BF05B
:10358000CEEC2DF0000903E0020E000113D0D6CFDF
:103590000EF0D7CF0FF00F500D6E0E500C6E0001D5
:1035A0007B510C5E7C510D5A390E0C5D010E0D598C
:1035B000E4E3010ED86F010E7E6F3F503E1003E032
:1035C000515001E095D55FEC2CF04EC07FF04FC01C
:1035D00080F03F503E100EE03FC00DF03EC00CF0BA
:1035E0000B0E0F6E790E0E6E7FC010F080C011F0C2
:1035F0008BEC2CF0515000017D1904E0010E7E6F20
:103600007DC051F07E51D8A4D8EC27F03F503E1039
:1036100001E08CD58CD50001916FC76701D01200F5
:10362000CE672FD09DB82DD0060E3F6E790E3E6E20
:1036300075EC18F03EC092F03FC093F0000193513A
:1036400092111FE0CEEC2DF00009D8A4D8EC27F0A1
:10365000010E0001CE6FD26BB96BBA6B92C006F14E
:1036600093C007F1D6CF0EF0D7CF0FF00F500D6EED
:103670000E500C6E0CC002F10DC003F1010E0101E1
:10368000166F010116515CE0CEEC2DF0000923E02D
:103690000001C2A31BD0020E01014A6F4B6B010E49
:1036A0004C6F4D6F010E0D6E4A0E0C6E0F6A040EBC
:1036B0000E6E96EC2DF001014E6F010E0D6E4A0E4E
:1036C0000C6E0F6A050E0E6E38EC2BF00101166BB6
:1036D0000001CE6B12000001916713D0D6CF0EF01F
:1036E000D7CF0FF00F500D6E0E500C6E010102512E
:1036F0000C5E03510D5A390E00010C5D010E0D597F
:103700001FE3C2A51BD0020E01014A6F4B6B010ED5
:103710004C6F4D6B010E0D6E4A0E0C6E0F6A040E4F
:103720000E6E96EC2DF001014E6F010E0D6E4A0EDD
:103730000C6E0F6A050E0E6E38EC2BF00101166B45
:103740000001CE51D8B41200D76B060E966F790ED9
:10375000956F06C198F007C199F0BA51B9116DE1A2
:10376000080E985D000E995925E20D6AF10E0C6E57
:103770000F6A0E6A116A0B0E106E80EC2DF0B3C04A
:10378000F1F0B4C0F2F00001F351F00B0809F36F4F
:1037900098C0F4F00D6AF50E0C6E96C00FF095C04F
:1037A0000EF098C010F099C011F08BEC2CF0B6EC34
:1037B0002CF08ED70D6AF10E0C6E0F6A0E6A116A2C
:1037C0000B0E106E80EC2DF0B3C0F1F0B4C0F2F02F
:1037D0000001F351F00B0809F36F99C081F081C02B
:1037E00082F0836B82511009F46F98C0F5F0060ED9
:1037F000946F0D6AF60E0C6E96C00FF095C00EF029
:1038000094C010F0116A8BEC2CF000019451B92790
:10381000000EBA23B6EC2CF0010E0001D16FFD6F43
:10382000D6CF0EF0D7CF0FF00F500D6E0E500C6E9E
:103830000CC00AF10DC00BF11200D1514CE09151B6
:1038400031E0B251E71902E1B151E6192BE1E8513B
:103850000F0B816F030E815D25E3E9C081F0F00E4F
:1038600081178151300A10E01DD0D16B17D0D6CF0F
:103870000EF0D7CF0FF00F500D6E0E500C6E0CC027
:103880000AF10DC00BF10AD0E9510F0B816F826B69
:10389000825104E18151E9E0010AE9E0EAC0CFF098
:1038A000EBC0D0F00001D151D8B41200D6CF0EF049
:1038B000D7CF0FF00F500D6E0E500C6E01010A5154
:1038C0000C5E0B510D5A0A0E00010C5D3D0E0D5998
:1038D000D8A01200FDD6D25172E0090E816F3D0EC4
:1038E000826F836B846BD0C085F0866B876B886B2F
:1038F00085518103F3CF89F0F4CF8AF08B6B8C6B09
:103900008203F3508A27F4508B23000E8C238651B8
:103910008103F3508A27F4508B23000E8C238551AA
:103920008303F3508B27F4508C2386518203F3508A
:103930008B27F4508C2387518103F3508B27F4504D
:103940008C2384518503F3508C2786518303F350D5
:103950008C2787518203F3508C2788518103F350C1
:103960008C2789C00CF08AC00DF08BC00EF08CC083
:103970000FF0E80E106E030E116E000E126A136A3D
:10398000C0EC2BF00CC08DF00DC08EF00EC08FF08F
:103990000FC090F0D6CF0EF0D7CF0FF00F500D6EB6
:1039A0000E500C6E010108510C5E09510D5A0001B8
:1039B0000C518D5D0D518E59D8B01200D26B0D6A2D
:1039C000F10E0C6E0F6A0E6A116A0B0E106E80EC0F
:1039D0002DF0B3C0F1F0B4C0F2F00001F351F00BE0
:1039E0000809F36FFD510F0B2009F46FB951985D71
:1039F000976F070E976501D0976F0D6AF50E0C6EE5
:103A000095C081F096C082F0B9518127BA518223C6
:103A100081C00EF082C00FF097C010F0116A8BECDD
:103A20002CF000019751B927000EBA23FD2BB6ECFC
:103A30002CF000019851B95D9951BA5901E348D66B
:103A4000D16BCF5112E0CF050EE1010ED16FD6CF71
:103A50000EF0D7CF0FF00F500D6E0E500C6E0CC045
:103A60000AF10DC00BF10001CF07D1671200D05150
:103A7000D8B41200010ED26FD6CF0EF0D7CF0FF010
:103A80000F500D6E0E500C6E0CC008F10DC009F1F8
:103A900012001D6E0001C76701D01200CA5114E068
:103AA000D6CF0EF0D7CF0FF00F500D6E0E500C6E1C
:103AB000010104510C5E05510D5A850E0C5C1E0E61
:103AC0000D5802E30001CA6B1D5001E1EBD100016A
:103AD000D76BE705300ED8B4E61917E1E8510F0BA4
:103AE000166E050E165C11E3010ECA6FD6CF0EF0EE
:103AF000D7CF0FF00F500D6E0E500C6E0CC004F1AE
:103B00000DC005F1E9C017F11200166A1768E6C08A
:103B100018F0E7C019F0165018161750191619505A
:103B2000060A181001E059D1E8510F0B166E020E6B
:103B3000165C01E252D1EA390F0B1E6E46D1E6C087
:103B40001FF0E9C020F0EA510F0B246E2450166ECE
:103B5000176AFE0E186E1968E8510F0B1A6E1B6A71
:103B600018501A2619501B221B50800A1C6E165022
:103B70001A5C1750800A1C5801E22FD1245080098A
:103B800001014A6F20C04BF11FC04CF1010E0D6EB8
:103B90004D0E0C6E0F6A0001EB0E0E6E24C010F07D
:103BA000116A8BEC2CF02450030F216E0101010EE1
:103BB0000D6E4A0E0C6E21C00EF00F6A96EC2DF0C1
:103BC000166E01014A0E2124D96EDA6A010EDA223C
:103BD00016C0DFFF212A0D6E4A0E0C6E21C00EF0BA
:103BE0000F6A38EC2BF0F9D0CD5101E0F6D0E85156
:103BF0000F0B166E080E165C01E2EFD0E6C0CCF09B
:103C0000E9C0FCF0EA510F0B546EEB51536E000EFD
:103C1000535C010E545801E3E0D0400E535C000E9B
:103C2000545804E3060EB66F7D0E03D0060EB66F31
:103C30007C0EB56FB6C00DF0B5C00CF00F6AEC0E7F
:103C40000E6E116A050E106E8BEC2CF04D6A050E8F
:103C50004C6E010E0001C96F0D6AF10E0C6E0F6AF9
:103C60000E6A116A0B0E106E80EC2DF0000E000132
:103C7000FC11F16F060EF26FF351F00B0809F36FB0
:103C8000CCC0F4F0300EF56FBFC0F6F0D3C0F7F043
:103C9000BFC0CBF0010ECD6FF29EBDC027F0BEC0FD
:103CA00028F0F28E050E5324166E000E5420176E67
:103CB0000A0E186E050E196E2750185E2850195AF4
:103CC0001650185C1750195803E263EC2DF0E4D736
:103CD000B6EC2CF0D6CF0EF0D7CF0FF00F500D6E04
:103CE0000E500C6E0CC0B7F00DC0B8F076D0CD51B0
:103CF00074E0CC51E66371D0FC5120EEE9F0DF6254
:103D00006CD0C9C016F00F0E1616EA510F0B16181C
:103D100064E14C50535C256E4D505458266E070E8E
:103D2000255C000E265803E3266A060E256EFE0E5D
:103D3000166E1768E8510F0B186E196A1650182680
:103D4000175019222550185C2650195846E34C503C
:103D5000B5250C6E4D50B6210D6E0F6AEB0E0E6E32
:103D600025C010F026C011F08BEC2CF025504C260D
:103D700026504D220001C92BCB51ACE053504C5C76
:103D800054504D58A7E2CB07CB67A4D70D6AF10E6C
:103D90000C6E0F6A0E6A116A0B0E106E80EC2DF01D
:103DA000000E0001FC11F16F060EF26FF351F00BE3
:103DB0000809F36FCCC0F4F0300EF56FBFC0F6F019
:103DC000D3C0F7F0BFC0CBF083D71E5001E1B7D608
:103DD000010A01E109D7030A8AE00001CD51D8B4F4
:103DE000120053504C5C54504D58D8A01200400E55
:103DF000535C000E545811E3800EE8CF79F626EE9E
:103E00007AF0FCC0DFFF26EE7BF0CCC0DFFF26EEB1
:103E10007CF053C0DFFF040E0FD053C016F0800EAD
:103E2000161216C079F626EE7AF0FCC0DFFF26EEF9
:103E30007BF0CCC0DFFF030E5324226E000E542013
:103E4000236E060E0D6E790E0C6E22C00EF023C08E
:103E50000FF096EC2DF0166E790E2224D96E060E18
:103E60002320DA6E16C0DFFF224A232A060E0D6ECB
:103E7000790E0C6E22C00EF023C00FF038EC2BF040
:103E8000000903E00001CD6B1200D6CF0EF0D7CFB2
:103E90000FF00F500D6E0E500C6E0CC0B7F00DC031
:103EA000B8F012000001CD51D8B41200D6CF0EF0F8
:103EB000D7CF0FF00F500D6E0E500C6E0001B751A2
:103EC0000C5EB8510D5A0A0E0C5C3D0E0D58D8A070
:103ED0001200D8D7010E01016E6F0001DA6BD76BAB
:103EE000526A4E6A4F6AE46B0101146B156B126BD8
:103EF000136B0001BD6BBE6BCE6BCD6B516AD86B83
:103F00005FEC2CF0D08E9280010E0F015D6F5C6B28
:103F1000300E5B6FF19E8A908A9293909392948276
:103F200089929292899492948B9694968A988A9A7E
:103F30008A8C8A8E938A939C939E9386786A0E01CC
:103F40007E699488830EC216F80EC116C196C150C0
:103F5000CF0B1009C16EC08EC70EC016C050F80B33
:103F60000509C06EC280949C948E7D6A220EAF6E4D
:103F7000AC8AAC84AC98A786AB889F8A9E9A9D8AAF
:103F80009E989D98AB8ED59ED59CD59A070ED5123E
:103F9000D596D76AD66AF194F294D58ECD90CD821B
:103FA0003F0ECD16CD96300ECD129F809E909D80F7
:103FB000FC0ECA16870ECA16CC6A220ECB6E9F92D2
:103FC0009E92F28CF28EC282D38ED180D188D18E15
:103FD000040081BA59D0CBEC2DF00D6A0C6AFF0EAB
:103FE0000E6803EC2DF0CBEC2DF00D6A010E0C6E7B
:103FF000FF0E0E6803EC2DF0CBEC2DF00D6A020ED7
:104000000C6EFF0E0E6803EC2DF0CBEC2DF00D6A5C
:10401000030E0C6EFF0E0E6803EC2DF0CBEC2DF0B2
:104020000D6A040E0C6EFF0E0E6803EC2DF0CBEC47
:104030002DF00D6A050E0C6EFF0E0E6803EC2DF0D0
:10404000CBEC2DF00D6A060E0C6EFF0E0E6803EC25
:104050002DF0CBEC2DF00D6A070E0C6EFF0E0E68E6
:1040600003EC2DF0CBEC2DF00D6A080E0C6EFF0E5C
:104070000E6803EC2DF0CBEC2DF00D6A180E0C6ED3
:10408000FF0E0E6803EC2DF01CEC27F0A7EC29F0D6
:10409000000903E1010E0001DA6F000E3F6A3E6A7B
:1040A00075EC18F00001C75123E030EC2CF0010151
:1040B0006D6F17D001016D5188EC07F00CD1010133
:1040C0006D5160EC23F001016D510BEC1BF003D13D
:1040D00001016D5149EC1DF001016D5170EC21F0B1
:1040E000FAD00001C651010AE5E0030AE8E0F0D782
:1040F0009DB8F1D0060E3F6E790E3E6E75EC18F04D
:104100003EC06BF13FC06CF101016C516B1101E1DC
:10411000E2D00001DEBB0AD0060E0D6E790E0C6EE9
:104120006BC10EF06CC10FF038EC2BF00001E251C6
:1041300001E1C4D00101696B6A6BBAD00001E051A2
:1041400001E187D001016A51691101E182D0D6CF26
:104150000EF0D7CF0FF00F500D6E0E500C6E0CC03E
:1041600064F10DC065F1090E0101546F3D0E556FEC
:10417000566B576BE0C058F1596B5A6B5B6B5851DB
:104180005403F3CF5CF1F4CF5DF15E6B5F6B5503CD
:10419000F3505D27F4505E23000E5F235951540302
:1041A000F3505D27F4505E23000E5F2358515603F1
:1041B000F3505E27F4505F2359515503F3505E27A7
:1041C000F4505F235A515403F3505E27F4505F2399
:1041D00057515803F3505F2759515603F3505F2747
:1041E0005A515503F3505F275B515403F3505F2737
:1041F0005CC10CF05DC10DF05EC10EF05FC10FF04F
:10420000E80E106E030E116E000E126A136AC0ECF7
:104210002BF00CC060F10DC061F10EC062F10FC057
:1042200063F160C166F161C167F101D00400D6CFCE
:104230000EF0D7CF0FF00F500D6E0E500C6E010127
:1042400064510C5E65510D5A66510C5D67510D59F4
:10425000EDE3790E01016925D96E060E6A21DA6E49
:10426000DF504A6F010E236E4A0E226E256A010E40
:10427000246EA5EC15F0010E01016925546F000EA6
:104280006A21556F6B51545D6C515559010ED8A080
:10429000000E686F685166EC11F000091CE1010125
:1042A000686704D04A1D1019111115E1694B6A2B7A
:1042B0006B51695D6C516A590EE240D7060E236E50
:1042C000790E226E6BC124F06CC125F0A5EC15F0BF
:1042D000010E66EC11F0FBEC2BF063EC2DF0DDD65B
:1042E0000001916FC76701D01200CE6722D09DB840
:1042F00020D0060E3F6E790E3E6E75EC18F03EC073
:1043000092F03FC093F000019351921112E0DEBB96
:104310000AD0060E0D6E790E0C6E92C00EF093C090
:104320000FF038EC2BF0010E0001CE6FD26BB96BA1
:10433000BA6BCE51D8B41200D76B060E966F7C0EB6
:10434000956F79C6E8FF3F0B9A6F9A6706D07CC6D7
:104350009AF0060E966F7D0E956F7AC698F07BC622
:1043600099F0BA51B9116AE1070E9A5D29E20D6A16
:10437000F10E0C6E0F6A0E6A116A0B0E106E80EC55
:104380002DF0000E00019911F16F060EF26FF3513E
:10439000F00B0809F36F98C0F4F09AC0F5F00D6ABD
:1043A000F60E0C6E96C00FF095C00EF09AC010F08D
:1043B000116A8BEC2CF0B6EC2CF00001CE6B1200E5
:1043C0000D6AF10E0C6E0F6A0E6A116A0B0E106EFA
:1043D00080EC2DF0000E00019911F16F060EF26FC6
:1043E000F351F00B0809F36F98C0F4F0100EF56F5D
:1043F0009AC0F6F00D6AF70E0C6E96C00FF095C0DD
:104400000EF0116A050E106E8BEC2CF0050E0001FB
:10441000B927000EBA23B6EC2CF0010E0001D16FC3
:10442000FD6FD6CF0EF0D7CF0FF00F500D6E0E50A0
:104430000C6E0CC00AF10DC00BF11200D1515CE002
:10444000915141E0816B8269E6C083F0E7C084F05E
:1044500081518317825184178451060A831133E1F5
:10446000E8510F0B816F040E815D2DE39851E663D7
:104470002AD0995120EEE9F0DF6225D0EAC081F020
:10448000F00E81178151300A10E01DD0D16B17D08A
:10449000D6CF0EF0D7CF0FF00F500D6E0E500C6E22
:1044A0000CC00AF10DC00BF10AD0EA510F0B816F5D
:1044B000826B825104E18151E9E0010AE9E0EBC03D
:1044C000CFF0ECC0D0F00001D151D8B41200D6CF5B
:1044D0000EF0D7CF0FF00F500D6E0E500C6E010185
:1044E0000A510C5E0B510D5A0A0E00010C5D3D0E77
:1044F0000D59D8A0120061D7D25172E0090E816F18
:104500003D0E826F836B846BD0C085F0866B876BAA
:10451000886B85518103F3CF89F0F4CF8AF08B6BE0
:104520008C6B8203F3508A27F4508B23000E8C236C
:1045300086518103F3508A27F4508B23000E8C237D
:1045400085518303F3508B27F4508C2386518203CB
:10455000F3508B27F4508C2387518103F3508B2722
:10456000F4508C2384518503F3508C2786518303A8
:10457000F3508C2787518203F3508C278851810395
:10458000F3508C2789C00CF08AC00DF08BC00EF060
:104590008CC00FF0E80E106E030E116E000E126A42
:1045A000136AC0EC2BF00CC08DF00DC08EF00EC065
:1045B0008FF00FC090F0D6CF0EF0D7CF0FF00F5086
:1045C0000D6E0E500C6E010108510C5E09510D5A12
:1045D00000010C518D5D0D518E59D8B01200D26B77
:1045E0000D6AF10E0C6E0F6A0E6A116A0B0E106ED8
:1045F00080EC2DF0000E00019911F16F060EF26FA4
:10460000F351F00B0809F36F98C0F4F0FD510F0B54
:104610002009F56FB9519A5D976F060E976501D025
:10462000976F0D6AF60E0C6E95C081F096C082F001
:10463000B9518127BA51822381C00EF082C00FF098
:1046400097C010F0116A8BEC2CF000019751B9273C
:10465000000EBA23FD2BB6EC2CF000019A51816FAD
:10466000826B8151B95D8251BA5901E3A6D6D16BF3
:10467000CF5112E0CF050EE1010ED16FD6CF0EF073
:10468000D7CF0FF00F500D6E0E500C6E0CC00AF10C
:104690000DC00BF10001CF07D1671200D051D8B483
:1046A0001200010ED26FD6CF0EF0D7CF0FF00F5001
:1046B0000D6E0E500C6E0CC008F10DC009F1120009
:1046C0001D6E0001C76701D012001D5001E18AD1A3
:1046D000D76BB251E71902E1B151E61901E033D1CC
:1046E000E8510F0B01E12FD1E9390F0B1E6E23D1D9
:1046F000E9510F0B226E2250166E176A186819685E
:10470000E8510F0B1A6E1B6A18501A2619501B22FB
:104710001B50800A1C6E16501A5C1750800A1C58D9
:1047200001E211D1010E01014A6F4B6B22C04CF125
:10473000010E0D6E4D0E0C6E0F6A0001EA0E0E6E2C
:1047400022C010F0116A8BEC2CF02250030F216E66
:104750000101010E0D6E4A0E0C6E21C00EF00F6AA3
:1047600096EC2DF0166E01014A0E2124D96EDA6AFC
:10477000010EDA2216C0DFFF212A0D6E4A0E0C6EE2
:1047800021C00EF00F6A38EC2BF0DDD0CD5101E0E6
:10479000DAD0E8510F0B166E080E165C01E2D3D08A
:1047A000E9510F0B546EEA51536EFD0E535C040E2B
:1047B000545801E3C8D0060EB66F7C0EB56FB6C074
:1047C0000DF0B5C00CF00F6AEB0E0E6E116A060EFE
:1047D000106E8BEC2CF04D6A060E4C6E010E000133
:1047E000C96F0D6AF10E0C6E0F6A0E6A116A0B0E1C
:1047F000106E80EC2DF0B3C0F1F0B4C0F2F0000107
:10480000F351F00B0809F36F300EF46FC3C0F5F0ED
:10481000C4C0F6F0C3C0CBF0010ECD6FF29EBDC098
:1048200025F0BEC026F0F28E040E5324166E000E44
:104830005420176E0A0E186E050E196E2550185E5C
:104840002650195A1650185C1750195803E263EC99
:104850002DF0E4D7B6EC2CF0D6CF0EF0D7CF0FF07A
:104860000F500D6E0E500C6E0CC0B7F00DC0B8F0AE
:104870006AD0CD5168E0C9C016F00F0E1616E95186
:104880000F0B161860E14C50535C236E4D5054587A
:10489000246E080E235C000E245803E3246A070EDE
:1048A000236E16681768E8510F0B186E196A1650B8
:1048B0001826175019222350185C2450195843E326
:1048C0004C50B5250C6E4D50B6210D6E0F6AEA0E98
:1048D0000E6E23C010F024C011F08BEC2CF023508E
:1048E0004C2624504D220001C92BCB51B5E053502A
:1048F0004C5C54504D58B0E2CB07CB67ADD70D6A36
:10490000F10E0C6E0F6A0E6A116A0B0E106E80ECBF
:104910002DF0B3C0F1F0B4C0F2F00001F351F00B90
:104920000809F36F300EF46FC3C0F5F0C4C0F6F0A1
:10493000C3C0CBF08FD71E5001E1DAD6010A01E1E6
:1049400025D7030A96E00001CD51D8B41200535088
:104950004C5C54504D58D8A01200030E53241F6EC7
:10496000000E5420206E010EE8CF79F654C016F0E8
:1049700016C017F0186A17C07AF626EE7BF053C0FF
:10498000DFFF060E0D6E790E0C6E1FC00EF020C0FC
:104990000FF096EC2DF0166E790E1F24D96E060ED0
:1049A0002020DA6E16C0DFFF1F4A202A060E0D6E89
:1049B000790E0C6E1FC00EF020C00FF038EC2BF0FB
:1049C000000903E00001CD6B1200D6CF0EF0D7CF67
:1049D0000FF00F500D6E0E500C6E0CC0B7F00DC0E6
:1049E000B8F01200CD51D8B41200D6CF0EF0D7CF08
:1049F0000FF00F500D6E0E500C6E0001B7510C5E93
:104A0000B8510D5A0A0E0C5C3D0E0D58D8A012007C
:104A1000D9D79DBA9EAA0FD1ABCF01F0060E0116D1
:104A200003E0AB98AB8835D1AECF08F0FE0ECF6E69
:104A30000C0ECE6E9E90CD800001E45143E1F4D087
:104A40004E6A4F6A790E4E24D96E0B0E4F20DA6EE5
:104A500008C0DFFF4E4A4F2AE56B010E526E130E5F
:104A60004E5C010E4F5825E2790E4E24D96E0B0E86
:104A70004F20DA6E08C0DFFF4E4A4F2A1AD0085086
:104A80004F0A01E006D1E52B04D108504B0AFBE0A8
:104A9000E56BFFD008500D0AFAD708500A0A04E166
:104AA000CD909E90020EAFD008500D0A01E1F1D0DA
:104AB000EFD7E551E4E0010AE8E0030AEBE0010A80
:104AC000ECE0E7D05250BCE0010AC9E0E2D04E6A07
:104AD0004F6A790E4E24D96E0B0E4F20DA6E08C045
:104AE000DFFF4E4A4F2A08C0E5F0010E8CD0130EAE
:104AF0004E5C010E4F580AE2790E4E24D96E0B0E11
:104B00004F20DA6E08C0DFFF4E4A4F2A040E4E5C7B
:104B1000000E4F5801E285D079CBE8FF00094BE049
:104B200059D0080E4E5C000E4F5810E32BEE80F06B
:104B3000DF507FCB01F001C002F0036A02C003F036
:104B4000026A0226000E0322090E2CD0066A076AAA
:104B50003DD00A0E4E5C000E4F58F8E32BEE82F06B
:104B6000DF5081CB01F001C002F0036A02C003F004
:104B7000026A0226000E03220B0E14D00D0E4E5CAC
:104B8000000E4F58E3E32BEE85F0DF5084CB01F0AD
:104B900001C002F0036A02C003F0026A0226000E9E
:104BA00003220E0E0224066E000E0320076E0ED0A6
:104BB000030E526E0BD02BEE7AF0DF50B2E0010AFA
:104BC000C8E0030AC6E0010AD9E0F2D75250030A4E
:104BD00060E013D079CBE8FF3F0B066E076A075001
:104BE000061007E17CCB01F0050E0124066E076A72
:104BF00002D0040E0626000E0722140E065C010EDB
:104C0000075803E3030E526E44D00750061009E024
:104C100006504E5C07504F5804E3E5510818F2E186
:104C20003FD70850E52735D0525001E150D7010A4F
:104C300001E15DD72ED09DB89EA81ED00001BE51C7
:104C4000BD1102E19D9825D06F0E01011225D96E8C
:104C5000010E1321DA6EDF50AD6E124B132B0001E3
:104C6000BD07D8A0BE070A0E0101125D050E13593B
:104C700010E3126B136B0DD09DB09EA00AD0CD90A7
:104C80009E9002D0526A05D05250010AFBE0020AFF
:104C9000F9E005C0DAFF04C0D9FF11000001DC6BA8
:104CA0004850020A49104A104B1001E0010CF29ED4
:104CB000CD909E90CF6ACE6A526AD76B040082A2D2
:104CC00082B205D082A282B202D082A2CD80CDB0C3
:104CD0000DD09EAA02D0F28E000CF2A4EFD7F2946F
:104CE0000001D72B100ED765E9D71ED01D6A02D060
:104CF0009EB01AD082B282A2FBD782B282A2F8D72B
:104D000082B203D0F5D79EB00FD082A282B2FBD779
:104D100082A282B2F8D782B2F6D71D2A030E1D6492
:104D2000E9D705D09EA003D0CD909E90D4D782B273
:104D300082A2F8D782B282A2F5D782A2F3D7CD9011
:104D40009E90400E0C6E540E0D6E890E0E6E0F6A04
:104D5000CE50196ECF501A6E1B6A1C6AD890193447
:104D6000106E1A34116E1B34126E1C34136EC0ECAC
:104D70002BF00CC01EF00DC01FF00EC020F00FC0B5
:104D800021F0A00E196E0F0E1A6E1B6A1C6A1950C4
:104D90001E5C1A501F581B5020581C50215805E209
:104DA0001E6A1F6A206A216A09D0A90E1E5C610E64
:104DB0001F58000E2058000E2158F2E2ACA2FED778
:104DC0001EC019F01FC01AF020C01BF021C01CF03B
:104DD0000A0E05D0D8901C321B321A321932E82E36
:104DE000F9D71950AD6EACA2FED71EC019F01FC086
:104DF0001AF020C01BF021C01CF0D8901C321B32CE
:104E00001A3219321950AD6EACA2FED721501E10C5
:104E10001F10201001E15FD71EC048F01FC049F0ED
:104E200020C04AF021C04BF00001DB5102E0020E2D
:104E3000DC6FE26BF28E010C7FB2FED7000E0D6AC2
:104E40000C6AABEC2DF0296E0D6A010E0C6EABEC0A
:104E50002DF0266E0001C869D86B291C2618D8B41D
:104E600029C0C8F00D6A020E0C6EABEC2DF0296E55
:104E70000D6A030E0C6EABEC2DF0266E0001BF6BBD
:104E8000291C2618D8B429C0BFF00D6A040E0C6E78
:104E9000ABEC2DF0296E0D6A050E0C6EABEC2DF00F
:104EA000266E0001D36B291C2618D8B429C0D3F074
:104EB000D8EC27F00D6A060E0C6EABEC2DF0296EC7
:104EC0000D6A070E0C6EABEC2DF0266E010E000184
:104ED000D96F291C261803E12904D8B4D96B010124
:104EE000010E0D6E3A0E0C6E0F6A0E6A116A100EEC
:104EF000106E80EC2DF0256A276A080E27240C6EB0
:104F00000D6A000E0D22ABEC2DF0296E2F0E2964D8
:104F100013D0390E296401D00FD02728256E010146
:104F20003A0E2724D96EDA6A010EDA2229C0DFFF91
:104F3000272A0F0E2764E1D7040E255C0EE201013B
:104F4000010E0D6E3A0E0C6E0F0E0F6E0A0E0E6EE7
:104F5000116A040E106E8BEC2CF0286A180E2824AF
:104F60000C6E0D6A000E0D22ABEC2DF0296E28663A
:104F700003D02928D8B4296A01011B0E2824D96E30
:104F8000DA6A010EDA2229C0DFFF282A1E0E286401
:104F9000E5D71B671E0C010E0D6E1B0E0C6E0F0E5F
:104FA0000F6E010E0E6E116A090E106E8BEF2CF053
:104FB000050E1C6E060E1E6E1D6A070E206E1F6A01
:104FC000010E226E300E216E070E246E2368000142
:104FD000CA6B45D0C76B49D0050E01D0010E1C6EBF
:104FE000010EC76F42D0D851F7E0010AF5E0F2D7C1
:104FF000C851F0E0010AF0E0080AF0E0F60AF3E038
:10500000EBD7010EC76FC051090A23E1010E1C6ED8
:1050100020D0020E1E6E000E1D6E070E206E000EBA
:105020001F6E030E226E000E216E070E246E000E00
:10503000236E1BD0B1C01DF0B2C01EF0070E206E53
:105040001F68B1C021F0B2C022F0070E246E2368A1
:105050000CD0C651010ADDE0030AECE006D0515045
:10506000C7E0010AB7E0030ACCE0C7511FE01C0407
:1050700003E1040E0D6E01D00D6A280E0E6E060EB1
:105080000F6E010E106E1DC011F01EC012F01FC079
:1050900013F020C014F021C015F022C016F023C078
:1050A00017F024C018F0400E58EF28F0C5EF2DF08F
:1050B0001B6E800EBCEC2DF0830E726E0E017D6BAC
:1050C000606A0F01306B13C019F014C01AF0D89049
:1050D0001A321932D8901A321932D8901A3219323B
:1050E00019500E01F86F1338E846E00BF96FFA6BB0
:1050F000FB6B11C019F012C01AF0D8901A32193295
:10510000D8901A321932D8901A3219321950E06FE9
:105110001138E846E00BE16FFC0E791717C019F063
:1051200018C01AF0D8901A321932D8901A3219329F
:10513000D8901A3219321950FC6F1738E846E00B34
:10514000FD6FFE6BFF6B15C019F016C01AF0D890FA
:105150001A321932D8901A321932D8901A321932BA
:105160001950E46F1538E846E00BE56F7951F30B01
:105170000409796F716B726B736B030E466F476B2B
:105180001B500D10436F0E500F10C009446F10508C
:105190008009456F708A000EBCEF2DF0156A135020
:1051A000800A800F08E1000E125C05E1000E115C20
:1051B00002E1000E105C0AE2131E121E111E106C9A
:1051C000000E112212221322010E156E0F50800ABA
:1051D000800F08E1000E0E5C05E1000E0D5C02E19F
:1051E000000E0C5C0AE20F1E0E1E0D1E0C6C000E53
:1051F0000D220E220F22010E151A166A176A186A5E
:10520000196A135010101110121029E0010E146EBB
:1052100006D0D8901036113612361336142A13AE33
:10522000F8D7D890163617361836193610500C5C49
:1052300011500D5812500E5813500F5809E31050CA
:105240000C5E11500D5A12500E5A13500F5A168000
:10525000D8901332123211321032142EE2D7155078
:1052600008E0191E181E171E166C000E17221822B1
:10527000192216C00CF017C00DF018C00EF019C09E
:105280000FF012000001876B5ED041C00DF040C0EE
:105290000CF042C00EF043C00FF038EC2BF00009C8
:1052A00001E1000CD6CF0EF0D7CF0FF00F500D6EEE
:1052B0000E500C6E0CC081F00DC082F00400FBECAF
:1052C0002BF0060E3F6E790E3E6E75EC18F03EC068
:1052D00083F03FC084F000018451831121E0D6CFD8
:1052E0000EF0D7CF0FF00F500D6E0E500C6E0CC09D
:1052F00085F00DC086F001D00400D6CF0EF0D7CFD8
:105300000FF00F500D6E0E500C6E000185510C5EAB
:1053100086510D5A0D0E0C5C030E0D58EDE3010C79
:10532000D6CF0EF0D7CF0FF00F500D6E0E500C6E83
:10533000000181510C5E82510D5A850E0C5C1E0ECF
:105340000D58BCE3872B4450875DABE29ED7D0A8B5
:10535000010CF29E010E0001E46F526AF28ED6CF6C
:105360000EF0D7CF0FF00F500D6E0E500C6E0CC01C
:1053700088F00DC089F003D00400FBEC2BF0D6CFF1
:105380000EF0D7CF0FF00F500D6E0E500C6E0001C7
:1053900088510C5E89510D5A090E0C5C3D0E0D585A
:1053A000EBE3010E8A6FD95121E0A1EC2AF000094C
:1053B00002E100018A6B50EC2AF0000902E10001D1
:1053C0008A6B00018A5112E0CBEC2DF00D6A060EBB
:1053D0000C6E010E0E6E03EC2DF0CBEC2DF00D6A71
:1053E000070E0C6EFE0E0E6E03EC2DF0F29E000109
:1053F000E46B526AF28E8A5112004B5048104910E9
:105400004A100BE1CA94FC0ECA16870ECA16CC6A63
:10541000220ECB6E0001DD6B120048C01DF049C0AA
:105420001EF04AC01FF04BC020F01D50020A1E1093
:105430001F10201006E1800E1D6E250E1E6E1F6AC5
:10544000206ACA94CA50FC0B0109CA6E870ECA169C
:10545000400E0C6E420E0D6E0F0E0E6E000E0F6A99
:105460001DC010F01EC011F01FC012F020C013F0BC
:10547000C0EC2BF00CC019F00DC01AF00EC01BF0E0
:105480000FC01CF01950CB6E0001DD6BD890CB30F3
:105490000F0F216ECB50215CD8A021C0DDF012008F
:1054A000410EE8CF79F6540EE8CF7AF62B0EE8CF0E
:1054B0007BF64E0EE8CF7CF6410EE8CF7DF64D0E22
:1054C000E8CF7EF6450EE8CF7FF6070E476E3D0E1D
:1054D000E8CF80F6472A466A1B0E4624D96EDA6A60
:1054E000010EDA22DF50456E456601D00DD0790EEF
:1054F0004724D96EDA6A060EDA2245C0DFFF472A52
:10550000462A1E0E4664E8D7790E4724D96EDA6A19
:10551000060EDA220D0EDF6E472A790E4724D96E69
:10552000DA6A060EDA220A0EDF6E472A060E416E8E
:10553000790E406E47C042F0436A030E446E42EF5C
:1055400029F0410EE8CF79F6540EE8CF7AF62B0E0B
:10555000E8CF7BF6500EE8CF7CF6530EE8CF7DF611
:10556000570EE8CF7EF6440EE8CF7FF63D0EE8CF2B
:1055700080F6080E476E466A3A0E4624D96EDA6AFD
:10558000010EDA22DF50456E456601D00DD0790E4E
:105590004724D96EDA6A060EDA2245C0DFFF472AB1
:1055A000462A0F0E4664E8D7790E4724D96EDA6A88
:1055B000060EDA220D0EDF6E472A790E4724D96EC9
:1055C000DA6A060EDA220A0EDF6E472A060E416EEE
:1055D000790E406E47C042F0436A030E446E42EFBC
:1055E00029F0176E17503F0B186E196A31D0090E4B
:1055F00018240C6E000E19200D6E0F6A0A0E0E6E26
:10560000DEEC2CF00CC013F00DC014F0120018C02A
:1056100013F019C014F012000A0E1802F3CF15F09F
:10562000F4CF16F01902F350162615C013F016C069
:1056300014F01200640E1802F3CF15F0F4CF16F038
:105640001902F350162615C013F016C014F01200FC
:105650001744E846030B156E166A1650D8E115502C
:10566000C6E0010AD4E0030AD7E0010AE3E0CFD79D
:105670000F500E1001E1010C0001D76BF29EBDC06E
:1056800014F0BEC015F0F28E14C010F015C011F069
:105690000E5010260F5011220B0E105C050E1158E3
:1056A00001E3000C126A136A1AD012500C24D96E4E
:1056B00013500D20DA6E6F0E01011425E16E010EFC
:1056C0001521E26EDFCFE7FF144B152B0A0E145D98
:1056D000050E155902E3146B156B124A132A0E506E
:1056E000125C0F501358E1E3F29E0E500001BD27EB
:1056F0000F50BE239D88F28E010C0F0120B7000CC5
:1057000011D0FBC02DFFFAC02CFFF9C02BFFF8C051
:105710002AFFF7C029FFF6C028FFF5C027FFF4C015
:1057200026FF14D00001F3510F0B10E0010AF7E03F
:10573000030AF3E0010AEFE0070AEBE0010AE7E001
:10574000030AE3E0010ADFE00F0ADBE0F3C025FF14
:10575000F1C00CF0F2C00DF0D8900D320C32D890A0
:105760000D320C32D8900D320C320C500F01216FDB
:105770000001F139E846E00B0F01226F2087010C90
:10578000146A156A166A176A135010101110121055
:1057900029E0010E186E06D0D89010361136123658
:1057A0001336182A13AEF8D7D89014361536163695
:1057B000173610500C5C11500D5812500E581350E3
:1057C0000F5809E310500C5E11500D5A12500E5A2A
:1057D00013500F5A1480D8901332123211321032F3
:1057E000182EE2D714C00CF015C00DF016C00EF044
:1057F00017C00FF0120001016E511EE0D6CF0EF05F
:10580000D7CF0FF00F500D6E0E500C6E0CC010F075
:105810000DC011F0840E105C1E0E115803E28A8C2C
:105820008A9E0AD0090E105C3D0E115803E28A9C34
:105830008A8E02D001016E6B01016E671200525018
:1058400003E10001DA5102E08A9C01D08A8C000158
:10585000BE51BD1103E0DA6B8A9E12008A8E1200DF
:1058600071AE000C6F50070B9009726E60AE000CA9
:1058700066CFE9F067CFEAF068CFEBF069CFECF0E4
:105880006ACFEDF06BCFEEF06CCFEFF06DCFF0F0B4
:1058900065CFE8F06238E842070B61CF0CF00D6A83
:1058A000D8900C360D36D8900C360D36D8900C3674
:1058B0000D360C10E66F0D50E76F609E010C5150D5
:1058C000020A04E1C605D8B446EC2DF0486A496ADC
:1058D0004A6A4B6A0001DE6BDF6BE06BE36BDB6BEC
:1058E000DC6B0101106911690001E26BE16B0101E0
:1058F0001A6B166B0001C66B010EC06FC26BC16BD9
:10590000C56B0101006B016B0001B36BB46BB16B34
:10591000B26B506A12000FC015F00EC014F00DC02B
:1059200013F00CC012F019D014C0F6FF15C0F7FF29
:10593000F86A12C0D9FF13C0DAFF0E0EF76403D065
:105940000800F55005D0F6CFE9FFF7CFEAFFEF509A
:10595000DF6E144A152A124A132A1006D8A011061F
:105960001028D8B41128D8B41200DED7D6CF0EF044
:10597000D7CF0FF00F500D6E0E500C6E0CC012F002
:105980000DC013F015D00400FBEC2BF0D6CF0EF0B9
:10599000D7CF0FF00F500D6E0E500C6E12500C5EE4
:1059A00013500D5A430E0C5C0F0E0D58D8B0120058
:1059B0007DEC2BF00009D8A41200E5D7116A126A19
:1059C0000F500E101BE0010E106E04D0D8900E3652
:1059D0000F36102A0FAEFAD7D890113612360E5065
:1059E0000C5C0F500D5805E30E500C5E0F500D5A15
:1059F0001180D8900F320E32102EEED711C00CF05D
:105A000012C00DF012000DC00FF00FC010F0116A9F
:105A10001050030B756E0CC074FF0EC073FF7F9E99
:105A20007F9C7F84000EF2BE010E126EF29E550E18
:105A30007E6EAA0E7E6E7F827FB2FED712B002D03B
:105A4000F29E01D0F28E7F94120001EE6FF01BEEF9
:105A50001DF0EE6AE550E150FCE1E250FAE101EEA2
:105A600000F0540EEE6AE806FDE100EEB1F04E0ED5
:105A7000EE6AE806FDE100EE48F00D0EEE6AE8067B
:105A8000FDE1000EF86E00016AEF1FF0020E506497
:105A900018D00D6A0001F10E0C6E0F6A0E6A116AC1
:105AA0000B0E106E80EC2DF0BBC0F1F0BCC0F2F01C
:105AB0000001F351F00B0109F36FA80EF46FB6EC7F
:105AC0002CF0506A12000400F2A403D0F2940001FA
:105AD000D72B020E0001D765020C010E0C6EC751C8
:105AE00006E0776A71AE02D00C6A01D076820C5063
:105AF000D8B41200D76BD1900300D18076921200F7
:105B00000DC013F00CC012F008D012C0D9FF13C0A2
:105B1000DAFF0EC0DFFF124A132A1006D8A01106C2
:105B20001028D8B41128D8B41200EFD7106A116A1F
:105B3000126A0AD011500C24D96E12500D20DA6E60
:105B4000DF501026114A122A0E50115C0F501258C5
:105B5000F1E3105012000DC00EF00EC00FF0106AED
:105B60000F50030B756E0CC074FF7F9C7F9E7F806F
:105B700000F000F0735012000C6E0CC06FFF6E50FE
:105B8000E00B0C18D8B41200FAD7800EBCEC2DF044
:105B9000200E6E6E200C7FA21200FDD771B0010C9A
:105BA000000CFFFFFFFFFFFFFFFFFFFFFFFFFFFFF7
:105BB000FFFFFFFFFFFFFFFFFFFFFFFFFFFFFFFFF5
:105BC000FFFFFFFFFFFFFFFFFFFFFFFFFFFFFFFFE5
:105BD000FFFFFFFFFFFFFFFFFFFFFFFFFFFFFFFFD5
:105BE000FFFFFFFFFFFFFFFFFFFFFFFFFFFFFFFFC5
:107FF000FFFFFFFFFFFFFFFFFFFF0A000500FE1965
:020000040020DA
:08000000FFFFFFFFFFFFFFFF00
:020000040030CA
:0E0000001413461EFF8981FF0FC00F800F40B2
:00000001FF
